{
  "_format": "hh-sol-artifact-1",
  "contractName": "chai",
  "sourceName": "contracts/Chai.sol",
  "abi": [
    {
      "inputs": [],
      "stateMutability": "nonpayable",
      "type": "constructor"
    },
    {
      "inputs": [
        {
          "internalType": "string",
          "name": "name",
          "type": "string"
        },
        {
          "internalType": "string",
          "name": "message",
          "type": "string"
        }
      ],
      "name": "buyChai",
      "outputs": [],
      "stateMutability": "payable",
      "type": "function"
    },
    {
      "inputs": [],
      "name": "getBalance",
      "outputs": [
        {
          "internalType": "uint256",
          "name": "",
          "type": "uint256"
        }
      ],
      "stateMutability": "view",
      "type": "function"
    },
    {
      "inputs": [],
      "name": "getMemos",
      "outputs": [
        {
          "components": [
            {
              "internalType": "string",
              "name": "name",
              "type": "string"
            },
            {
              "internalType": "string",
              "name": "message",
              "type": "string"
            },
            {
              "internalType": "uint256",
              "name": "timestamp",
              "type": "uint256"
            },
            {
              "internalType": "address",
              "name": "from",
              "type": "address"
            }
          ],
          "internalType": "struct chai.Memo[]",
          "name": "",
          "type": "tuple[]"
        }
      ],
      "stateMutability": "view",
      "type": "function"
    },
    {
      "inputs": [],
      "name": "owner",
      "outputs": [
        {
          "internalType": "address payable",
          "name": "",
          "type": "address"
        }
      ],
      "stateMutability": "view",
      "type": "function"
    }
  ],
  "bytecode": "0x608060405234801561001057600080fd5b5033600160006101000a81548173ffffffffffffffffffffffffffffffffffffffff021916908373ffffffffffffffffffffffffffffffffffffffff160217905550610cd2806100616000396000f3fe60806040526004361061003f5760003560e01c806312065fe0146100445780636a13d8591461006f578063865c51721461008b5780638da5cb5b146100b6575b600080fd5b34801561005057600080fd5b506100596100e1565b60405161006691906104d5565b60405180910390f35b6100896004803603810190610084919061064a565b610122565b005b34801561009757600080fd5b506100a06102b3565b6040516100ad91906108bd565b60405180910390f35b3480156100c257600080fd5b506100cb610496565b6040516100d89190610900565b60405180910390f35b6000600160009054906101000a900473ffffffffffffffffffffffffffffffffffffffff1673ffffffffffffffffffffffffffffffffffffffff1631905090565b60003411610165576040517f08c379a000000000000000000000000000000000000000000000000000000000815260040161015c9061099e565b60405180910390fd5b600160009054906101000a900473ffffffffffffffffffffffffffffffffffffffff1673ffffffffffffffffffffffffffffffffffffffff166108fc349081150290604051600060405180830381858888f193505050501580156101cd573d6000803e3d6000fd5b50600060405180608001604052808481526020018381526020014281526020013373ffffffffffffffffffffffffffffffffffffffff16815250908060018154018082558091505060019003906000526020600020906004020160009091909190915060008201518160000190816102459190610bca565b50602082015181600101908161025b9190610bca565b506040820151816002015560608201518160030160006101000a81548173ffffffffffffffffffffffffffffffffffffffff021916908373ffffffffffffffffffffffffffffffffffffffff16021790555050505050565b60606000805480602002602001604051908101604052809291908181526020016000905b8282101561048d578382906000526020600020906004020160405180608001604052908160008201805461030a906109ed565b80601f0160208091040260200160405190810160405280929190818152602001828054610336906109ed565b80156103835780601f1061035857610100808354040283529160200191610383565b820191906000526020600020905b81548152906001019060200180831161036657829003601f168201915b5050505050815260200160018201805461039c906109ed565b80601f01602080910402602001604051908101604052809291908181526020018280546103c8906109ed565b80156104155780601f106103ea57610100808354040283529160200191610415565b820191906000526020600020905b8154815290600101906020018083116103f857829003601f168201915b50505050508152602001600282015481526020016003820160009054906101000a900473ffffffffffffffffffffffffffffffffffffffff1673ffffffffffffffffffffffffffffffffffffffff1673ffffffffffffffffffffffffffffffffffffffff1681525050815260200190600101906102d7565b50505050905090565b600160009054906101000a900473ffffffffffffffffffffffffffffffffffffffff1681565b6000819050919050565b6104cf816104bc565b82525050565b60006020820190506104ea60008301846104c6565b92915050565b6000604051905090565b600080fd5b600080fd5b600080fd5b600080fd5b6000601f19601f8301169050919050565b7f4e487b7100000000000000000000000000000000000000000000000000000000600052604160045260246000fd5b6105578261050e565b810181811067ffffffffffffffff821117156105765761057561051f565b5b80604052505050565b60006105896104f0565b9050610595828261054e565b919050565b600067ffffffffffffffff8211156105b5576105b461051f565b5b6105be8261050e565b9050602081019050919050565b82818337600083830152505050565b60006105ed6105e88461059a565b61057f565b90508281526020810184848401111561060957610608610509565b5b6106148482856105cb565b509392505050565b600082601f83011261063157610630610504565b5b81356106418482602086016105da565b91505092915050565b60008060408385031215610661576106606104fa565b5b600083013567ffffffffffffffff81111561067f5761067e6104ff565b5b61068b8582860161061c565b925050602083013567ffffffffffffffff8111156106ac576106ab6104ff565b5b6106b88582860161061c565b9150509250929050565b600081519050919050565b600082825260208201905092915050565b6000819050602082019050919050565b600081519050919050565b600082825260208201905092915050565b60005b8381101561072857808201518184015260208101905061070d565b60008484015250505050565b600061073f826106ee565b61074981856106f9565b935061075981856020860161070a565b6107628161050e565b840191505092915050565b610776816104bc565b82525050565b600073ffffffffffffffffffffffffffffffffffffffff82169050919050565b60006107a78261077c565b9050919050565b6107b78161079c565b82525050565b600060808301600083015184820360008601526107da8282610734565b915050602083015184820360208601526107f48282610734565b9150506040830151610809604086018261076d565b50606083015161081c60608601826107ae565b508091505092915050565b600061083383836107bd565b905092915050565b6000602082019050919050565b6000610853826106c2565b61085d81856106cd565b93508360208202850161086f856106de565b8060005b858110156108ab578484038952815161088c8582610827565b94506108978361083b565b925060208a01995050600181019050610873565b50829750879550505050505092915050565b600060208201905081810360008301526108d78184610848565b905092915050565b60006108ea8261077c565b9050919050565b6108fa816108df565b82525050565b600060208201905061091560008301846108f1565b92915050565b600082825260208201905092915050565b7f506c656173652070617920736f6d657468696e6720677265617465722074686160008201527f6e20300000000000000000000000000000000000000000000000000000000000602082015250565b600061098860238361091b565b91506109938261092c565b604082019050919050565b600060208201905081810360008301526109b78161097b565b9050919050565b7f4e487b7100000000000000000000000000000000000000000000000000000000600052602260045260246000fd5b60006002820490506001821680610a0557607f821691505b602082108103610a1857610a176109be565b5b50919050565b60008190508160005260206000209050919050565b60006020601f8301049050919050565b600082821b905092915050565b600060088302610a807fffffffffffffffffffffffffffffffffffffffffffffffffffffffffffffffff82610a43565b610a8a8683610a43565b95508019841693508086168417925050509392505050565b6000819050919050565b6000610ac7610ac2610abd846104bc565b610aa2565b6104bc565b9050919050565b6000819050919050565b610ae183610aac565b610af5610aed82610ace565b848454610a50565b825550505050565b600090565b610b0a610afd565b610b15818484610ad8565b505050565b5b81811015610b3957610b2e600082610b02565b600181019050610b1b565b5050565b601f821115610b7e57610b4f81610a1e565b610b5884610a33565b81016020851015610b67578190505b610b7b610b7385610a33565b830182610b1a565b50505b505050565b600082821c905092915050565b6000610ba160001984600802610b83565b1980831691505092915050565b6000610bba8383610b90565b9150826002028217905092915050565b610bd3826106ee565b67ffffffffffffffff811115610bec57610beb61051f565b5b610bf682546109ed565b610c01828285610b3d565b600060209050601f831160018114610c345760008415610c22578287015190505b610c2c8582610bae565b865550610c94565b601f198416610c4286610a1e565b60005b82811015610c6a57848901518255600182019150602085019450602081019050610c45565b86831015610c875784890151610c83601f891682610b90565b8355505b6001600288020188555050505b50505050505056fea26469706673582212201ac49a9bef39e200bb30e1f89c7cabb1f5575ee7ee5d6294f0a1e0fb0cc40e6e64736f6c63430008110033",
  "linkReferences": {},
  "deployedLinkReferences": {}
}