{
  "contractName": "moodDiary",
  "abi": [
    {
      "inputs": [
        {
          "internalType": "string",
          "name": "_curentmood",
          "type": "string"
        }
      ],
      "name": "setmood",
      "outputs": [],
      "stateMutability": "nonpayable",
      "type": "function"
    },
    {
      "inputs": [],
      "name": "getmood",
      "outputs": [
        {
          "internalType": "string",
          "name": "",
          "type": "string"
        }
      ],
      "stateMutability": "view",
      "type": "function"
    }
  ],
  "bytecode": "0x608060405234801561001057600080fd5b506104a7806100206000396000f3fe608060405234801561001057600080fd5b50600436106100365760003560e01c806326bd85621461003b578063d199375014610059575b600080fd5b610043610075565b604051610050919061025d565b60405180910390f35b610073600480360381019061006e91906103c8565b610107565b005b60606000805461008490610440565b80601f01602080910402602001604051908101604052809291908181526020018280546100b090610440565b80156100fd5780601f106100d2576101008083540402835291602001916100fd565b820191906000526020600020905b8154815290600101906020018083116100e057829003601f168201915b5050505050905090565b806000908051906020019061011d929190610121565b5050565b82805461012d90610440565b90600052602060002090601f01602090048101928261014f5760008555610196565b82601f1061016857805160ff1916838001178555610196565b82800160010185558215610196579182015b8281111561019557825182559160200191906001019061017a565b5b5090506101a391906101a7565b5090565b5b808211156101c05760008160009055506001016101a8565b5090565b600081519050919050565b600082825260208201905092915050565b60005b838110156101fe5780820151818401526020810190506101e3565b8381111561020d576000848401525b50505050565b6000601f19601f8301169050919050565b600061022f826101c4565b61023981856101cf565b93506102498185602086016101e0565b61025281610213565b840191505092915050565b600060208201905081810360008301526102778184610224565b905092915050565b6000604051905090565b600080fd5b600080fd5b600080fd5b600080fd5b7f4e487b7100000000000000000000000000000000000000000000000000000000600052604160045260246000fd5b6102d582610213565b810181811067ffffffffffffffff821117156102f4576102f361029d565b5b80604052505050565b600061030761027f565b905061031382826102cc565b919050565b600067ffffffffffffffff8211156103335761033261029d565b5b61033c82610213565b9050602081019050919050565b82818337600083830152505050565b600061036b61036684610318565b6102fd565b90508281526020810184848401111561038757610386610298565b5b610392848285610349565b509392505050565b600082601f8301126103af576103ae610293565b5b81356103bf848260208601610358565b91505092915050565b6000602082840312156103de576103dd610289565b5b600082013567ffffffffffffffff8111156103fc576103fb61028e565b5b6104088482850161039a565b91505092915050565b7f4e487b7100000000000000000000000000000000000000000000000000000000600052602260045260246000fd5b6000600282049050600182168061045857607f821691505b60208210810361046b5761046a610411565b5b5091905056fea2646970667358221220e1a81b41018df99b371f852fd12590e54e5af242edef6793c8596d71a167524e64736f6c634300080e0033",
  "immutableReferences": {},
  "source": "// SPDX-License-Identifier: GPL-3.0\n\npragma solidity >=0.7.0 <0.9.0;\n\ncontract moodDiary{\n    string mood;\n    function setmood( string memory _curentmood) public{\n        mood = _curentmood;\n    }\n\n    function getmood() view public returns(string memory){\n        return mood;\n    }\n}",
  "sourcePath": "/home/vikash/Desktop/Scaller/WEB3/First_daap/Tru/contracts/mood.sol",
  "compiler": {
    "name": "solc",
    "version": "0.8.14+commit.80d49f37.Emscripten.clang"
  },
  "schemaVersion": "3.4.7",
  "updatedAt": "2022-06-08T18:05:03.855Z",
  "devdoc": {
    "kind": "dev",
    "methods": {},
    "version": 1
  },
  "userdoc": {
    "kind": "user",
    "methods": {},
    "version": 1
  }
}