{
  "contractName": "vote",
  "abi": [
    {
      "inputs": [],
      "stateMutability": "nonpayable",
      "type": "constructor"
    },
    {
      "inputs": [],
      "name": "owner",
      "outputs": [
        {
          "internalType": "address",
          "name": "",
          "type": "address"
        }
      ],
      "stateMutability": "view",
      "type": "function",
      "constant": true
    },
    {
      "inputs": [],
      "name": "participant1",
      "outputs": [
        {
          "internalType": "address",
          "name": "",
          "type": "address"
        }
      ],
      "stateMutability": "view",
      "type": "function",
      "constant": true
    },
    {
      "inputs": [],
      "name": "participant2",
      "outputs": [
        {
          "internalType": "address",
          "name": "",
          "type": "address"
        }
      ],
      "stateMutability": "view",
      "type": "function",
      "constant": true
    },
    {
      "inputs": [],
      "name": "winner",
      "outputs": [
        {
          "internalType": "string",
          "name": "",
          "type": "string"
        }
      ],
      "stateMutability": "view",
      "type": "function",
      "constant": true
    },
    {
      "inputs": [],
      "name": "participant1_vote",
      "outputs": [],
      "stateMutability": "nonpayable",
      "type": "function"
    },
    {
      "inputs": [],
      "name": "participant2_vote",
      "outputs": [],
      "stateMutability": "nonpayable",
      "type": "function"
    },
    {
      "inputs": [],
      "name": "pati1_cnt_VOTE",
      "outputs": [
        {
          "internalType": "uint256",
          "name": "",
          "type": "uint256"
        }
      ],
      "stateMutability": "view",
      "type": "function",
      "constant": true
    },
    {
      "inputs": [],
      "name": "pati2_cnt_VOTE",
      "outputs": [
        {
          "internalType": "uint256",
          "name": "",
          "type": "uint256"
        }
      ],
      "stateMutability": "view",
      "type": "function",
      "constant": true
    },
    {
      "inputs": [],
      "name": "declare_winner",
      "outputs": [],
      "stateMutability": "nonpayable",
      "type": "function"
    }
  ],
  "bytecode": "0x608060405273da8dd222a31a092363ec06bbdbb61b99858d8880600160006101000a81548173ffffffffffffffffffffffffffffffffffffffff021916908373ffffffffffffffffffffffffffffffffffffffff16021790555073e886856f3bc225c27f85ffcccf4bb11dce3babf7600260006101000a81548173ffffffffffffffffffffffffffffffffffffffff021916908373ffffffffffffffffffffffffffffffffffffffff1602179055503480156100ba57600080fd5b5033600560006101000a81548173ffffffffffffffffffffffffffffffffffffffff021916908373ffffffffffffffffffffffffffffffffffffffff160217905550610efd8061010b6000396000f3fe608060405234801561001057600080fd5b50600436106100935760003560e01c8063d4586a6a11610066578063d4586a6a146100fc578063dc45111c14610106578063dfbf53ae14610124578063e702701f14610142578063f9d5a86e1461016057610093565b806348c10b56146100985780638da5cb5b146100b6578063aecae7dd146100d4578063b71836bd146100f2575b600080fd5b6100a061016a565b6040516100ad9190610afc565b60405180910390f35b6100be6101d3565b6040516100cb9190610b58565b60405180910390f35b6100dc6101f9565b6040516100e99190610afc565b60405180910390f35b6100fa610262565b005b610104610578565b005b61010e61076e565b60405161011b9190610b58565b60405180910390f35b61012c610794565b6040516101399190610c0c565b60405180910390f35b61014a610822565b6040516101579190610b58565b60405180910390f35b610168610848565b005b600060036000600160009054906101000a900473ffffffffffffffffffffffffffffffffffffffff1673ffffffffffffffffffffffffffffffffffffffff1673ffffffffffffffffffffffffffffffffffffffff16815260200190815260200160002054905090565b600560009054906101000a900473ffffffffffffffffffffffffffffffffffffffff1681565b600060036000600260009054906101000a900473ffffffffffffffffffffffffffffffffffffffff1673ffffffffffffffffffffffffffffffffffffffff1673ffffffffffffffffffffffffffffffffffffffff16815260200190815260200160002054905090565b600560009054906101000a900473ffffffffffffffffffffffffffffffffffffffff1673ffffffffffffffffffffffffffffffffffffffff163373ffffffffffffffffffffffffffffffffffffffff16146102f2576040517f08c379a00000000000000000000000000000000000000000000000000000000081526004016102e990610ca0565b60405180910390fd5b60036000600260009054906101000a900473ffffffffffffffffffffffffffffffffffffffff1673ffffffffffffffffffffffffffffffffffffffff1673ffffffffffffffffffffffffffffffffffffffff1681526020019081526020016000205460036000600160009054906101000a900473ffffffffffffffffffffffffffffffffffffffff1673ffffffffffffffffffffffffffffffffffffffff1673ffffffffffffffffffffffffffffffffffffffff16815260200190815260200160002054111561040d576040518060400160405280601581526020017f43616e64696461746520312069732077696e6e6572000000000000000000000081525060009080519060200190610407929190610a40565b50610576565b60036000600260009054906101000a900473ffffffffffffffffffffffffffffffffffffffff1673ffffffffffffffffffffffffffffffffffffffff1673ffffffffffffffffffffffffffffffffffffffff1681526020019081526020016000205460036000600160009054906101000a900473ffffffffffffffffffffffffffffffffffffffff1673ffffffffffffffffffffffffffffffffffffffff1673ffffffffffffffffffffffffffffffffffffffff168152602001908152602001600020541415610528576040518060400160405280600481526020017f447261770000000000000000000000000000000000000000000000000000000081525060009080519060200190610522929190610a40565b50610575565b6040518060400160405280601581526020017f43616e64696461746520322069732077696e6e6572000000000000000000000081525060009080519060200190610573929190610a40565b505b5b565b600160009054906101000a900473ffffffffffffffffffffffffffffffffffffffff1673ffffffffffffffffffffffffffffffffffffffff163373ffffffffffffffffffffffffffffffffffffffff161415610609576040517f08c379a000000000000000000000000000000000000000000000000000000000815260040161060090610d0c565b60405180910390fd5b60011515600460003373ffffffffffffffffffffffffffffffffffffffff1673ffffffffffffffffffffffffffffffffffffffff16815260200190815260200160002060009054906101000a900460ff161515141561069d576040517f08c379a000000000000000000000000000000000000000000000000000000000815260040161069490610d78565b60405180910390fd5b60036000600160009054906101000a900473ffffffffffffffffffffffffffffffffffffffff1673ffffffffffffffffffffffffffffffffffffffff1673ffffffffffffffffffffffffffffffffffffffff168152602001908152602001600020600081548092919061070f90610dc7565b91905055506001600460003373ffffffffffffffffffffffffffffffffffffffff1673ffffffffffffffffffffffffffffffffffffffff16815260200190815260200160002060006101000a81548160ff021916908315150217905550565b600260009054906101000a900473ffffffffffffffffffffffffffffffffffffffff1681565b600080546107a190610e3f565b80601f01602080910402602001604051908101604052809291908181526020018280546107cd90610e3f565b801561081a5780601f106107ef5761010080835404028352916020019161081a565b820191906000526020600020905b8154815290600101906020018083116107fd57829003601f168201915b505050505081565b600160009054906101000a900473ffffffffffffffffffffffffffffffffffffffff1681565b600260009054906101000a900473ffffffffffffffffffffffffffffffffffffffff1673ffffffffffffffffffffffffffffffffffffffff163373ffffffffffffffffffffffffffffffffffffffff1614156108d9576040517f08c379a00000000000000000000000000000000000000000000000000000000081526004016108d090610d0c565b60405180910390fd5b60011515600460003373ffffffffffffffffffffffffffffffffffffffff1673ffffffffffffffffffffffffffffffffffffffff16815260200190815260200160002060009054906101000a900460ff161515141561096d576040517f08c379a000000000000000000000000000000000000000000000000000000000815260040161096490610d78565b60405180910390fd5b600160036000600260009054906101000a900473ffffffffffffffffffffffffffffffffffffffff1673ffffffffffffffffffffffffffffffffffffffff1673ffffffffffffffffffffffffffffffffffffffff16815260200190815260200160002060008282546109df9190610e71565b925050819055506001600460003373ffffffffffffffffffffffffffffffffffffffff1673ffffffffffffffffffffffffffffffffffffffff16815260200190815260200160002060006101000a81548160ff021916908315150217905550565b828054610a4c90610e3f565b90600052602060002090601f016020900481019282610a6e5760008555610ab5565b82601f10610a8757805160ff1916838001178555610ab5565b82800160010185558215610ab5579182015b82811115610ab4578251825591602001919060010190610a99565b5b509050610ac29190610ac6565b5090565b5b80821115610adf576000816000905550600101610ac7565b5090565b6000819050919050565b610af681610ae3565b82525050565b6000602082019050610b116000830184610aed565b92915050565b600073ffffffffffffffffffffffffffffffffffffffff82169050919050565b6000610b4282610b17565b9050919050565b610b5281610b37565b82525050565b6000602082019050610b6d6000830184610b49565b92915050565b600081519050919050565b600082825260208201905092915050565b60005b83811015610bad578082015181840152602081019050610b92565b83811115610bbc576000848401525b50505050565b6000601f19601f8301169050919050565b6000610bde82610b73565b610be88185610b7e565b9350610bf8818560208601610b8f565b610c0181610bc2565b840191505092915050565b60006020820190508181036000830152610c268184610bd3565b905092915050565b7f596f7520617265206e6f7420616c6c6f77656420746f206465636c617265207460008201527f686520726573756c740000000000000000000000000000000000000000000000602082015250565b6000610c8a602983610b7e565b9150610c9582610c2e565b604082019050919050565b60006020820190508181036000830152610cb981610c7d565b9050919050565b7f596f752063616e206e6f7420766f746520746f20796f757273656c6600000000600082015250565b6000610cf6601c83610b7e565b9150610d0182610cc0565b602082019050919050565b60006020820190508181036000830152610d2581610ce9565b9050919050565b7f596f75206861766520616c726561647920766f74656400000000000000000000600082015250565b6000610d62601683610b7e565b9150610d6d82610d2c565b602082019050919050565b60006020820190508181036000830152610d9181610d55565b9050919050565b7f4e487b7100000000000000000000000000000000000000000000000000000000600052601160045260246000fd5b6000610dd282610ae3565b91507fffffffffffffffffffffffffffffffffffffffffffffffffffffffffffffffff821415610e0557610e04610d98565b5b600182019050919050565b7f4e487b7100000000000000000000000000000000000000000000000000000000600052602260045260246000fd5b60006002820490506001821680610e5757607f821691505b60208210811415610e6b57610e6a610e10565b5b50919050565b6000610e7c82610ae3565b9150610e8783610ae3565b9250827fffffffffffffffffffffffffffffffffffffffffffffffffffffffffffffffff03821115610ebc57610ebb610d98565b5b82820190509291505056fea2646970667358221220d40c746f8990e27dd9bc7c9cec3a57e0ede5e0d61e8889e127af68e55f12cb8c64736f6c634300080b0033",
  "immutableReferences": {},
  "source": "// SPDX-License-Identifier: GPL-3.0\r\n\r\npragma solidity >=0.7.0 <0.9.0;\r\n\r\ncontract vote{\r\n    string public winner;\r\n    address public  participant1 =0xda8Dd222A31a092363eC06bBDBB61B99858d8880;\r\n    address public  participant2 = 0xe886856f3Bc225c27f85FFcCCF4BB11DCE3BaBF7;\r\n    mapping(address=>uint) user;\r\n    mapping(address=>bool) chek;\r\n\r\n    address public owner;\r\n    constructor(){\r\n        owner = msg.sender;\r\n    }\r\n\r\n    modifier onlyonwner(){\r\n        require(msg.sender == owner,\"You are not allowed to declare the result\");\r\n        _;\r\n    }\r\n\r\n    function participant1_vote()  public {\r\n        require(msg.sender !=participant1,\"You can not vote to yourself\");\r\n        require(chek[msg.sender]!=true,\"You have already voted\");\r\n        user[participant1]++;\r\n        chek[msg.sender] = true;\r\n    }\r\n        function participant2_vote()  public {\r\n        require(msg.sender !=participant2,\"You can not vote to yourself\");\r\n        require(chek[msg.sender]!=true,\"You have already voted\");\r\n        user[participant2]+=1;\r\n        chek[msg.sender] = true;\r\n    }\r\n\r\n    function pati1_cnt_VOTE() view public  returns(uint){\r\n        return user[participant1];\r\n\r\n    }\r\n\r\n    function pati2_cnt_VOTE() view public  returns(uint){\r\n        return user[participant2];\r\n\r\n    }\r\n\r\n    function declare_winner()  public  onlyonwner {\r\n        if(user[participant1]>user[participant2]){\r\n            winner = \"Candidate 1 is winner\";\r\n            // winner = _winner;\r\n        }\r\n        else if(user[participant1]==user[participant2]){\r\n            winner = \"Draw\";\r\n            // winner = _winner;\r\n\r\n        }\r\n        else{\r\n            winner = \"Candidate 2 is winner\";\r\n            // winner = _winner;\r\n\r\n        }\r\n    }\r\n\r\n}",
  "sourcePath": "C:\\Users\\DELL\\Desktop\\voting project\\truffle\\contracts\\vote.sol",
  "compiler": {
    "name": "solc",
    "version": "0.8.11+commit.d7f03943.Emscripten.clang"
  },
  "schemaVersion": "3.4.10",
  "updatedAt": "2022-12-24T13:30:22.306Z",
  "networkType": "ethereum",
  "devdoc": {
    "kind": "dev",
    "methods": {},
    "version": 1
  },
  "userdoc": {
    "kind": "user",
    "methods": {},
    "version": 1
  }
}