{
  "contractName": "WeaveChain",
  "abi": [
    {
      "inputs": [],
      "stateMutability": "nonpayable",
      "type": "constructor"
    },
    {
      "anonymous": false,
      "inputs": [
        {
          "indexed": false,
          "internalType": "uint256",
          "name": "id",
          "type": "uint256"
        },
        {
          "indexed": true,
          "internalType": "address",
          "name": "actorAddress",
          "type": "address"
        },
        {
          "indexed": false,
          "internalType": "string",
          "name": "name",
          "type": "string"
        },
        {
          "indexed": false,
          "internalType": "uint8",
          "name": "role",
          "type": "uint8"
        },
        {
          "indexed": false,
          "internalType": "string",
          "name": "place",
          "type": "string"
        },
        {
          "indexed": false,
          "internalType": "string",
          "name": "log",
          "type": "string"
        }
      ],
      "name": "ActorCreated",
      "type": "event"
    },
    {
      "anonymous": false,
      "inputs": [
        {
          "indexed": true,
          "internalType": "address",
          "name": "actorAddress",
          "type": "address"
        },
        {
          "indexed": false,
          "internalType": "uint256",
          "name": "assetId",
          "type": "uint256"
        },
        {
          "indexed": false,
          "internalType": "string",
          "name": "log",
          "type": "string"
        }
      ],
      "name": "AssetAdded",
      "type": "event"
    },
    {
      "anonymous": false,
      "inputs": [
        {
          "indexed": false,
          "internalType": "uint256",
          "name": "id",
          "type": "uint256"
        },
        {
          "indexed": false,
          "internalType": "address",
          "name": "owner",
          "type": "address"
        },
        {
          "indexed": false,
          "internalType": "uint256",
          "name": "price",
          "type": "uint256"
        },
        {
          "indexed": false,
          "internalType": "string",
          "name": "message",
          "type": "string"
        }
      ],
      "name": "AssetInitiated",
      "type": "event"
    },
    {
      "anonymous": false,
      "inputs": [
        {
          "indexed": false,
          "internalType": "uint256",
          "name": "id",
          "type": "uint256"
        },
        {
          "indexed": false,
          "internalType": "uint8",
          "name": "oldState",
          "type": "uint8"
        },
        {
          "indexed": false,
          "internalType": "uint8",
          "name": "newState",
          "type": "uint8"
        },
        {
          "indexed": false,
          "internalType": "address",
          "name": "owner",
          "type": "address"
        },
        {
          "indexed": false,
          "internalType": "uint256",
          "name": "price",
          "type": "uint256"
        },
        {
          "indexed": false,
          "internalType": "string",
          "name": "message",
          "type": "string"
        }
      ],
      "name": "AssetProcessed",
      "type": "event"
    },
    {
      "anonymous": false,
      "inputs": [
        {
          "indexed": false,
          "internalType": "uint256",
          "name": "assetId",
          "type": "uint256"
        },
        {
          "indexed": false,
          "internalType": "address payable",
          "name": "seller",
          "type": "address"
        },
        {
          "indexed": false,
          "internalType": "address",
          "name": "buyer",
          "type": "address"
        },
        {
          "indexed": false,
          "internalType": "uint8",
          "name": "state",
          "type": "uint8"
        },
        {
          "indexed": false,
          "internalType": "uint256",
          "name": "price",
          "type": "uint256"
        },
        {
          "indexed": false,
          "internalType": "string",
          "name": "message",
          "type": "string"
        }
      ],
      "name": "AssetPurchased",
      "type": "event"
    },
    {
      "inputs": [
        {
          "internalType": "address",
          "name": "",
          "type": "address"
        },
        {
          "internalType": "uint256",
          "name": "",
          "type": "uint256"
        }
      ],
      "name": "actorAssetsByAddress",
      "outputs": [
        {
          "internalType": "uint256",
          "name": "id",
          "type": "uint256"
        },
        {
          "internalType": "uint256",
          "name": "time",
          "type": "uint256"
        }
      ],
      "stateMutability": "view",
      "type": "function",
      "constant": true
    },
    {
      "inputs": [],
      "name": "actorIdCounter",
      "outputs": [
        {
          "internalType": "uint256",
          "name": "",
          "type": "uint256"
        }
      ],
      "stateMutability": "view",
      "type": "function",
      "constant": true
    },
    {
      "inputs": [
        {
          "internalType": "address",
          "name": "",
          "type": "address"
        }
      ],
      "name": "actorsByAddress",
      "outputs": [
        {
          "internalType": "uint256",
          "name": "id",
          "type": "uint256"
        },
        {
          "internalType": "address",
          "name": "actorAddress",
          "type": "address"
        },
        {
          "internalType": "string",
          "name": "name",
          "type": "string"
        },
        {
          "internalType": "uint8",
          "name": "role",
          "type": "uint8"
        },
        {
          "internalType": "string",
          "name": "place",
          "type": "string"
        }
      ],
      "stateMutability": "view",
      "type": "function",
      "constant": true
    },
    {
      "inputs": [
        {
          "internalType": "uint256",
          "name": "",
          "type": "uint256"
        }
      ],
      "name": "actorsById",
      "outputs": [
        {
          "internalType": "uint256",
          "name": "id",
          "type": "uint256"
        },
        {
          "internalType": "address",
          "name": "actorAddress",
          "type": "address"
        },
        {
          "internalType": "string",
          "name": "name",
          "type": "string"
        },
        {
          "internalType": "uint8",
          "name": "role",
          "type": "uint8"
        },
        {
          "internalType": "string",
          "name": "place",
          "type": "string"
        }
      ],
      "stateMutability": "view",
      "type": "function",
      "constant": true
    },
    {
      "inputs": [],
      "name": "addressContractOwner",
      "outputs": [
        {
          "internalType": "address",
          "name": "",
          "type": "address"
        }
      ],
      "stateMutability": "view",
      "type": "function",
      "constant": true
    },
    {
      "inputs": [],
      "name": "assetIdCounter",
      "outputs": [
        {
          "internalType": "uint256",
          "name": "",
          "type": "uint256"
        }
      ],
      "stateMutability": "view",
      "type": "function",
      "constant": true
    },
    {
      "inputs": [
        {
          "internalType": "uint256",
          "name": "",
          "type": "uint256"
        }
      ],
      "name": "payableAssetsById",
      "outputs": [
        {
          "internalType": "uint8",
          "name": "trackerNumber",
          "type": "uint8"
        },
        {
          "internalType": "uint8",
          "name": "state",
          "type": "uint8"
        },
        {
          "internalType": "uint256",
          "name": "price",
          "type": "uint256"
        },
        {
          "internalType": "address payable",
          "name": "recentOwner",
          "type": "address"
        }
      ],
      "stateMutability": "view",
      "type": "function",
      "constant": true
    },
    {
      "inputs": [
        {
          "internalType": "uint256",
          "name": "",
          "type": "uint256"
        },
        {
          "internalType": "uint8",
          "name": "",
          "type": "uint8"
        }
      ],
      "name": "tracerAssets",
      "outputs": [
        {
          "internalType": "uint8",
          "name": "state",
          "type": "uint8"
        },
        {
          "internalType": "address",
          "name": "actorAddress",
          "type": "address"
        },
        {
          "internalType": "uint256",
          "name": "price",
          "type": "uint256"
        },
        {
          "internalType": "uint256",
          "name": "time",
          "type": "uint256"
        },
        {
          "internalType": "uint8",
          "name": "buyStatus",
          "type": "uint8"
        }
      ],
      "stateMutability": "view",
      "type": "function",
      "constant": true
    },
    {
      "inputs": [
        {
          "internalType": "address",
          "name": "_address",
          "type": "address"
        }
      ],
      "name": "getActorRole",
      "outputs": [
        {
          "internalType": "uint256",
          "name": "",
          "type": "uint256"
        }
      ],
      "stateMutability": "view",
      "type": "function",
      "constant": true
    },
    {
      "inputs": [
        {
          "internalType": "address",
          "name": "_address",
          "type": "address"
        }
      ],
      "name": "getRegisterStatus",
      "outputs": [
        {
          "internalType": "bool",
          "name": "",
          "type": "bool"
        }
      ],
      "stateMutability": "view",
      "type": "function",
      "constant": true
    },
    {
      "inputs": [
        {
          "internalType": "address",
          "name": "_address",
          "type": "address"
        }
      ],
      "name": "getActorAssets",
      "outputs": [
        {
          "components": [
            {
              "internalType": "uint256",
              "name": "id",
              "type": "uint256"
            },
            {
              "internalType": "uint256",
              "name": "time",
              "type": "uint256"
            }
          ],
          "internalType": "struct WeaveChain.ActorAsset[]",
          "name": "",
          "type": "tuple[]"
        }
      ],
      "stateMutability": "view",
      "type": "function",
      "constant": true
    },
    {
      "inputs": [
        {
          "internalType": "address",
          "name": "_address",
          "type": "address"
        },
        {
          "internalType": "string",
          "name": "_name",
          "type": "string"
        },
        {
          "internalType": "uint8",
          "name": "_role",
          "type": "uint8"
        },
        {
          "internalType": "string",
          "name": "_place",
          "type": "string"
        }
      ],
      "name": "registerActor",
      "outputs": [],
      "stateMutability": "nonpayable",
      "type": "function"
    },
    {
      "inputs": [
        {
          "internalType": "uint256",
          "name": "_price",
          "type": "uint256"
        }
      ],
      "name": "addRawMaterial",
      "outputs": [],
      "stateMutability": "nonpayable",
      "type": "function"
    },
    {
      "inputs": [
        {
          "internalType": "uint256",
          "name": "_assetId",
          "type": "uint256"
        },
        {
          "internalType": "uint256",
          "name": "_price",
          "type": "uint256"
        }
      ],
      "name": "createThread",
      "outputs": [],
      "stateMutability": "nonpayable",
      "type": "function"
    },
    {
      "inputs": [
        {
          "internalType": "uint256",
          "name": "_assetId",
          "type": "uint256"
        },
        {
          "internalType": "uint256",
          "name": "_price",
          "type": "uint256"
        }
      ],
      "name": "distributeThread",
      "outputs": [],
      "stateMutability": "nonpayable",
      "type": "function"
    },
    {
      "inputs": [
        {
          "internalType": "uint256",
          "name": "_assetId",
          "type": "uint256"
        },
        {
          "internalType": "uint256",
          "name": "_price",
          "type": "uint256"
        }
      ],
      "name": "fabricWeaving",
      "outputs": [],
      "stateMutability": "nonpayable",
      "type": "function"
    },
    {
      "inputs": [
        {
          "internalType": "uint256",
          "name": "_assetId",
          "type": "uint256"
        },
        {
          "internalType": "uint256",
          "name": "_price",
          "type": "uint256"
        }
      ],
      "name": "sellFabric",
      "outputs": [],
      "stateMutability": "nonpayable",
      "type": "function"
    },
    {
      "inputs": [
        {
          "internalType": "uint256",
          "name": "_assetId",
          "type": "uint256"
        }
      ],
      "name": "purchaseAsset",
      "outputs": [],
      "stateMutability": "payable",
      "type": "function",
      "payable": true
    }
  ],
  "bytecode": "0x60806040526000600155600060025534801561001a57600080fd5b50336000806101000a81548173ffffffffffffffffffffffffffffffffffffffff021916908373ffffffffffffffffffffffffffffffffffffffff16021790555061480b8061006a6000396000f3fe6080604052600436106101095760003560e01c8063958d153211610095578063b2e2316911610064578063b2e231691461038a578063c8c29160146103b3578063cb94f61e146103f4578063d049ae031461041f578063e3a00ef11461045c57610109565b8063958d1532146102c45780639ddb4a1d146102ef578063a457e1c014610330578063a6c6867b1461034c57610109565b8063426e236d116100dc578063426e236d146101b457806344453a94146101f1578063652052cf1461021a5780636beb34931461025a578063908f79721461029b57610109565b806310189f5c1461010e57806312b370f214610139578063213672ef146101625780633f97f2d41461018b575b600080fd5b34801561011a57600080fd5b50610123610499565b6040516101309190613011565b60405180910390f35b34801561014557600080fd5b50610160600480360381019061015b919061306c565b61049f565b005b34801561016e57600080fd5b50610189600480360381019061018491906130ac565b6109ee565b005b34801561019757600080fd5b506101b260048036038101906101ad919061306c565b610d25565b005b3480156101c057600080fd5b506101db60048036038101906101d69190613137565b611274565b6040516101e8919061317f565b60405180910390f35b3480156101fd57600080fd5b5061021860048036038101906102139190613319565b6112ce565b005b34801561022657600080fd5b50610241600480360381019061023c91906130ac565b611712565b60405161025194939291906133e8565b60405180910390f35b34801561026657600080fd5b50610281600480360381019061027c91906130ac565b61177c565b6040516102929594939291906134bb565b60405180910390f35b3480156102a757600080fd5b506102c260048036038101906102bd919061306c565b6118ef565b005b3480156102d057600080fd5b506102d9611e3e565b6040516102e69190613011565b60405180910390f35b3480156102fb57600080fd5b506103166004803603810190610311919061351c565b611e44565b60405161032795949392919061355c565b60405180910390f35b61034a600480360381019061034591906130ac565b611ec1565b005b34801561035857600080fd5b50610373600480360381019061036e91906135af565b612505565b6040516103819291906135ef565b60405180910390f35b34801561039657600080fd5b506103b160048036038101906103ac919061306c565b612546565b005b3480156103bf57600080fd5b506103da60048036038101906103d59190613137565b612a95565b6040516103eb9594939291906134bb565b60405180910390f35b34801561040057600080fd5b50610409612c08565b6040516104169190613618565b60405180910390f35b34801561042b57600080fd5b5061044660048036038101906104419190613137565b612c2c565b6040516104539190613720565b60405180910390f35b34801561046857600080fd5b50610483600480360381019061047e9190613137565b612cde565b6040516104909190613011565b60405180910390f35b60015481565b60026104aa33612cde565b146104ea576040517f08c379a00000000000000000000000000000000000000000000000000000000081526004016104e19061378e565b60405180910390fd5b60026006600084815260200190815260200160002060000160019054906101000a900460ff1660ff1614610553576040517f08c379a000000000000000000000000000000000000000000000000000000000815260040161054a90613820565b60405180910390fd5b61055d3383612d3a565b61059c576040517f08c379a0000000000000000000000000000000000000000000000000000000008152600401610593906138b2565b60405180910390fd5b600081116105df576040517f08c379a00000000000000000000000000000000000000000000000000000000081526004016105d690613944565b60405180910390fd5b60006006600084815260200190815260200160002060000160019054906101000a900460ff16905060066000848152602001908152602001600020600001600181819054906101000a900460ff168092919061063a90613993565b91906101000a81548160ff021916908360ff1602179055505060066000848152602001908152602001600020600001600081819054906101000a900460ff168092919061068690613993565b91906101000a81548160ff021916908360ff1602179055505060405180608001604052806006600086815260200190815260200160002060000160009054906101000a900460ff1660ff1681526020016006600086815260200190815260200160002060000160019054906101000a900460ff1660ff1681526020018381526020013373ffffffffffffffffffffffffffffffffffffffff168152506006600085815260200190815260200160002060008201518160000160006101000a81548160ff021916908360ff16021790555060208201518160000160016101000a81548160ff021916908360ff1602179055506040820151816001015560608201518160020160006101000a81548173ffffffffffffffffffffffffffffffffffffffff021916908373ffffffffffffffffffffffffffffffffffffffff160217905550905050600042905060006007600086815260200190815260200160002060006006600088815260200190815260200160002060000160009054906101000a900460ff1660ff1660ff16815260200190815260200160002060030160009054906101000a900460ff1690506040518060a001604052806006600088815260200190815260200160002060000160019054906101000a900460ff1660ff1681526020013373ffffffffffffffffffffffffffffffffffffffff1681526020018581526020018381526020018260ff168152506007600087815260200190815260200160002060006006600089815260200190815260200160002060000160009054906101000a900460ff1660ff1660ff16815260200190815260200160002060008201518160000160006101000a81548160ff021916908360ff16021790555060208201518160000160016101000a81548173ffffffffffffffffffffffffffffffffffffffff021916908373ffffffffffffffffffffffffffffffffffffffff160217905550604082015181600101556060820151816002015560808201518160030160006101000a81548160ff021916908360ff1602179055509050507f4077feae87a3ae002f685ef67fe617a0a8e0d1a75a7405ab86f96e0f44c3766f85846006600089815260200190815260200160002060000160019054906101000a900460ff1633886040516109df959493929190613a2e565b60405180910390a15050505050565b60016109f933612cde565b14610a39576040517f08c379a0000000000000000000000000000000000000000000000000000000008152600401610a3090613ae0565b60405180910390fd5b60008111610a7c576040517f08c379a0000000000000000000000000000000000000000000000000000000008152600401610a7390613944565b60405180910390fd5b6000600190506000600260008154610a9390613b00565b919050819055905060006001905060405180608001604052808260ff1681526020018460ff1681526020018581526020013373ffffffffffffffffffffffffffffffffffffffff168152506006600084815260200190815260200160002060008201518160000160006101000a81548160ff021916908360ff16021790555060208201518160000160016101000a81548160ff021916908360ff1602179055506040820151816001015560608201518160020160006101000a81548173ffffffffffffffffffffffffffffffffffffffff021916908373ffffffffffffffffffffffffffffffffffffffff160217905550905050610b913383612e44565b600042905060006007600085815260200190815260200160002060008460ff1660ff16815260200190815260200160002060030160009054906101000a900460ff1690506040518060a001604052808660ff1681526020013373ffffffffffffffffffffffffffffffffffffffff1681526020018781526020018381526020018260ff168152506007600086815260200190815260200160002060008560ff1660ff16815260200190815260200160002060008201518160000160006101000a81548160ff021916908360ff16021790555060208201518160000160016101000a81548173ffffffffffffffffffffffffffffffffffffffff021916908373ffffffffffffffffffffffffffffffffffffffff160217905550604082015181600101556060820151816002015560808201518160030160006101000a81548160ff021916908360ff1602179055509050507f3852f7009822b1e965511b49bb80394eee5e5c7756984329042c979d1f1e0ac8843388604051610d1593929190613bba565b60405180910390a1505050505050565b6003610d3033612cde565b14610d70576040517f08c379a0000000000000000000000000000000000000000000000000000000008152600401610d6790613c50565b60405180910390fd5b60036006600084815260200190815260200160002060000160019054906101000a900460ff1660ff1614610dd9576040517f08c379a0000000000000000000000000000000000000000000000000000000008152600401610dd090613820565b60405180910390fd5b610de33383612d3a565b610e22576040517f08c379a0000000000000000000000000000000000000000000000000000000008152600401610e19906138b2565b60405180910390fd5b60008111610e65576040517f08c379a0000000000000000000000000000000000000000000000000000000008152600401610e5c90613944565b60405180910390fd5b60006006600084815260200190815260200160002060000160019054906101000a900460ff16905060066000848152602001908152602001600020600001600181819054906101000a900460ff1680929190610ec090613993565b91906101000a81548160ff021916908360ff1602179055505060066000848152602001908152602001600020600001600081819054906101000a900460ff1680929190610f0c90613993565b91906101000a81548160ff021916908360ff1602179055505060405180608001604052806006600086815260200190815260200160002060000160009054906101000a900460ff1660ff1681526020016006600086815260200190815260200160002060000160019054906101000a900460ff1660ff1681526020018381526020013373ffffffffffffffffffffffffffffffffffffffff168152506006600085815260200190815260200160002060008201518160000160006101000a81548160ff021916908360ff16021790555060208201518160000160016101000a81548160ff021916908360ff1602179055506040820151816001015560608201518160020160006101000a81548173ffffffffffffffffffffffffffffffffffffffff021916908373ffffffffffffffffffffffffffffffffffffffff160217905550905050600042905060006007600086815260200190815260200160002060006006600088815260200190815260200160002060000160009054906101000a900460ff1660ff1660ff16815260200190815260200160002060030160009054906101000a900460ff1690506040518060a001604052806006600088815260200190815260200160002060000160019054906101000a900460ff1660ff1681526020013373ffffffffffffffffffffffffffffffffffffffff1681526020018581526020018381526020018260ff168152506007600087815260200190815260200160002060006006600089815260200190815260200160002060000160009054906101000a900460ff1660ff1660ff16815260200190815260200160002060008201518160000160006101000a81548160ff021916908360ff16021790555060208201518160000160016101000a81548173ffffffffffffffffffffffffffffffffffffffff021916908373ffffffffffffffffffffffffffffffffffffffff160217905550604082015181600101556060820151816002015560808201518160030160006101000a81548160ff021916908360ff1602179055509050507f4077feae87a3ae002f685ef67fe617a0a8e0d1a75a7405ab86f96e0f44c3766f85846006600089815260200190815260200160002060000160019054906101000a900460ff163388604051611265959493929190613ce2565b60405180910390a15050505050565b600080600360008473ffffffffffffffffffffffffffffffffffffffff1673ffffffffffffffffffffffffffffffffffffffff16815260200190815260200160002060020180546112c490613d77565b9050119050919050565b60008054906101000a900473ffffffffffffffffffffffffffffffffffffffff1673ffffffffffffffffffffffffffffffffffffffff163373ffffffffffffffffffffffffffffffffffffffff161461132657600080fd5b600083510361136a576040517f08c379a000000000000000000000000000000000000000000000000000000000815260040161136190613df4565b60405180910390fd5b60008151036113ae576040517f08c379a00000000000000000000000000000000000000000000000000000000081526004016113a590613e60565b60405180910390fd5b60008260ff16036113f4576040517f08c379a00000000000000000000000000000000000000000000000000000000081526004016113eb90613ecc565b60405180910390fd5b60048260ff16111561143b576040517f08c379a000000000000000000000000000000000000000000000000000000000815260040161143290613f5e565b60405180910390fd5b61144484611274565b15611484576040517f08c379a000000000000000000000000000000000000000000000000000000000815260040161147b90613fca565b60405180910390fd5b6001600081548092919061149790613b00565b91905055506040518060a0016040528060015481526020018573ffffffffffffffffffffffffffffffffffffffff1681526020018481526020018360ff168152602001828152506004600060015481526020019081526020016000206000820151816000015560208201518160010160006101000a81548173ffffffffffffffffffffffffffffffffffffffff021916908373ffffffffffffffffffffffffffffffffffffffff16021790555060408201518160020190816115599190614196565b5060608201518160030160006101000a81548160ff021916908360ff16021790555060808201518160040190816115909190614196565b509050506040518060a0016040528060015481526020018573ffffffffffffffffffffffffffffffffffffffff1681526020018481526020018360ff16815260200182815250600360008673ffffffffffffffffffffffffffffffffffffffff1673ffffffffffffffffffffffffffffffffffffffff1681526020019081526020016000206000820151816000015560208201518160010160006101000a81548173ffffffffffffffffffffffffffffffffffffffff021916908373ffffffffffffffffffffffffffffffffffffffff160217905550604082015181600201908161167b9190614196565b5060608201518160030160006101000a81548160ff021916908360ff16021790555060808201518160040190816116b29190614196565b509050508373ffffffffffffffffffffffffffffffffffffffff167f7c3847f8646db62185e686e424707892ca683b8c1fce382d4271e23ecbf63d9260015485858560405161170494939291906142b4565b60405180910390a250505050565b60066020528060005260406000206000915090508060000160009054906101000a900460ff16908060000160019054906101000a900460ff16908060010154908060020160009054906101000a900473ffffffffffffffffffffffffffffffffffffffff16905084565b60046020528060005260406000206000915090508060000154908060010160009054906101000a900473ffffffffffffffffffffffffffffffffffffffff16908060020180546117cb90613d77565b80601f01602080910402602001604051908101604052809291908181526020018280546117f790613d77565b80156118445780601f1061181957610100808354040283529160200191611844565b820191906000526020600020905b81548152906001019060200180831161182757829003601f168201915b5050505050908060030160009054906101000a900460ff169080600401805461186c90613d77565b80601f016020809104026020016040519081016040528092919081815260200182805461189890613d77565b80156118e55780601f106118ba576101008083540402835291602001916118e5565b820191906000526020600020905b8154815290600101906020018083116118c857829003601f168201915b5050505050905085565b60016118fa33612cde565b1461193a576040517f08c379a000000000000000000000000000000000000000000000000000000000815260040161193190613ae0565b60405180910390fd5b60016006600084815260200190815260200160002060000160019054906101000a900460ff1660ff16146119a3576040517f08c379a000000000000000000000000000000000000000000000000000000000815260040161199a90613820565b60405180910390fd5b6119ad3383612d3a565b6119ec576040517f08c379a00000000000000000000000000000000000000000000000000000000081526004016119e3906138b2565b60405180910390fd5b60008111611a2f576040517f08c379a0000000000000000000000000000000000000000000000000000000008152600401611a2690613944565b60405180910390fd5b60006006600084815260200190815260200160002060000160019054906101000a900460ff16905060066000848152602001908152602001600020600001600181819054906101000a900460ff1680929190611a8a90613993565b91906101000a81548160ff021916908360ff1602179055505060066000848152602001908152602001600020600001600081819054906101000a900460ff1680929190611ad690613993565b91906101000a81548160ff021916908360ff1602179055505060405180608001604052806006600086815260200190815260200160002060000160009054906101000a900460ff1660ff1681526020016006600086815260200190815260200160002060000160019054906101000a900460ff1660ff1681526020018381526020013373ffffffffffffffffffffffffffffffffffffffff168152506006600085815260200190815260200160002060008201518160000160006101000a81548160ff021916908360ff16021790555060208201518160000160016101000a81548160ff021916908360ff1602179055506040820151816001015560608201518160020160006101000a81548173ffffffffffffffffffffffffffffffffffffffff021916908373ffffffffffffffffffffffffffffffffffffffff160217905550905050600042905060006007600086815260200190815260200160002060006006600088815260200190815260200160002060000160009054906101000a900460ff1660ff1660ff16815260200190815260200160002060030160009054906101000a900460ff1690506040518060a001604052806006600088815260200190815260200160002060000160019054906101000a900460ff1660ff1681526020013373ffffffffffffffffffffffffffffffffffffffff1681526020018581526020018381526020018260ff168152506007600087815260200190815260200160002060006006600089815260200190815260200160002060000160009054906101000a900460ff1660ff1660ff16815260200190815260200160002060008201518160000160006101000a81548160ff021916908360ff16021790555060208201518160000160016101000a81548173ffffffffffffffffffffffffffffffffffffffff021916908373ffffffffffffffffffffffffffffffffffffffff160217905550604082015181600101556060820151816002015560808201518160030160006101000a81548160ff021916908360ff1602179055509050507f4077feae87a3ae002f685ef67fe617a0a8e0d1a75a7405ab86f96e0f44c3766f85846006600089815260200190815260200160002060000160019054906101000a900460ff163388604051611e2f95949392919061438c565b60405180910390a15050505050565b60025481565b6007602052816000526040600020602052806000526040600020600091509150508060000160009054906101000a900460ff16908060000160019054906101000a900473ffffffffffffffffffffffffffffffffffffffff16908060010154908060020154908060030160009054906101000a900460ff16905085565b600081118015611ed357506002548111155b611f12576040517f08c379a0000000000000000000000000000000000000000000000000000000008152600401611f099061443e565b60405180910390fd5b6006600082815260200190815260200160002060010154341015611f6b576040517f08c379a0000000000000000000000000000000000000000000000000000000008152600401611f62906144aa565b60405180910390fd5b3373ffffffffffffffffffffffffffffffffffffffff166007600083815260200190815260200160002060006006600085815260200190815260200160002060000160009054906101000a900460ff1660ff1660ff16815260200190815260200160002060000160019054906101000a900473ffffffffffffffffffffffffffffffffffffffff1673ffffffffffffffffffffffffffffffffffffffff1603612049576040517f08c379a00000000000000000000000000000000000000000000000000000000081526004016120409061453c565b60405180910390fd5b60066000828152602001908152602001600020600001600081819054906101000a900460ff168092919061207c90613993565b91906101000a81548160ff021916908360ff1602179055505060405180608001604052806006600084815260200190815260200160002060000160009054906101000a900460ff1660ff1681526020016006600084815260200190815260200160002060000160019054906101000a900460ff1660ff168152602001600660008481526020019081526020016000206001015481526020016006600084815260200190815260200160002060020160009054906101000a900473ffffffffffffffffffffffffffffffffffffffff1673ffffffffffffffffffffffffffffffffffffffff168152506006600083815260200190815260200160002060008201518160000160006101000a81548160ff021916908360ff16021790555060208201518160000160016101000a81548160ff021916908360ff1602179055506040820151816001015560608201518160020160006101000a81548173ffffffffffffffffffffffffffffffffffffffff021916908373ffffffffffffffffffffffffffffffffffffffff16021790555090505060004290506000808061221f90613993565b9150506040518060a001604052806006600086815260200190815260200160002060000160019054906101000a900460ff1660ff1681526020013373ffffffffffffffffffffffffffffffffffffffff168152602001600660008681526020019081526020016000206001015481526020018381526020018260ff168152506007600085815260200190815260200160002060006006600087815260200190815260200160002060000160009054906101000a900460ff1660ff1660ff16815260200190815260200160002060008201518160000160006101000a81548160ff021916908360ff16021790555060208201518160000160016101000a81548173ffffffffffffffffffffffffffffffffffffffff021916908373ffffffffffffffffffffffffffffffffffffffff160217905550604082015181600101556060820151816002015560808201518160030160006101000a81548160ff021916908360ff1602179055509050506123cb6006600085815260200190815260200160002060020160009054906101000a900473ffffffffffffffffffffffffffffffffffffffff1684612f29565b6123d53384612e44565b6006600084815260200190815260200160002060020160009054906101000a900473ffffffffffffffffffffffffffffffffffffffff1673ffffffffffffffffffffffffffffffffffffffff166108fc349081150290604051600060405180830381858888f19350505050158015612451573d6000803e3d6000fd5b507f745622a6e61c37ae66fca15035cc4213045dcd987ead88ee28fa3ee4b359dc7a836006600086815260200190815260200160002060020160009054906101000a900473ffffffffffffffffffffffffffffffffffffffff16336006600088815260200190815260200160002060000160019054906101000a900460ff1660066000898152602001908152602001600020600101546040516124f89594939291906145a8565b60405180910390a1505050565b6005602052816000526040600020818154811061252157600080fd5b9060005260206000209060020201600091509150508060000154908060010154905082565b600561255133612cde565b14612591576040517f08c379a00000000000000000000000000000000000000000000000000000000081526004016125889061465a565b60405180910390fd5b60056006600084815260200190815260200160002060000160019054906101000a900460ff1660ff16146125fa576040517f08c379a00000000000000000000000000000000000000000000000000000000081526004016125f190613820565b60405180910390fd5b6126043383612d3a565b612643576040517f08c379a000000000000000000000000000000000000000000000000000000000815260040161263a906138b2565b60405180910390fd5b60008111612686576040517f08c379a000000000000000000000000000000000000000000000000000000000815260040161267d90613944565b60405180910390fd5b60006006600084815260200190815260200160002060000160019054906101000a900460ff16905060066000848152602001908152602001600020600001600181819054906101000a900460ff16809291906126e190613993565b91906101000a81548160ff021916908360ff1602179055505060066000848152602001908152602001600020600001600081819054906101000a900460ff168092919061272d90613993565b91906101000a81548160ff021916908360ff1602179055505060405180608001604052806006600086815260200190815260200160002060000160009054906101000a900460ff1660ff1681526020016006600086815260200190815260200160002060000160019054906101000a900460ff1660ff1681526020018381526020013373ffffffffffffffffffffffffffffffffffffffff168152506006600085815260200190815260200160002060008201518160000160006101000a81548160ff021916908360ff16021790555060208201518160000160016101000a81548160ff021916908360ff1602179055506040820151816001015560608201518160020160006101000a81548173ffffffffffffffffffffffffffffffffffffffff021916908373ffffffffffffffffffffffffffffffffffffffff160217905550905050600042905060006007600086815260200190815260200160002060006006600088815260200190815260200160002060000160009054906101000a900460ff1660ff1660ff16815260200190815260200160002060030160009054906101000a900460ff1690506040518060a001604052806006600088815260200190815260200160002060000160019054906101000a900460ff1660ff1681526020013373ffffffffffffffffffffffffffffffffffffffff1681526020018581526020018381526020018260ff168152506007600087815260200190815260200160002060006006600089815260200190815260200160002060000160009054906101000a900460ff1660ff1660ff16815260200190815260200160002060008201518160000160006101000a81548160ff021916908360ff16021790555060208201518160000160016101000a81548173ffffffffffffffffffffffffffffffffffffffff021916908373ffffffffffffffffffffffffffffffffffffffff160217905550604082015181600101556060820151816002015560808201518160030160006101000a81548160ff021916908360ff1602179055509050507f4077feae87a3ae002f685ef67fe617a0a8e0d1a75a7405ab86f96e0f44c3766f85846006600089815260200190815260200160002060000160019054906101000a900460ff163388604051612a869594939291906146c6565b60405180910390a15050505050565b60036020528060005260406000206000915090508060000154908060010160009054906101000a900473ffffffffffffffffffffffffffffffffffffffff1690806002018054612ae490613d77565b80601f0160208091040260200160405190810160405280929190818152602001828054612b1090613d77565b8015612b5d5780601f10612b3257610100808354040283529160200191612b5d565b820191906000526020600020905b815481529060010190602001808311612b4057829003601f168201915b5050505050908060030160009054906101000a900460ff1690806004018054612b8590613d77565b80601f0160208091040260200160405190810160405280929190818152602001828054612bb190613d77565b8015612bfe5780601f10612bd357610100808354040283529160200191612bfe565b820191906000526020600020905b815481529060010190602001808311612be157829003601f168201915b5050505050905085565b60008054906101000a900473ffffffffffffffffffffffffffffffffffffffff1681565b6060600560008373ffffffffffffffffffffffffffffffffffffffff1673ffffffffffffffffffffffffffffffffffffffff168152602001908152602001600020805480602002602001604051908101604052809291908181526020016000905b82821015612cd357838290600052602060002090600202016040518060400160405290816000820154815260200160018201548152505081526020019060010190612c8d565b505050509050919050565b6000600360008373ffffffffffffffffffffffffffffffffffffffff1673ffffffffffffffffffffffffffffffffffffffff16815260200190815260200160002060030160009054906101000a900460ff1660ff169050919050565b600080600560008573ffffffffffffffffffffffffffffffffffffffff1673ffffffffffffffffffffffffffffffffffffffff168152602001908152602001600020805480602002602001604051908101604052809291908181526020016000905b82821015612de257838290600052602060002090600202016040518060400160405290816000820154815260200160018201548152505081526020019060010190612d9c565b50505050905060005b8151811015612e375783828281518110612e0857612e0761472c565b5b60200260200101516000015103612e2457600192505050612e3e565b8080612e2f90613b00565b915050612deb565b5060009150505b92915050565b600560008373ffffffffffffffffffffffffffffffffffffffff1673ffffffffffffffffffffffffffffffffffffffff1681526020019081526020016000206040518060400160405280838152602001428152509080600181540180825580915050600190039060005260206000209060020201600090919091909150600082015181600001556020820151816001015550508173ffffffffffffffffffffffffffffffffffffffff167fd9943d316e03c76a0277683e5fa4ed2b175e6568c8d3a22d9f0b32092e584a2882604051612f1d91906147a7565b60405180910390a25050565b6000600560008473ffffffffffffffffffffffffffffffffffffffff1673ffffffffffffffffffffffffffffffffffffffff168152602001908152602001600020905060005b8180549050811015612ff25782828281548110612f8f57612f8e61472c565b5b90600052602060002090600202016000015403612fdf57818181548110612fb957612fb861472c565b5b906000526020600020906002020160008082016000905560018201600090555050612ff2565b8080612fea90613b00565b915050612f6f565b50505050565b6000819050919050565b61300b81612ff8565b82525050565b60006020820190506130266000830184613002565b92915050565b6000604051905090565b600080fd5b600080fd5b61304981612ff8565b811461305457600080fd5b50565b60008135905061306681613040565b92915050565b6000806040838503121561308357613082613036565b5b600061309185828601613057565b92505060206130a285828601613057565b9150509250929050565b6000602082840312156130c2576130c1613036565b5b60006130d084828501613057565b91505092915050565b600073ffffffffffffffffffffffffffffffffffffffff82169050919050565b6000613104826130d9565b9050919050565b613114816130f9565b811461311f57600080fd5b50565b6000813590506131318161310b565b92915050565b60006020828403121561314d5761314c613036565b5b600061315b84828501613122565b91505092915050565b60008115159050919050565b61317981613164565b82525050565b60006020820190506131946000830184613170565b92915050565b600080fd5b600080fd5b6000601f19601f8301169050919050565b7f4e487b7100000000000000000000000000000000000000000000000000000000600052604160045260246000fd5b6131ed826131a4565b810181811067ffffffffffffffff8211171561320c5761320b6131b5565b5b80604052505050565b600061321f61302c565b905061322b82826131e4565b919050565b600067ffffffffffffffff82111561324b5761324a6131b5565b5b613254826131a4565b9050602081019050919050565b82818337600083830152505050565b600061328361327e84613230565b613215565b90508281526020810184848401111561329f5761329e61319f565b5b6132aa848285613261565b509392505050565b600082601f8301126132c7576132c661319a565b5b81356132d7848260208601613270565b91505092915050565b600060ff82169050919050565b6132f6816132e0565b811461330157600080fd5b50565b600081359050613313816132ed565b92915050565b6000806000806080858703121561333357613332613036565b5b600061334187828801613122565b945050602085013567ffffffffffffffff8111156133625761336161303b565b5b61336e878288016132b2565b935050604061337f87828801613304565b925050606085013567ffffffffffffffff8111156133a05761339f61303b565b5b6133ac878288016132b2565b91505092959194509250565b6133c1816132e0565b82525050565b60006133d2826130d9565b9050919050565b6133e2816133c7565b82525050565b60006080820190506133fd60008301876133b8565b61340a60208301866133b8565b6134176040830185613002565b61342460608301846133d9565b95945050505050565b613436816130f9565b82525050565b600081519050919050565b600082825260208201905092915050565b60005b8381101561347657808201518184015260208101905061345b565b60008484015250505050565b600061348d8261343c565b6134978185613447565b93506134a7818560208601613458565b6134b0816131a4565b840191505092915050565b600060a0820190506134d06000830188613002565b6134dd602083018761342d565b81810360408301526134ef8186613482565b90506134fe60608301856133b8565b81810360808301526135108184613482565b90509695505050505050565b6000806040838503121561353357613532613036565b5b600061354185828601613057565b925050602061355285828601613304565b9150509250929050565b600060a08201905061357160008301886133b8565b61357e602083018761342d565b61358b6040830186613002565b6135986060830185613002565b6135a560808301846133b8565b9695505050505050565b600080604083850312156135c6576135c5613036565b5b60006135d485828601613122565b92505060206135e585828601613057565b9150509250929050565b60006040820190506136046000830185613002565b6136116020830184613002565b9392505050565b600060208201905061362d600083018461342d565b92915050565b600081519050919050565b600082825260208201905092915050565b6000819050602082019050919050565b61366881612ff8565b82525050565b604082016000820151613684600085018261365f565b506020820151613697602085018261365f565b50505050565b60006136a9838361366e565b60408301905092915050565b6000602082019050919050565b60006136cd82613633565b6136d7818561363e565b93506136e28361364f565b8060005b838110156137135781516136fa888261369d565b9750613705836136b5565b9250506001810190506136e6565b5085935050505092915050565b6000602082019050818103600083015261373a81846136c2565b905092915050565b7f4865206973206e6f74205468726561642044697472696275746f720000000000600082015250565b6000613778601b83613447565b915061378382613742565b602082019050919050565b600060208201905081810360008301526137a78161376b565b9050919050565b7f417373657420696e697469616c207374617465206973206e6f7420636f72726560008201527f6374000000000000000000000000000000000000000000000000000000000000602082015250565b600061380a602283613447565b9150613815826137ae565b604082019050919050565b60006020820190508181036000830152613839816137fd565b9050919050565b7f54686973206163746f7220646f6e27742068617665207468652061737365742060008201527f746861742077616e7420746f2062652070726f63657373656400000000000000602082015250565b600061389c603983613447565b91506138a782613840565b604082019050919050565b600060208201905081810360008301526138cb8161388f565b9050919050565b7f4173736574207072696365206d7573742062652067726561746572207468616e60008201527f2030000000000000000000000000000000000000000000000000000000000000602082015250565b600061392e602283613447565b9150613939826138d2565b604082019050919050565b6000602082019050818103600083015261395d81613921565b9050919050565b7f4e487b7100000000000000000000000000000000000000000000000000000000600052601160045260246000fd5b600061399e826132e0565b915060ff82036139b1576139b0613964565b5b600182019050919050565b7f417373657420285468726561642920776173207375636365737366756c6c792060008201527f6469737472696275746564000000000000000000000000000000000000000000602082015250565b6000613a18602b83613447565b9150613a23826139bc565b604082019050919050565b600060c082019050613a436000830188613002565b613a5060208301876133b8565b613a5d60408301866133b8565b613a6a606083018561342d565b613a776080830184613002565b81810360a0830152613a8881613a0b565b90509695505050505050565b7f4865206973206e6f7420546872656164204d616e756661637475726572000000600082015250565b6000613aca601d83613447565b9150613ad582613a94565b602082019050919050565b60006020820190508181036000830152613af981613abd565b9050919050565b6000613b0b82612ff8565b91507fffffffffffffffffffffffffffffffffffffffffffffffffffffffffffffffff8203613b3d57613b3c613964565b5b600182019050919050565b7f41737365742028526177204d6174657269616c2920776173207375636365737360008201527f66756c6c7920696e697469617465640000000000000000000000000000000000602082015250565b6000613ba4602f83613447565b9150613baf82613b48565b604082019050919050565b6000608082019050613bcf6000830186613002565b613bdc602083018561342d565b613be96040830184613002565b8181036060830152613bfa81613b97565b9050949350505050565b7f4865206973206e6f742057656176657200000000000000000000000000000000600082015250565b6000613c3a601083613447565b9150613c4582613c04565b602082019050919050565b60006020820190508181036000830152613c6981613c2d565b9050919050565b7f41737365742028576f76656e204661627269632920776173207375636365737360008201527f66756c6c7920776f76656e000000000000000000000000000000000000000000602082015250565b6000613ccc602b83613447565b9150613cd782613c70565b604082019050919050565b600060c082019050613cf76000830188613002565b613d0460208301876133b8565b613d1160408301866133b8565b613d1e606083018561342d565b613d2b6080830184613002565b81810360a0830152613d3c81613cbf565b90509695505050505050565b7f4e487b7100000000000000000000000000000000000000000000000000000000600052602260045260246000fd5b60006002820490506001821680613d8f57607f821691505b602082108103613da257613da1613d48565b5b50919050565b7f4e616d65206973206e6f742076616c6964000000000000000000000000000000600082015250565b6000613dde601183613447565b9150613de982613da8565b602082019050919050565b60006020820190508181036000830152613e0d81613dd1565b9050919050565b7f506c616365206973206e6f742076616c69640000000000000000000000000000600082015250565b6000613e4a601283613447565b9150613e5582613e14565b602082019050919050565b60006020820190508181036000830152613e7981613e3d565b9050919050565b7f526f6c65206d757374206e6f74207a65726f0000000000000000000000000000600082015250565b6000613eb6601283613447565b9150613ec182613e80565b602082019050919050565b60006020820190508181036000830152613ee581613ea9565b9050919050565b7f526f6c652076616c7565206d757374206265206c657373207468616e206f722060008201527f657175616c20746f203400000000000000000000000000000000000000000000602082015250565b6000613f48602a83613447565b9150613f5382613eec565b604082019050919050565b60006020820190508181036000830152613f7781613f3b565b9050919050565b7f55736572206d757374206e6f7420626520726567697374657265640000000000600082015250565b6000613fb4601b83613447565b9150613fbf82613f7e565b602082019050919050565b60006020820190508181036000830152613fe381613fa7565b9050919050565b60008190508160005260206000209050919050565b60006020601f8301049050919050565b600082821b905092915050565b60006008830261404c7fffffffffffffffffffffffffffffffffffffffffffffffffffffffffffffffff8261400f565b614056868361400f565b95508019841693508086168417925050509392505050565b6000819050919050565b600061409361408e61408984612ff8565b61406e565b612ff8565b9050919050565b6000819050919050565b6140ad83614078565b6140c16140b98261409a565b84845461401c565b825550505050565b600090565b6140d66140c9565b6140e18184846140a4565b505050565b5b81811015614105576140fa6000826140ce565b6001810190506140e7565b5050565b601f82111561414a5761411b81613fea565b61412484613fff565b81016020851015614133578190505b61414761413f85613fff565b8301826140e6565b50505b505050565b600082821c905092915050565b600061416d6000198460080261414f565b1980831691505092915050565b6000614186838361415c565b9150826002028217905092915050565b61419f8261343c565b67ffffffffffffffff8111156141b8576141b76131b5565b5b6141c28254613d77565b6141cd828285614109565b600060209050601f83116001811461420057600084156141ee578287015190505b6141f8858261417a565b865550614260565b601f19841661420e86613fea565b60005b8281101561423657848901518255600182019150602085019450602081019050614211565b86831015614253578489015161424f601f89168261415c565b8355505b6001600288020188555050505b505050505050565b7f4163746f72207375636365737366756c6c792063726561746564000000000000600082015250565b600061429e601a83613447565b91506142a982614268565b602082019050919050565b600060a0820190506142c96000830187613002565b81810360208301526142db8186613482565b90506142ea60408301856133b8565b81810360608301526142fc8184613482565b9050818103608083015261430f81614291565b905095945050505050565b7f4173736574202854687265616429207761732073756363657366756c6c79206360008201527f7265617465642100000000000000000000000000000000000000000000000000602082015250565b6000614376602783613447565b91506143818261431a565b604082019050919050565b600060c0820190506143a16000830188613002565b6143ae60208301876133b8565b6143bb60408301866133b8565b6143c8606083018561342d565b6143d56080830184613002565b81810360a08301526143e681614369565b90509695505050505050565b7f4173736574204964206973206e6f742076616c69640000000000000000000000600082015250565b6000614428601583613447565b9150614433826143f2565b602082019050919050565b600060208201905081810360008301526144578161441b565b9050919050565b7f5472616e7366657220616d6f756e74206973206e6f7420636f72726563740000600082015250565b6000614494601e83613447565b915061449f8261445e565b602082019050919050565b600060208201905081810360008301526144c381614487565b9050919050565b7f53656c6c65722063616e742073656c6c20417373657420746f2068696d73656c60008201527f6600000000000000000000000000000000000000000000000000000000000000602082015250565b6000614526602183613447565b9150614531826144ca565b604082019050919050565b6000602082019050818103600083015261455581614519565b9050919050565b7f4173736574207375636365737366756c6c7920626f7567687400000000000000600082015250565b6000614592601983613447565b915061459d8261455c565b602082019050919050565b600060c0820190506145bd6000830188613002565b6145ca60208301876133d9565b6145d7604083018661342d565b6145e460608301856133b8565b6145f16080830184613002565b81810360a083015261460281614585565b90509695505050505050565b7f4865206973206e6f742052657461696c65720000000000000000000000000000600082015250565b6000614644601283613447565b915061464f8261460e565b602082019050919050565b6000602082019050818103600083015261467381614637565b9050919050565b7f576f76656e2066616272696320736f6c6420746f20637573746f6d6572000000600082015250565b60006146b0601d83613447565b91506146bb8261467a565b602082019050919050565b600060c0820190506146db6000830188613002565b6146e860208301876133b8565b6146f560408301866133b8565b614702606083018561342d565b61470f6080830184613002565b81810360a0830152614720816146a3565b90509695505050505050565b7f4e487b7100000000000000000000000000000000000000000000000000000000600052603260045260246000fd5b7f4e657720617373657420686173206265656e2061646465640000000000000000600082015250565b6000614791601883613447565b915061479c8261475b565b602082019050919050565b60006040820190506147bc6000830184613002565b81810360208301526147cd81614784565b90509291505056fea2646970667358221220439b712f0a578fcff9200000fb484ccac639136025475bfb386ba03813b71b8664736f6c63430008110033",
  "immutableReferences": {},
  "source": "// SPDX-License-Identifier: MIT\r\npragma solidity >=0.5.0 <0.9.0;\r\n\r\ncontract WeaveChain {\r\n    constructor() {\r\n        addressContractOwner = msg.sender;\r\n    }\r\n\r\n    //variable declaration start\r\n    address public addressContractOwner;\r\n    uint256 public actorIdCounter = 0;\r\n    uint256 public assetIdCounter = 0;\r\n    //variable declaration end\r\n\r\n    //modifier start\r\n    modifier onlyOwner() {\r\n        require(msg.sender == addressContractOwner);\r\n        _;\r\n    }\r\n    modifier onlyTM() {\r\n        require(getActorRole(msg.sender) == 1, \"He is not Thread Manufacturer\");\r\n        _;\r\n    }\r\n    modifier onlyTD() {\r\n        require(getActorRole(msg.sender) == 2, \"He is not Thread Ditributor\");\r\n        _;\r\n    }\r\n    modifier onlyWeaver() {\r\n        require(getActorRole(msg.sender) == 3, \"He is not Weaver\");\r\n        _;\r\n    }\r\n    modifier onlyRetailer() {\r\n        require(getActorRole(msg.sender) == 5, \"He is not Retailer\");\r\n        _;\r\n    }\r\n    //modifier end\r\n\r\n    //struct start\r\n    struct Actor {\r\n        uint256 id;\r\n        address actorAddress;\r\n        string name;\r\n        uint8 role;\r\n        string place;\r\n    }\r\n\r\n    struct ActorAsset {\r\n        uint256 id;\r\n        uint256 time;\r\n    }\r\n\r\n    struct AssetPayable {\r\n        uint8 trackerNumber;\r\n        uint8 state;\r\n        uint256 price;\r\n        address payable recentOwner;\r\n    }\r\n\r\n    struct AssetTracer {\r\n        uint8 state;\r\n        address actorAddress;\r\n        uint256 price;\r\n        uint256 time;\r\n        uint8 buyStatus;\r\n    }\r\n    //struct end\r\n\r\n    //mapping start\r\n    mapping(address => Actor) public actorsByAddress;\r\n    mapping(uint256 => Actor) public actorsById;\r\n    mapping(address => ActorAsset[]) public actorAssetsByAddress;\r\n    mapping(uint256 => AssetPayable) public payableAssetsById;\r\n    mapping(uint256 => mapping(uint8 => AssetTracer)) public tracerAssets; //key asset id and asset state/tracker number\r\n    //mapping end\r\n\r\n    //event start\r\n    event ActorCreated(\r\n        uint256 id,\r\n        address indexed actorAddress,\r\n        string name,\r\n        uint8 role,\r\n        string place,\r\n        string log\r\n    );\r\n    event AssetAdded(address indexed actorAddress, uint256 assetId, string log);\r\n    event AssetInitiated(\r\n        uint256 id,\r\n        address owner,\r\n        uint256 price,\r\n        string message\r\n    );\r\n    event AssetProcessed(\r\n        uint256 id,\r\n        uint8 oldState,\r\n        uint8 newState,\r\n        address owner,\r\n        uint256 price,\r\n        string message\r\n    );\r\n    event AssetPurchased(\r\n        uint256 assetId,\r\n        address payable seller,\r\n        address buyer,\r\n        uint8 state,\r\n        uint256 price,\r\n        string message\r\n    );\r\n\r\n    //event end\r\n\r\n    //getter function start\r\n    function getActorRole(address _address) public view returns (uint256) {\r\n        return actorsByAddress[_address].role;\r\n    }\r\n\r\n    function getRegisterStatus(address _address) public view returns (bool) {\r\n        return bytes(actorsByAddress[_address].name).length > 0;\r\n    }\r\n\r\n    function getActorAssets(\r\n        address _address\r\n    ) public view returns (ActorAsset[] memory) {\r\n        return actorAssetsByAddress[_address];\r\n    }\r\n\r\n    //getter function end\r\n\r\n    //function start\r\n    function registerActor(\r\n        address _address,\r\n        string memory _name,\r\n        uint8 _role,\r\n        string memory _place\r\n    ) public onlyOwner {\r\n        require(bytes(_name).length != 0, \"Name is not valid\");\r\n        require(bytes(_place).length != 0, \"Place is not valid\");\r\n        require(_role != 0, \"Role must not zero\");\r\n        require(_role <= 4, \"Role value must be less than or equal to 4\");\r\n        require(!getRegisterStatus(_address), \"User must not be registered\");\r\n\r\n        actorIdCounter++;\r\n        actorsById[actorIdCounter] = Actor(\r\n            actorIdCounter,\r\n            _address,\r\n            _name,\r\n            _role,\r\n            _place\r\n        );\r\n        actorsByAddress[_address] = Actor(\r\n            actorIdCounter,\r\n            _address,\r\n            _name,\r\n            _role,\r\n            _place\r\n        );\r\n        emit ActorCreated(\r\n            actorIdCounter,\r\n            _address,\r\n            _name,\r\n            _role,\r\n            _place,\r\n            \"Actor successfully created\"\r\n        );\r\n    }\r\n\r\n    function addRawMaterial(uint256 _price) public onlyTM {\r\n        require(_price > 0, \"Asset price must be greater than 0\");\r\n        uint8 assetState = 1;\r\n        uint256 id = ++assetIdCounter;\r\n        uint8 trackerNumber = 1;\r\n        payableAssetsById[id] = AssetPayable(\r\n            trackerNumber,\r\n            assetState,\r\n            _price,\r\n            payable(msg.sender)\r\n        );\r\n        addAsset(msg.sender, id);\r\n        uint256 time = block.timestamp;\r\n        uint8 buyStatus = tracerAssets[id][trackerNumber].buyStatus;\r\n        tracerAssets[id][trackerNumber] = AssetTracer(\r\n            assetState,\r\n            msg.sender,\r\n            _price,\r\n            time,\r\n            buyStatus\r\n        );\r\n        emit AssetInitiated(\r\n            id,\r\n            msg.sender,\r\n            _price,\r\n            \"Asset (Raw Material) was successfully initiated\"\r\n        );\r\n    }\r\n\r\n    function createThread(uint256 _assetId, uint256 _price) public onlyTM {\r\n        require(\r\n            payableAssetsById[_assetId].state == 1,\r\n            \"Asset initial state is not correct\"\r\n        );\r\n        require(\r\n            haveAsset(msg.sender, _assetId),\r\n            \"This actor don't have the asset that want to be processed\"\r\n        );\r\n        require(_price > 0, \"Asset price must be greater than 0\");\r\n        uint8 oldState = payableAssetsById[_assetId].state;\r\n        payableAssetsById[_assetId].state++;\r\n        payableAssetsById[_assetId].trackerNumber++;\r\n        payableAssetsById[_assetId] = AssetPayable(\r\n            payableAssetsById[_assetId].trackerNumber,\r\n            payableAssetsById[_assetId].state,\r\n            _price,\r\n            payable(msg.sender)\r\n        );\r\n        uint256 time = block.timestamp;\r\n        uint8 buyStatus = tracerAssets[_assetId][\r\n            payableAssetsById[_assetId].trackerNumber\r\n        ].buyStatus;\r\n        tracerAssets[_assetId][\r\n            payableAssetsById[_assetId].trackerNumber\r\n        ] = AssetTracer(\r\n            payableAssetsById[_assetId].state,\r\n            msg.sender,\r\n            _price,\r\n            time,\r\n            buyStatus\r\n        );\r\n\r\n        emit AssetProcessed(\r\n            _assetId,\r\n            oldState,\r\n            payableAssetsById[_assetId].state,\r\n            msg.sender,\r\n            _price,\r\n            \"Asset (Thread) was succesfully created!\"\r\n        );\r\n    }\r\n\r\n    function distributeThread(uint256 _assetId, uint256 _price) public onlyTD {\r\n        require(\r\n            payableAssetsById[_assetId].state == 2,\r\n            \"Asset initial state is not correct\"\r\n        );\r\n        require(\r\n            haveAsset(msg.sender, _assetId),\r\n            \"This actor don't have the asset that want to be processed\"\r\n        );\r\n        require(_price > 0, \"Asset price must be greater than 0\");\r\n        uint8 oldState = payableAssetsById[_assetId].state;\r\n        payableAssetsById[_assetId].state++;\r\n        payableAssetsById[_assetId].trackerNumber++;\r\n        payableAssetsById[_assetId] = AssetPayable(\r\n            payableAssetsById[_assetId].trackerNumber,\r\n            payableAssetsById[_assetId].state,\r\n            _price,\r\n            payable(msg.sender)\r\n        );\r\n        uint256 time = block.timestamp;\r\n        uint8 buyStatus = tracerAssets[_assetId][\r\n            payableAssetsById[_assetId].trackerNumber\r\n        ].buyStatus;\r\n        tracerAssets[_assetId][\r\n            payableAssetsById[_assetId].trackerNumber\r\n        ] = AssetTracer(\r\n            payableAssetsById[_assetId].state,\r\n            msg.sender,\r\n            _price,\r\n            time,\r\n            buyStatus\r\n        );\r\n\r\n        emit AssetProcessed(\r\n            _assetId,\r\n            oldState,\r\n            payableAssetsById[_assetId].state,\r\n            msg.sender,\r\n            _price,\r\n            \"Asset (Thread) was successfully distributed\"\r\n        );\r\n    }\r\n\r\n    function fabricWeaving(uint256 _assetId, uint256 _price) public onlyWeaver {\r\n        require(\r\n            payableAssetsById[_assetId].state == 3,\r\n            \"Asset initial state is not correct\"\r\n        );\r\n        require(\r\n            haveAsset(msg.sender, _assetId),\r\n            \"This actor don't have the asset that want to be processed\"\r\n        );\r\n        require(_price > 0, \"Asset price must be greater than 0\");\r\n        uint8 oldState = payableAssetsById[_assetId].state;\r\n        payableAssetsById[_assetId].state++;\r\n        payableAssetsById[_assetId].trackerNumber++;\r\n        payableAssetsById[_assetId] = AssetPayable(\r\n            payableAssetsById[_assetId].trackerNumber,\r\n            payableAssetsById[_assetId].state,\r\n            _price,\r\n            payable(msg.sender)\r\n        );\r\n        uint256 time = block.timestamp;\r\n        uint8 buyStatus = tracerAssets[_assetId][\r\n            payableAssetsById[_assetId].trackerNumber\r\n        ].buyStatus;\r\n        tracerAssets[_assetId][\r\n            payableAssetsById[_assetId].trackerNumber\r\n        ] = AssetTracer(\r\n            payableAssetsById[_assetId].state,\r\n            msg.sender,\r\n            _price,\r\n            time,\r\n            buyStatus\r\n        );\r\n\r\n        emit AssetProcessed(\r\n            _assetId,\r\n            oldState,\r\n            payableAssetsById[_assetId].state,\r\n            msg.sender,\r\n            _price,\r\n            \"Asset (Woven Fabric) was successfully woven\"\r\n        );\r\n    }\r\n\r\n    function sellFabric(uint256 _assetId, uint256 _price) public onlyRetailer {\r\n        require(\r\n            payableAssetsById[_assetId].state == 5,\r\n            \"Asset initial state is not correct\"\r\n        );\r\n        require(\r\n            haveAsset(msg.sender, _assetId),\r\n            \"This actor don't have the asset that want to be processed\"\r\n        );\r\n        require(_price > 0, \"Asset price must be greater than 0\");\r\n        uint8 oldState = payableAssetsById[_assetId].state;\r\n        payableAssetsById[_assetId].state++;\r\n        payableAssetsById[_assetId].trackerNumber++;\r\n        payableAssetsById[_assetId] = AssetPayable(\r\n            payableAssetsById[_assetId].trackerNumber,\r\n            payableAssetsById[_assetId].state,\r\n            _price,\r\n            payable(msg.sender)\r\n        );\r\n        uint256 time = block.timestamp;\r\n        uint8 buyStatus = tracerAssets[_assetId][\r\n            payableAssetsById[_assetId].trackerNumber\r\n        ].buyStatus;\r\n        tracerAssets[_assetId][\r\n            payableAssetsById[_assetId].trackerNumber\r\n        ] = AssetTracer(\r\n            payableAssetsById[_assetId].state,\r\n            msg.sender,\r\n            _price,\r\n            time,\r\n            buyStatus\r\n        );\r\n\r\n        emit AssetProcessed(\r\n            _assetId,\r\n            oldState,\r\n            payableAssetsById[_assetId].state,\r\n            msg.sender,\r\n            _price,\r\n            \"Woven fabric sold to customer\"\r\n        );\r\n    }\r\n\r\n    function purchaseAsset(uint256 _assetId) public payable {\r\n        require(\r\n            _assetId > 0 && _assetId <= assetIdCounter,\r\n            \"Asset Id is not valid\"\r\n        );\r\n        require(\r\n            msg.value >= payableAssetsById[_assetId].price,\r\n            \"Transfer amount is not correct\"\r\n        );\r\n        require(\r\n            tracerAssets[_assetId][payableAssetsById[_assetId].trackerNumber].actorAddress != msg.sender,\r\n            \"Seller cant sell Asset to himself\"\r\n        );\r\n        \r\n        payableAssetsById[_assetId].trackerNumber++;\r\n        payableAssetsById[_assetId] = AssetPayable(\r\n            payableAssetsById[_assetId].trackerNumber,\r\n            payableAssetsById[_assetId].state,\r\n            payableAssetsById[_assetId].price,\r\n            payableAssetsById[_assetId].recentOwner\r\n        );\r\n\r\n        uint256 time = block.timestamp;\r\n        uint8 buyStatus = 0;\r\n        buyStatus++;\r\n        tracerAssets[_assetId][\r\n            payableAssetsById[_assetId].trackerNumber\r\n        ] = AssetTracer(\r\n            payableAssetsById[_assetId].state,\r\n            msg.sender,\r\n            payableAssetsById[_assetId].price,\r\n            time,\r\n            buyStatus\r\n        );\r\n        removeAsset(payableAssetsById[_assetId].recentOwner, _assetId);\r\n        addAsset(msg.sender, _assetId);\r\n        payableAssetsById[_assetId].recentOwner.transfer(msg.value);\r\n        emit AssetPurchased(\r\n            _assetId,\r\n            payableAssetsById[_assetId].recentOwner,\r\n            msg.sender,\r\n            payableAssetsById[_assetId].state,\r\n            payableAssetsById[_assetId].price,\r\n            \"Asset successfully bought\"\r\n        );\r\n    }\r\n\r\n    //////////////////////////////private//////////////////////////////\r\n    function addAsset(address _address, uint256 _assetId) private {\r\n        actorAssetsByAddress[_address].push(\r\n            ActorAsset(_assetId, block.timestamp)\r\n        );\r\n\r\n        emit AssetAdded(_address, _assetId, \"New asset has been added\");\r\n    }\r\n\r\n    function haveAsset(\r\n        address _address,\r\n        uint256 _assetId\r\n    ) private view returns (bool) {\r\n        ActorAsset[] memory temp = actorAssetsByAddress[_address];\r\n\r\n        for (uint256 i = 0; i < temp.length; i++) {\r\n            if (temp[i].id == _assetId) {\r\n                return true;\r\n            }\r\n        }\r\n        return false;\r\n    }\r\n\r\n    function removeAsset(address _address, uint256 _assetId) private {\r\n        ActorAsset[] storage temp = actorAssetsByAddress[_address];\r\n\r\n        for (uint256 i = 0; i < temp.length; i++) {\r\n            if (temp[i].id == _assetId) {\r\n                delete temp[i];\r\n                break;\r\n            }\r\n        }\r\n    }\r\n}\r\n",
  "sourcePath": "C:\\Users\\Diky Wiraguna\\Desktop\\weave-chain-dapp\\contracts\\WeaveChain.sol",
  "compiler": {
    "name": "solc",
    "version": "0.8.17+commit.8df45f5f.Emscripten.clang"
  },
  "schemaVersion": "3.4.10",
  "updatedAt": "2023-05-19T04:04:31.837Z",
  "networkType": "ethereum",
  "devdoc": {
    "kind": "dev",
    "methods": {},
    "version": 1
  },
  "userdoc": {
    "kind": "user",
    "methods": {},
    "version": 1
  }
}