{
  "_format": "hh-sol-artifact-1",
  "contractName": "Staking",
  "sourceName": "contracts/Staking.sol",
  "abi": [
    {
      "inputs": [],
      "stateMutability": "payable",
      "type": "constructor"
    },
    {
      "inputs": [],
      "name": "admin",
      "outputs": [
        {
          "internalType": "address",
          "name": "",
          "type": "address"
        }
      ],
      "stateMutability": "view",
      "type": "function"
    },
    {
      "inputs": [
        {
          "internalType": "uint256",
          "name": "_id",
          "type": "uint256"
        },
        {
          "internalType": "uint256",
          "name": "_newUnlockPeriod",
          "type": "uint256"
        }
      ],
      "name": "changeUnlockPeriod",
      "outputs": [],
      "stateMutability": "nonpayable",
      "type": "function"
    },
    {
      "inputs": [
        {
          "internalType": "uint256",
          "name": "_numOfDays",
          "type": "uint256"
        }
      ],
      "name": "getInterestRate",
      "outputs": [
        {
          "internalType": "uint256",
          "name": "",
          "type": "uint256"
        }
      ],
      "stateMutability": "view",
      "type": "function"
    },
    {
      "inputs": [],
      "name": "getLockperiods",
      "outputs": [
        {
          "internalType": "uint256[]",
          "name": "",
          "type": "uint256[]"
        }
      ],
      "stateMutability": "view",
      "type": "function"
    },
    {
      "inputs": [
        {
          "internalType": "address",
          "name": "_address",
          "type": "address"
        }
      ],
      "name": "getStakerIdsByAddresses",
      "outputs": [
        {
          "internalType": "uint256[]",
          "name": "",
          "type": "uint256[]"
        }
      ],
      "stateMutability": "view",
      "type": "function"
    },
    {
      "inputs": [
        {
          "internalType": "uint256",
          "name": "_stakerId",
          "type": "uint256"
        }
      ],
      "name": "getStakersById",
      "outputs": [
        {
          "components": [
            {
              "internalType": "uint256",
              "name": "stakerId",
              "type": "uint256"
            },
            {
              "internalType": "address",
              "name": "stakerAddress",
              "type": "address"
            },
            {
              "internalType": "uint256",
              "name": "dateCreated",
              "type": "uint256"
            },
            {
              "internalType": "uint256",
              "name": "dateUnlocked",
              "type": "uint256"
            },
            {
              "internalType": "uint256",
              "name": "interestPercentage",
              "type": "uint256"
            },
            {
              "internalType": "uint256",
              "name": "amountStaked",
              "type": "uint256"
            },
            {
              "internalType": "uint256",
              "name": "interest",
              "type": "uint256"
            },
            {
              "internalType": "bool",
              "name": "open",
              "type": "bool"
            }
          ],
          "internalType": "struct Staking.Stakers",
          "name": "",
          "type": "tuple"
        }
      ],
      "stateMutability": "view",
      "type": "function"
    },
    {
      "inputs": [
        {
          "internalType": "uint256",
          "name": "",
          "type": "uint256"
        }
      ],
      "name": "levels",
      "outputs": [
        {
          "internalType": "uint256",
          "name": "",
          "type": "uint256"
        }
      ],
      "stateMutability": "view",
      "type": "function"
    },
    {
      "inputs": [
        {
          "internalType": "uint256",
          "name": "",
          "type": "uint256"
        }
      ],
      "name": "lockPeriods",
      "outputs": [
        {
          "internalType": "uint256",
          "name": "",
          "type": "uint256"
        }
      ],
      "stateMutability": "view",
      "type": "function"
    },
    {
      "inputs": [
        {
          "internalType": "uint256",
          "name": "_numOfDays",
          "type": "uint256"
        }
      ],
      "name": "stakeMatic",
      "outputs": [],
      "stateMutability": "payable",
      "type": "function"
    },
    {
      "inputs": [
        {
          "internalType": "address",
          "name": "",
          "type": "address"
        },
        {
          "internalType": "uint256",
          "name": "",
          "type": "uint256"
        }
      ],
      "name": "stakerIdsByAddress",
      "outputs": [
        {
          "internalType": "uint256",
          "name": "",
          "type": "uint256"
        }
      ],
      "stateMutability": "view",
      "type": "function"
    },
    {
      "inputs": [
        {
          "internalType": "uint256",
          "name": "",
          "type": "uint256"
        }
      ],
      "name": "stakers",
      "outputs": [
        {
          "internalType": "uint256",
          "name": "stakerId",
          "type": "uint256"
        },
        {
          "internalType": "address",
          "name": "stakerAddress",
          "type": "address"
        },
        {
          "internalType": "uint256",
          "name": "dateCreated",
          "type": "uint256"
        },
        {
          "internalType": "uint256",
          "name": "dateUnlocked",
          "type": "uint256"
        },
        {
          "internalType": "uint256",
          "name": "interestPercentage",
          "type": "uint256"
        },
        {
          "internalType": "uint256",
          "name": "amountStaked",
          "type": "uint256"
        },
        {
          "internalType": "uint256",
          "name": "interest",
          "type": "uint256"
        },
        {
          "internalType": "bool",
          "name": "open",
          "type": "bool"
        }
      ],
      "stateMutability": "view",
      "type": "function"
    },
    {
      "inputs": [],
      "name": "totalStakers",
      "outputs": [
        {
          "internalType": "uint256",
          "name": "",
          "type": "uint256"
        }
      ],
      "stateMutability": "view",
      "type": "function"
    },
    {
      "inputs": [
        {
          "internalType": "uint256",
          "name": "_numOfDays",
          "type": "uint256"
        },
        {
          "internalType": "uint256",
          "name": "_interest",
          "type": "uint256"
        }
      ],
      "name": "updateLockPeriod",
      "outputs": [],
      "stateMutability": "nonpayable",
      "type": "function"
    },
    {
      "inputs": [
        {
          "internalType": "uint256",
          "name": "_id",
          "type": "uint256"
        }
      ],
      "name": "withdrawMatic",
      "outputs": [],
      "stateMutability": "nonpayable",
      "type": "function"
    }
  ],
  "bytecode": "0x6080604052336000806101000a81548173ffffffffffffffffffffffffffffffffffffffff021916908373ffffffffffffffffffffffffffffffffffffffff1602179055506000600981905550610258600c6000601e8152602001908152602001600020819055506103e8600c6000605a815260200190815260200160002081905550610578600c600060b4815260200190815260200160002081905550600d601e9080600181540180825580915050600190039060005260206000200160009091909190915055600d605a9080600181540180825580915050600190039060005260206000200160009091909190915055600d60b490806001815401808255809150506001900390600052602060002001600090919091909150556115628061012a6000396000f3fe6080604052600436106100dd5760003560e01c8063d73a84e91161007f578063f8a2639c11610059578063f8a2639c146102e6578063f9d4e87114610323578063fbb5f24b1461034c578063fd5e6dd114610368576100dd565b8063d73a84e914610269578063e8a379b214610292578063f851a440146102bb576100dd565b806386989038116100bb5780638698903814610199578063b05e148d146101c4578063b2596a6714610201578063c7b0fc6a1461023e576100dd565b80630c196a74146100e2578063105c2c5c1461011f5780634c8f2a781461015c575b600080fd5b3480156100ee57600080fd5b5061010960048036038101906101049190610d96565b6103ac565b6040516101169190610dd2565b60405180910390f35b34801561012b57600080fd5b5061014660048036038101906101419190610d96565b6103c9565b6040516101539190610efa565b60405180910390f35b34801561016857600080fd5b50610183600480360381019061017e9190610d96565b6104a4565b6040516101909190610dd2565b60405180910390f35b3480156101a557600080fd5b506101ae6104c8565b6040516101bb9190610dd2565b60405180910390f35b3480156101d057600080fd5b506101eb60048036038101906101e69190610f42565b6104ce565b6040516101f89190610dd2565b60405180910390f35b34801561020d57600080fd5b5061022860048036038101906102239190610d96565b6104ff565b6040516102359190610dd2565b60405180910390f35b34801561024a57600080fd5b50610253610517565b6040516102609190611031565b60405180910390f35b34801561027557600080fd5b50610290600480360381019061028b9190611053565b61056f565b005b34801561029e57600080fd5b506102b960048036038101906102b49190610d96565b610642565b005b3480156102c757600080fd5b506102d06108cb565b6040516102dd91906110a2565b60405180910390f35b3480156102f257600080fd5b5061030d600480360381019061030891906110bd565b6108ef565b60405161031a9190611031565b60405180910390f35b34801561032f57600080fd5b5061034a60048036038101906103459190611053565b610986565b005b61036660048036038101906103619190610d96565b610a33565b005b34801561037457600080fd5b5061038f600480360381019061038a9190610d96565b610c65565b6040516103a39897969594939291906110f9565b60405180910390f35b6000600c6000838152602001908152602001600020549050919050565b6103d1610cfe565b600a600083815260200190815260200160002060405180610100016040529081600082015481526020016001820160009054906101000a900473ffffffffffffffffffffffffffffffffffffffff1673ffffffffffffffffffffffffffffffffffffffff1673ffffffffffffffffffffffffffffffffffffffff16815260200160028201548152602001600382015481526020016004820154815260200160058201548152602001600682015481526020016007820160009054906101000a900460ff1615151515815250509050919050565b600d81815481106104b457600080fd5b906000526020600020016000915090505481565b60095481565b600b60205281600052604060002081815481106104ea57600080fd5b90600052602060002001600091509150505481565b600c6020528060005260406000206000915090505481565b6060600d80548060200260200160405190810160405280929190818152602001828054801561056557602002820191906000526020600020905b815481526020019060010190808311610551575b5050505050905090565b3373ffffffffffffffffffffffffffffffffffffffff1660008054906101000a900473ffffffffffffffffffffffffffffffffffffffff1673ffffffffffffffffffffffffffffffffffffffff16146105fd576040517f08c379a00000000000000000000000000000000000000000000000000000000081526004016105f4906111d4565b60405180910390fd5b80600c600084815260200190815260200160002081905550600d8290806001815401808255809150506001900390600052602060002001600090919091909150555050565b3373ffffffffffffffffffffffffffffffffffffffff16600a600083815260200190815260200160002060010160009054906101000a900473ffffffffffffffffffffffffffffffffffffffff1673ffffffffffffffffffffffffffffffffffffffff16146106e6576040517f08c379a00000000000000000000000000000000000000000000000000000000081526004016106dd90611240565b60405180910390fd5b60011515600a600083815260200190815260200160002060070160009054906101000a900460ff16151514610750576040517f08c379a0000000000000000000000000000000000000000000000000000000008152600401610747906112ac565b60405180910390fd5b6000600a600083815260200190815260200160002060070160006101000a81548160ff021916908315150217905550600a600082815260200190815260200160002060030154421115610848576000600a600083815260200190815260200160002060060154600a6000848152602001908152602001600020600501546107d791906112fb565b90503373ffffffffffffffffffffffffffffffffffffffff16816040516107fd90611382565b60006040518083038185875af1925050503d806000811461083a576040519150601f19603f3d011682016040523d82523d6000602084013e61083f565b606091505b505050506108c8565b3373ffffffffffffffffffffffffffffffffffffffff16600a60008381526020019081526020016000206005015460405161088290611382565b60006040518083038185875af1925050503d80600081146108bf576040519150601f19603f3d011682016040523d82523d6000602084013e6108c4565b606091505b5050505b50565b60008054906101000a900473ffffffffffffffffffffffffffffffffffffffff1681565b6060600b60008373ffffffffffffffffffffffffffffffffffffffff1673ffffffffffffffffffffffffffffffffffffffff16815260200190815260200160002080548060200260200160405190810160405280929190818152602001828054801561097a57602002820191906000526020600020905b815481526020019060010190808311610966575b50505050509050919050565b3373ffffffffffffffffffffffffffffffffffffffff1660008054906101000a900473ffffffffffffffffffffffffffffffffffffffff1673ffffffffffffffffffffffffffffffffffffffff1614610a14576040517f08c379a0000000000000000000000000000000000000000000000000000000008152600401610a0b906111d4565b60405180910390fd5b80600a6000848152602001908152602001600020600301819055505050565b6000600c60008381526020019081526020016000205411610a89576040517f08c379a0000000000000000000000000000000000000000000000000000000008152600401610a8090611409565b60405180910390fd5b60405180610100016040528060095481526020013373ffffffffffffffffffffffffffffffffffffffff1681526020014281526020016201518083610ace9190611429565b42610ad991906112fb565b8152602001600c6000848152602001908152602001600020548152602001348152602001610b1b600c6000858152602001908152602001600020548434610cda565b815260200160011515815250600a600060095481526020019081526020016000206000820151816000015560208201518160010160006101000a81548173ffffffffffffffffffffffffffffffffffffffff021916908373ffffffffffffffffffffffffffffffffffffffff16021790555060408201518160020155606082015181600301556080820151816004015560a0820151816005015560c0820151816006015560e08201518160070160006101000a81548160ff021916908315150217905550905050600b60003373ffffffffffffffffffffffffffffffffffffffff1673ffffffffffffffffffffffffffffffffffffffff168152602001908152602001600020600954908060018154018082558091505060019003906000526020600020016000909190919091505560096000815480929190610c5d90611483565b919050555050565b600a6020528060005260406000206000915090508060000154908060010160009054906101000a900473ffffffffffffffffffffffffffffffffffffffff16908060020154908060030154908060040154908060050154908060060154908060070160009054906101000a900460ff16905088565b60006127108285610ceb9190611429565b610cf591906114fb565b90509392505050565b60405180610100016040528060008152602001600073ffffffffffffffffffffffffffffffffffffffff16815260200160008152602001600081526020016000815260200160008152602001600081526020016000151581525090565b600080fd5b6000819050919050565b610d7381610d60565b8114610d7e57600080fd5b50565b600081359050610d9081610d6a565b92915050565b600060208284031215610dac57610dab610d5b565b5b6000610dba84828501610d81565b91505092915050565b610dcc81610d60565b82525050565b6000602082019050610de76000830184610dc3565b92915050565b610df681610d60565b82525050565b600073ffffffffffffffffffffffffffffffffffffffff82169050919050565b6000610e2782610dfc565b9050919050565b610e3781610e1c565b82525050565b60008115159050919050565b610e5281610e3d565b82525050565b61010082016000820151610e6f6000850182610ded565b506020820151610e826020850182610e2e565b506040820151610e956040850182610ded565b506060820151610ea86060850182610ded565b506080820151610ebb6080850182610ded565b5060a0820151610ece60a0850182610ded565b5060c0820151610ee160c0850182610ded565b5060e0820151610ef460e0850182610e49565b50505050565b600061010082019050610f106000830184610e58565b92915050565b610f1f81610e1c565b8114610f2a57600080fd5b50565b600081359050610f3c81610f16565b92915050565b60008060408385031215610f5957610f58610d5b565b5b6000610f6785828601610f2d565b9250506020610f7885828601610d81565b9150509250929050565b600081519050919050565b600082825260208201905092915050565b6000819050602082019050919050565b6000610fba8383610ded565b60208301905092915050565b6000602082019050919050565b6000610fde82610f82565b610fe88185610f8d565b9350610ff383610f9e565b8060005b8381101561102457815161100b8882610fae565b975061101683610fc6565b925050600181019050610ff7565b5085935050505092915050565b6000602082019050818103600083015261104b8184610fd3565b905092915050565b6000806040838503121561106a57611069610d5b565b5b600061107885828601610d81565b925050602061108985828601610d81565b9150509250929050565b61109c81610e1c565b82525050565b60006020820190506110b76000830184611093565b92915050565b6000602082840312156110d3576110d2610d5b565b5b60006110e184828501610f2d565b91505092915050565b6110f381610e3d565b82525050565b60006101008201905061110f600083018b610dc3565b61111c602083018a611093565b6111296040830189610dc3565b6111366060830188610dc3565b6111436080830187610dc3565b61115060a0830186610dc3565b61115d60c0830185610dc3565b61116a60e08301846110ea565b9998505050505050505050565b600082825260208201905092915050565b7f4f6e6c79206f776e65722063616e206368616e67652069740000000000000000600082015250565b60006111be601883611177565b91506111c982611188565b602082019050919050565b600060208201905081810360008301526111ed816111b1565b9050919050565b7f596f7520617265206e6f7420746865207374616b657200000000000000000000600082015250565b600061122a601683611177565b9150611235826111f4565b602082019050919050565b600060208201905081810360008301526112598161121d565b9050919050565b7f4d6174696320616c72656164792077697468647261776e000000000000000000600082015250565b6000611296601783611177565b91506112a182611260565b602082019050919050565b600060208201905081810360008301526112c581611289565b9050919050565b7f4e487b7100000000000000000000000000000000000000000000000000000000600052601160045260246000fd5b600061130682610d60565b915061131183610d60565b9250827fffffffffffffffffffffffffffffffffffffffffffffffffffffffffffffffff03821115611346576113456112cc565b5b828201905092915050565b600081905092915050565b50565b600061136c600083611351565b91506113778261135c565b600082019050919050565b600061138d8261135f565b9150819050919050565b7f596f75206e65656420746f207374616b6520666f722061206c6f6e676572207060008201527f6572696f64206f662074696d6500000000000000000000000000000000000000602082015250565b60006113f3602d83611177565b91506113fe82611397565b604082019050919050565b60006020820190508181036000830152611422816113e6565b9050919050565b600061143482610d60565b915061143f83610d60565b9250817fffffffffffffffffffffffffffffffffffffffffffffffffffffffffffffffff0483118215151615611478576114776112cc565b5b828202905092915050565b600061148e82610d60565b91507fffffffffffffffffffffffffffffffffffffffffffffffffffffffffffffffff8214156114c1576114c06112cc565b5b600182019050919050565b7f4e487b7100000000000000000000000000000000000000000000000000000000600052601260045260246000fd5b600061150682610d60565b915061151183610d60565b925082611521576115206114cc565b5b82820490509291505056fea264697066735822122010b9cbb81788c3cd55e5f3276d3bf8946cd5b4d12baf70ce1b2653a41a84f44c64736f6c63430008090033",
  "linkReferences": {},
  "deployedLinkReferences": {}
}