{
  "contractName": "sendeather",
  "abi": [
    {
      "inputs": [],
      "stateMutability": "nonpayable",
      "type": "constructor"
    },
    {
      "inputs": [],
      "name": "owner",
      "outputs": [
        {
          "internalType": "address",
          "name": "",
          "type": "address"
        }
      ],
      "stateMutability": "view",
      "type": "function",
      "constant": true
    },
    {
      "inputs": [
        {
          "internalType": "address payable",
          "name": "to_sent",
          "type": "address"
        }
      ],
      "name": "send",
      "outputs": [],
      "stateMutability": "payable",
      "type": "function",
      "payable": true
    },
    {
      "inputs": [],
      "name": "chek_balance",
      "outputs": [
        {
          "internalType": "uint256",
          "name": "",
          "type": "uint256"
        }
      ],
      "stateMutability": "view",
      "type": "function",
      "constant": true
    }
  ],
  "bytecode": "0x608060405234801561001057600080fd5b50336000806101000a81548173ffffffffffffffffffffffffffffffffffffffff021916908373ffffffffffffffffffffffffffffffffffffffff160217905550610440806100606000396000f3fe6080604052600436106100345760003560e01c80633e58c58c146100395780638da5cb5b14610055578063d226468b14610080575b600080fd5b610053600480360381019061004e9190610284565b6100ab565b005b34801561006157600080fd5b5061006a61014f565b60405161007791906102d2565b60405180910390f35b34801561008c57600080fd5b50610095610173565b6040516100a29190610306565b60405180910390f35b343373ffffffffffffffffffffffffffffffffffffffff16311015610105576040517f08c379a00000000000000000000000000000000000000000000000000000000081526004016100fc9061037e565b60405180910390fd5b8073ffffffffffffffffffffffffffffffffffffffff166108fc349081150290604051600060405180830381858888f1935050505015801561014b573d6000803e3d6000fd5b5050565b60008054906101000a900473ffffffffffffffffffffffffffffffffffffffff1681565b60008060009054906101000a900473ffffffffffffffffffffffffffffffffffffffff1673ffffffffffffffffffffffffffffffffffffffff163373ffffffffffffffffffffffffffffffffffffffff1614610204576040517f08c379a00000000000000000000000000000000000000000000000000000000081526004016101fb906103ea565b60405180910390fd5b3373ffffffffffffffffffffffffffffffffffffffff1631905090565b600080fd5b600073ffffffffffffffffffffffffffffffffffffffff82169050919050565b600061025182610226565b9050919050565b61026181610246565b811461026c57600080fd5b50565b60008135905061027e81610258565b92915050565b60006020828403121561029a57610299610221565b5b60006102a88482850161026f565b91505092915050565b60006102bc82610226565b9050919050565b6102cc816102b1565b82525050565b60006020820190506102e760008301846102c3565b92915050565b6000819050919050565b610300816102ed565b82525050565b600060208201905061031b60008301846102f7565b92915050565b600082825260208201905092915050565b7f552068617665206e6f7420746865207375666663696e657420616d6f756e7400600082015250565b6000610368601f83610321565b915061037382610332565b602082019050919050565b600060208201905081810360008301526103978161035b565b9050919050565b7f552072206e6f7420746865206f776e6572200000000000000000000000000000600082015250565b60006103d4601283610321565b91506103df8261039e565b602082019050919050565b60006020820190508181036000830152610403816103c7565b905091905056fea26469706673582212204bfdfda527d05c6d2aa6ee89939287c1fb4231230e83d862978dc5943837ea3364736f6c634300080e0033",
  "immutableReferences": {},
  "source": "// SPDX-License-Identifier: GPL-3.0\n\npragma solidity >=0.7.0 <0.9.0;\n\ncontract sendeather{\n\n    address public owner;\n    constructor(){\n        owner = msg.sender;\n    }\n    modifier onlyowner(){\n        require(msg.sender == owner,\"U r not the owner \");\n        _;\n    }\n\n    function send(address payable to_sent) payable public {\n        require(msg.sender.balance >=msg.value,\"U have not the suffcinet amount\");\n\n        to_sent.transfer(msg.value);\n    }\n\n    function chek_balance() view  public  onlyowner returns(uint){\n        return msg.sender.balance;\n    }\n}",
  "sourcePath": "/home/vikash/Desktop/Scaller/WEB3/SEnd_eather/Truf/contracts/sendeather.sol",
  "compiler": {
    "name": "solc",
    "version": "0.8.14+commit.80d49f37.Emscripten.clang"
  },
  "schemaVersion": "3.4.7",
  "updatedAt": "2022-06-14T10:22:45.278Z",
  "networkType": "ethereum",
  "devdoc": {
    "kind": "dev",
    "methods": {},
    "version": 1
  },
  "userdoc": {
    "kind": "user",
    "methods": {},
    "version": 1
  }
}