{
  "_format": "hh-sol-artifact-1",
  "contractName": "Manager",
  "sourceName": "contracts/Manager.sol",
  "abi": [
    {
      "inputs": [
        {
          "internalType": "string",
          "name": "_name",
          "type": "string"
        }
      ],
      "name": "createTicket",
      "outputs": [],
      "stateMutability": "nonpayable",
      "type": "function"
    },
    {
      "inputs": [],
      "name": "getTickets",
      "outputs": [
        {
          "components": [
            {
              "internalType": "uint8",
              "name": "status",
              "type": "uint8"
            },
            {
              "internalType": "string",
              "name": "name",
              "type": "string"
            }
          ],
          "internalType": "struct Manager.Ticket[]",
          "name": "",
          "type": "tuple[]"
        }
      ],
      "stateMutability": "view",
      "type": "function"
    },
    {
      "inputs": [
        {
          "internalType": "uint256",
          "name": "",
          "type": "uint256"
        }
      ],
      "name": "tickets",
      "outputs": [
        {
          "internalType": "uint8",
          "name": "status",
          "type": "uint8"
        },
        {
          "internalType": "string",
          "name": "name",
          "type": "string"
        }
      ],
      "stateMutability": "view",
      "type": "function"
    },
    {
      "inputs": [
        {
          "internalType": "uint256",
          "name": "_index",
          "type": "uint256"
        },
        {
          "internalType": "uint8",
          "name": "_status",
          "type": "uint8"
        }
      ],
      "name": "updateStatus",
      "outputs": [],
      "stateMutability": "nonpayable",
      "type": "function"
    },
    {
      "inputs": [
        {
          "internalType": "uint256",
          "name": "_index",
          "type": "uint256"
        },
        {
          "internalType": "string",
          "name": "_name",
          "type": "string"
        }
      ],
      "name": "updateTicketName",
      "outputs": [],
      "stateMutability": "nonpayable",
      "type": "function"
    }
  ],
  "bytecode": "0x608060405234801561001057600080fd5b50610a4b806100206000396000f3fe608060405234801561001057600080fd5b50600436106100575760003560e01c80633a1b3d311461005c5780634ed026221461007857806350b44712146100965780636897082f146100c7578063d4ab7b83146100e3575b600080fd5b6100766004803603810190610071919061061c565b6100ff565b005b610080610167565b60405161008d91906107ae565b60405180910390f35b6100b060048036038101906100ab919061059f565b610275565b6040516100be9291906107d0565b60405180910390f35b6100e160048036038101906100dc919061055e565b61033e565b005b6100fd60048036038101906100f891906105c8565b6103c5565b005b806000838154811061013a577f4e487b7100000000000000000000000000000000000000000000000000000000600052603260045260246000fd5b906000526020600020906002020160000160006101000a81548160ff021916908360ff1602179055505050565b60606000805480602002602001604051908101604052809291908181526020016000905b8282101561026c57838290600052602060002090600202016040518060400160405290816000820160009054906101000a900460ff1660ff1660ff1681526020016001820180546101db90610915565b80601f016020809104026020016040519081016040528092919081815260200182805461020790610915565b80156102545780601f1061022957610100808354040283529160200191610254565b820191906000526020600020905b81548152906001019060200180831161023757829003601f168201915b5050505050815250508152602001906001019061018b565b50505050905090565b6000818154811061028557600080fd5b90600052602060002090600202016000915090508060000160009054906101000a900460ff16908060010180546102bb90610915565b80601f01602080910402602001604051908101604052809291908181526020018280546102e790610915565b80156103345780601f1061030957610100808354040283529160200191610334565b820191906000526020600020905b81548152906001019060200180831161031757829003601f168201915b5050505050905082565b60006040518060400160405280600060ff16815260200183815250908060018154018082558091505060019003906000526020600020906002020160009091909190915060008201518160000160006101000a81548160ff021916908360ff16021790555060208201518160010190805190602001906103bf929190610429565b50505050565b8060008381548110610400577f4e487b7100000000000000000000000000000000000000000000000000000000600052603260045260246000fd5b90600052602060002090600202016001019080519060200190610424929190610429565b505050565b82805461043590610915565b90600052602060002090601f016020900481019282610457576000855561049e565b82601f1061047057805160ff191683800117855561049e565b8280016001018555821561049e579182015b8281111561049d578251825591602001919060010190610482565b5b5090506104ab91906104af565b5090565b5b808211156104c85760008160009055506001016104b0565b5090565b60006104df6104da84610825565b610800565b9050828152602081018484840111156104f757600080fd5b6105028482856108d3565b509392505050565b600082601f83011261051b57600080fd5b813561052b8482602086016104cc565b91505092915050565b600081359050610543816109e7565b92915050565b600081359050610558816109fe565b92915050565b60006020828403121561057057600080fd5b600082013567ffffffffffffffff81111561058a57600080fd5b6105968482850161050a565b91505092915050565b6000602082840312156105b157600080fd5b60006105bf84828501610534565b91505092915050565b600080604083850312156105db57600080fd5b60006105e985828601610534565b925050602083013567ffffffffffffffff81111561060657600080fd5b6106128582860161050a565b9150509250929050565b6000806040838503121561062f57600080fd5b600061063d85828601610534565b925050602061064e85828601610549565b9150509250929050565b60006106648383610753565b905092915050565b600061067782610866565b6106818185610889565b93508360208202850161069385610856565b8060005b858110156106cf57848403895281516106b08582610658565b94506106bb8361087c565b925060208a01995050600181019050610697565b50829750879550505050505092915050565b60006106ec82610871565b6106f6818561089a565b93506107068185602086016108e2565b61070f816109d6565b840191505092915050565b600061072582610871565b61072f81856108ab565b935061073f8185602086016108e2565b610748816109d6565b840191505092915050565b600060408301600083015161076b6000860182610790565b506020830151848203602086015261078382826106e1565b9150508091505092915050565b610799816108c6565b82525050565b6107a8816108c6565b82525050565b600060208201905081810360008301526107c8818461066c565b905092915050565b60006040820190506107e5600083018561079f565b81810360208301526107f7818461071a565b90509392505050565b600061080a61081b565b90506108168282610947565b919050565b6000604051905090565b600067ffffffffffffffff8211156108405761083f6109a7565b5b610849826109d6565b9050602081019050919050565b6000819050602082019050919050565b600081519050919050565b600081519050919050565b6000602082019050919050565b600082825260208201905092915050565b600082825260208201905092915050565b600082825260208201905092915050565b6000819050919050565b600060ff82169050919050565b82818337600083830152505050565b60005b838110156109005780820151818401526020810190506108e5565b8381111561090f576000848401525b50505050565b6000600282049050600182168061092d57607f821691505b6020821081141561094157610940610978565b5b50919050565b610950826109d6565b810181811067ffffffffffffffff8211171561096f5761096e6109a7565b5b80604052505050565b7f4e487b7100000000000000000000000000000000000000000000000000000000600052602260045260246000fd5b7f4e487b7100000000000000000000000000000000000000000000000000000000600052604160045260246000fd5b6000601f19601f8301169050919050565b6109f0816108bc565b81146109fb57600080fd5b50565b610a07816108c6565b8114610a1257600080fd5b5056fea2646970667358221220b9c92c928b3f30b9f54f9b0808216f723014e2b625a46ba059b4815169360cb764736f6c63430008040033",
  "linkReferences": {},
  "deployedLinkReferences": {}
}