{
  "_format": "hh-sol-artifact-1",
  "contractName": "BasicNFT",
  "sourceName": "contracts/tests/BasicNFT.sol",
  "abi": [
    {
      "inputs": [],
      "stateMutability": "nonpayable",
      "type": "constructor"
    },
    {
      "anonymous": false,
      "inputs": [
        {
          "indexed": true,
          "internalType": "address",
          "name": "owner",
          "type": "address"
        },
        {
          "indexed": true,
          "internalType": "address",
          "name": "approved",
          "type": "address"
        },
        {
          "indexed": true,
          "internalType": "uint256",
          "name": "tokenId",
          "type": "uint256"
        }
      ],
      "name": "Approval",
      "type": "event"
    },
    {
      "anonymous": false,
      "inputs": [
        {
          "indexed": true,
          "internalType": "address",
          "name": "owner",
          "type": "address"
        },
        {
          "indexed": true,
          "internalType": "address",
          "name": "operator",
          "type": "address"
        },
        {
          "indexed": false,
          "internalType": "bool",
          "name": "approved",
          "type": "bool"
        }
      ],
      "name": "ApprovalForAll",
      "type": "event"
    },
    {
      "anonymous": false,
      "inputs": [
        {
          "indexed": true,
          "internalType": "uint256",
          "name": "tokenId",
          "type": "uint256"
        }
      ],
      "name": "DogMinted",
      "type": "event"
    },
    {
      "anonymous": false,
      "inputs": [
        {
          "indexed": true,
          "internalType": "address",
          "name": "from",
          "type": "address"
        },
        {
          "indexed": true,
          "internalType": "address",
          "name": "to",
          "type": "address"
        },
        {
          "indexed": true,
          "internalType": "uint256",
          "name": "tokenId",
          "type": "uint256"
        }
      ],
      "name": "Transfer",
      "type": "event"
    },
    {
      "inputs": [],
      "name": "TOKEN_URI",
      "outputs": [
        {
          "internalType": "string",
          "name": "",
          "type": "string"
        }
      ],
      "stateMutability": "view",
      "type": "function"
    },
    {
      "inputs": [
        {
          "internalType": "address",
          "name": "to",
          "type": "address"
        },
        {
          "internalType": "uint256",
          "name": "tokenId",
          "type": "uint256"
        }
      ],
      "name": "approve",
      "outputs": [],
      "stateMutability": "nonpayable",
      "type": "function"
    },
    {
      "inputs": [
        {
          "internalType": "address",
          "name": "owner",
          "type": "address"
        }
      ],
      "name": "balanceOf",
      "outputs": [
        {
          "internalType": "uint256",
          "name": "",
          "type": "uint256"
        }
      ],
      "stateMutability": "view",
      "type": "function"
    },
    {
      "inputs": [
        {
          "internalType": "uint256",
          "name": "tokenId",
          "type": "uint256"
        }
      ],
      "name": "getApproved",
      "outputs": [
        {
          "internalType": "address",
          "name": "",
          "type": "address"
        }
      ],
      "stateMutability": "view",
      "type": "function"
    },
    {
      "inputs": [],
      "name": "getTokenCounter",
      "outputs": [
        {
          "internalType": "uint256",
          "name": "",
          "type": "uint256"
        }
      ],
      "stateMutability": "view",
      "type": "function"
    },
    {
      "inputs": [
        {
          "internalType": "address",
          "name": "owner",
          "type": "address"
        },
        {
          "internalType": "address",
          "name": "operator",
          "type": "address"
        }
      ],
      "name": "isApprovedForAll",
      "outputs": [
        {
          "internalType": "bool",
          "name": "",
          "type": "bool"
        }
      ],
      "stateMutability": "view",
      "type": "function"
    },
    {
      "inputs": [],
      "name": "mintNft",
      "outputs": [],
      "stateMutability": "nonpayable",
      "type": "function"
    },
    {
      "inputs": [],
      "name": "name",
      "outputs": [
        {
          "internalType": "string",
          "name": "",
          "type": "string"
        }
      ],
      "stateMutability": "view",
      "type": "function"
    },
    {
      "inputs": [
        {
          "internalType": "uint256",
          "name": "tokenId",
          "type": "uint256"
        }
      ],
      "name": "ownerOf",
      "outputs": [
        {
          "internalType": "address",
          "name": "",
          "type": "address"
        }
      ],
      "stateMutability": "view",
      "type": "function"
    },
    {
      "inputs": [
        {
          "internalType": "address",
          "name": "from",
          "type": "address"
        },
        {
          "internalType": "address",
          "name": "to",
          "type": "address"
        },
        {
          "internalType": "uint256",
          "name": "tokenId",
          "type": "uint256"
        }
      ],
      "name": "safeTransferFrom",
      "outputs": [],
      "stateMutability": "nonpayable",
      "type": "function"
    },
    {
      "inputs": [
        {
          "internalType": "address",
          "name": "from",
          "type": "address"
        },
        {
          "internalType": "address",
          "name": "to",
          "type": "address"
        },
        {
          "internalType": "uint256",
          "name": "tokenId",
          "type": "uint256"
        },
        {
          "internalType": "bytes",
          "name": "data",
          "type": "bytes"
        }
      ],
      "name": "safeTransferFrom",
      "outputs": [],
      "stateMutability": "nonpayable",
      "type": "function"
    },
    {
      "inputs": [
        {
          "internalType": "address",
          "name": "operator",
          "type": "address"
        },
        {
          "internalType": "bool",
          "name": "approved",
          "type": "bool"
        }
      ],
      "name": "setApprovalForAll",
      "outputs": [],
      "stateMutability": "nonpayable",
      "type": "function"
    },
    {
      "inputs": [
        {
          "internalType": "bytes4",
          "name": "interfaceId",
          "type": "bytes4"
        }
      ],
      "name": "supportsInterface",
      "outputs": [
        {
          "internalType": "bool",
          "name": "",
          "type": "bool"
        }
      ],
      "stateMutability": "view",
      "type": "function"
    },
    {
      "inputs": [],
      "name": "symbol",
      "outputs": [
        {
          "internalType": "string",
          "name": "",
          "type": "string"
        }
      ],
      "stateMutability": "view",
      "type": "function"
    },
    {
      "inputs": [
        {
          "internalType": "uint256",
          "name": "tokenId",
          "type": "uint256"
        }
      ],
      "name": "tokenURI",
      "outputs": [
        {
          "internalType": "string",
          "name": "",
          "type": "string"
        }
      ],
      "stateMutability": "view",
      "type": "function"
    },
    {
      "inputs": [
        {
          "internalType": "address",
          "name": "from",
          "type": "address"
        },
        {
          "internalType": "address",
          "name": "to",
          "type": "address"
        },
        {
          "internalType": "uint256",
          "name": "tokenId",
          "type": "uint256"
        }
      ],
      "name": "transferFrom",
      "outputs": [],
      "stateMutability": "nonpayable",
      "type": "function"
    }
  ],
  "bytecode": "0x60806040523480156200001157600080fd5b506040518060400160405280600581526020017f446f6769650000000000000000000000000000000000000000000000000000008152506040518060400160405280600381526020017f444f470000000000000000000000000000000000000000000000000000000000815250816000908051906020019062000096929190620000c0565b508060019080519060200190620000af929190620000c0565b5050506000600681905550620001d5565b828054620000ce906200019f565b90600052602060002090601f016020900481019282620000f257600085556200013e565b82601f106200010d57805160ff19168380011785556200013e565b828001600101855582156200013e579182015b828111156200013d57825182559160200191906001019062000120565b5b5090506200014d919062000151565b5090565b5b808211156200016c57600081600090555060010162000152565b5090565b7f4e487b7100000000000000000000000000000000000000000000000000000000600052602260045260246000fd5b60006002820490506001821680620001b857607f821691505b60208210811415620001cf57620001ce62000170565b5b50919050565b61259a80620001e56000396000f3fe608060405234801561001057600080fd5b50600436106101005760003560e01c806370a0823111610097578063b88d4fde11610066578063b88d4fde146102ad578063c2229fea146102c9578063c87b56dd146102d3578063e985e9c51461030357610100565b806370a082311461022557806378ce90351461025557806395d89b4114610273578063a22cb4651461029157610100565b806323b872dd116100d357806323b872dd1461019f57806342842e0e146101bb5780636352211e146101d75780636e02007d1461020757610100565b806301ffc9a71461010557806306fdde0314610135578063081812fc14610153578063095ea7b314610183575b600080fd5b61011f600480360381019061011a9190611779565b610333565b60405161012c91906117c1565b60405180910390f35b61013d610415565b60405161014a9190611875565b60405180910390f35b61016d600480360381019061016891906118cd565b6104a7565b60405161017a919061193b565b60405180910390f35b61019d60048036038101906101989190611982565b6104ed565b005b6101b960048036038101906101b491906119c2565b610605565b005b6101d560048036038101906101d091906119c2565b610665565b005b6101f160048036038101906101ec91906118cd565b610685565b6040516101fe919061193b565b60405180910390f35b61020f61070c565b60405161021c9190611a24565b60405180910390f35b61023f600480360381019061023a9190611a3f565b610716565b60405161024c9190611a24565b60405180910390f35b61025d6107ce565b60405161026a9190611875565b60405180910390f35b61027b6107ea565b6040516102889190611875565b60405180910390f35b6102ab60048036038101906102a69190611a98565b61087c565b005b6102c760048036038101906102c29190611c0d565b610892565b005b6102d16108f4565b005b6102ed60048036038101906102e891906118cd565b610946565b6040516102fa9190611875565b60405180910390f35b61031d60048036038101906103189190611c90565b6109b0565b60405161032a91906117c1565b60405180910390f35b60007f80ac58cd000000000000000000000000000000000000000000000000000000007bffffffffffffffffffffffffffffffffffffffffffffffffffffffff1916827bffffffffffffffffffffffffffffffffffffffffffffffffffffffff191614806103fe57507f5b5e139f000000000000000000000000000000000000000000000000000000007bffffffffffffffffffffffffffffffffffffffffffffffffffffffff1916827bffffffffffffffffffffffffffffffffffffffffffffffffffffffff1916145b8061040e575061040d82610a44565b5b9050919050565b60606000805461042490611cff565b80601f016020809104026020016040519081016040528092919081815260200182805461045090611cff565b801561049d5780601f106104725761010080835404028352916020019161049d565b820191906000526020600020905b81548152906001019060200180831161048057829003601f168201915b5050505050905090565b60006104b282610aae565b6004600083815260200190815260200160002060009054906101000a900473ffffffffffffffffffffffffffffffffffffffff169050919050565b60006104f882610685565b90508073ffffffffffffffffffffffffffffffffffffffff168373ffffffffffffffffffffffffffffffffffffffff161415610569576040517f08c379a000000000000000000000000000000000000000000000000000000000815260040161056090611da3565b60405180910390fd5b8073ffffffffffffffffffffffffffffffffffffffff16610588610af9565b73ffffffffffffffffffffffffffffffffffffffff1614806105b757506105b6816105b1610af9565b6109b0565b5b6105f6576040517f08c379a00000000000000000000000000000000000000000000000000000000081526004016105ed90611e35565b60405180910390fd5b6106008383610b01565b505050565b610616610610610af9565b82610bba565b610655576040517f08c379a000000000000000000000000000000000000000000000000000000000815260040161064c90611ec7565b60405180910390fd5b610660838383610c4f565b505050565b61068083838360405180602001604052806000815250610892565b505050565b60008061069183610f49565b9050600073ffffffffffffffffffffffffffffffffffffffff168173ffffffffffffffffffffffffffffffffffffffff161415610703576040517f08c379a00000000000000000000000000000000000000000000000000000000081526004016106fa90611f33565b60405180910390fd5b80915050919050565b6000600654905090565b60008073ffffffffffffffffffffffffffffffffffffffff168273ffffffffffffffffffffffffffffffffffffffff161415610787576040517f08c379a000000000000000000000000000000000000000000000000000000000815260040161077e90611fc5565b60405180910390fd5b600360008373ffffffffffffffffffffffffffffffffffffffff1673ffffffffffffffffffffffffffffffffffffffff168152602001908152602001600020549050919050565b60405180608001604052806057815260200161250e6057913981565b6060600180546107f990611cff565b80601f016020809104026020016040519081016040528092919081815260200182805461082590611cff565b80156108725780601f1061084757610100808354040283529160200191610872565b820191906000526020600020905b81548152906001019060200180831161085557829003601f168201915b5050505050905090565b61088e610887610af9565b8383610f86565b5050565b6108a361089d610af9565b83610bba565b6108e2576040517f08c379a00000000000000000000000000000000000000000000000000000000081526004016108d990611ec7565b60405180910390fd5b6108ee848484846110f3565b50505050565b6109003360065461114f565b6006547fef1da42f89c42f48befa143007e6f5efd84a2d1cc3dc97c5edd2d3373220f66d60405160405180910390a2600160065461093e9190612014565b600681905550565b60606109518261116d565b610990576040517f08c379a0000000000000000000000000000000000000000000000000000000008152600401610987906120dc565b60405180910390fd5b60405180608001604052806057815260200161250e605791399050919050565b6000600560008473ffffffffffffffffffffffffffffffffffffffff1673ffffffffffffffffffffffffffffffffffffffff16815260200190815260200160002060008373ffffffffffffffffffffffffffffffffffffffff1673ffffffffffffffffffffffffffffffffffffffff16815260200190815260200160002060009054906101000a900460ff16905092915050565b60007f01ffc9a7000000000000000000000000000000000000000000000000000000007bffffffffffffffffffffffffffffffffffffffffffffffffffffffff1916827bffffffffffffffffffffffffffffffffffffffffffffffffffffffff1916149050919050565b610ab78161116d565b610af6576040517f08c379a0000000000000000000000000000000000000000000000000000000008152600401610aed90611f33565b60405180910390fd5b50565b600033905090565b816004600083815260200190815260200160002060006101000a81548173ffffffffffffffffffffffffffffffffffffffff021916908373ffffffffffffffffffffffffffffffffffffffff160217905550808273ffffffffffffffffffffffffffffffffffffffff16610b7483610685565b73ffffffffffffffffffffffffffffffffffffffff167f8c5be1e5ebec7d5bd14f71427d1e84f3dd0314c0f7b2291e5b200ac8c7c3b92560405160405180910390a45050565b600080610bc683610685565b90508073ffffffffffffffffffffffffffffffffffffffff168473ffffffffffffffffffffffffffffffffffffffff161480610c085750610c0781856109b0565b5b80610c4657508373ffffffffffffffffffffffffffffffffffffffff16610c2e846104a7565b73ffffffffffffffffffffffffffffffffffffffff16145b91505092915050565b8273ffffffffffffffffffffffffffffffffffffffff16610c6f82610685565b73ffffffffffffffffffffffffffffffffffffffff1614610cc5576040517f08c379a0000000000000000000000000000000000000000000000000000000008152600401610cbc9061216e565b60405180910390fd5b600073ffffffffffffffffffffffffffffffffffffffff168273ffffffffffffffffffffffffffffffffffffffff161415610d35576040517f08c379a0000000000000000000000000000000000000000000000000000000008152600401610d2c90612200565b60405180910390fd5b610d4283838360016111ae565b8273ffffffffffffffffffffffffffffffffffffffff16610d6282610685565b73ffffffffffffffffffffffffffffffffffffffff1614610db8576040517f08c379a0000000000000000000000000000000000000000000000000000000008152600401610daf9061216e565b60405180910390fd5b6004600082815260200190815260200160002060006101000a81549073ffffffffffffffffffffffffffffffffffffffff02191690556001600360008573ffffffffffffffffffffffffffffffffffffffff1673ffffffffffffffffffffffffffffffffffffffff168152602001908152602001600020600082825403925050819055506001600360008473ffffffffffffffffffffffffffffffffffffffff1673ffffffffffffffffffffffffffffffffffffffff16815260200190815260200160002060008282540192505081905550816002600083815260200190815260200160002060006101000a81548173ffffffffffffffffffffffffffffffffffffffff021916908373ffffffffffffffffffffffffffffffffffffffff160217905550808273ffffffffffffffffffffffffffffffffffffffff168473ffffffffffffffffffffffffffffffffffffffff167fddf252ad1be2c89b69c2b068fc378daa952ba7f163c4a11628f55a4df523b3ef60405160405180910390a4610f4483838360016112d4565b505050565b60006002600083815260200190815260200160002060009054906101000a900473ffffffffffffffffffffffffffffffffffffffff169050919050565b8173ffffffffffffffffffffffffffffffffffffffff168373ffffffffffffffffffffffffffffffffffffffff161415610ff5576040517f08c379a0000000000000000000000000000000000000000000000000000000008152600401610fec9061226c565b60405180910390fd5b80600560008573ffffffffffffffffffffffffffffffffffffffff1673ffffffffffffffffffffffffffffffffffffffff16815260200190815260200160002060008473ffffffffffffffffffffffffffffffffffffffff1673ffffffffffffffffffffffffffffffffffffffff16815260200190815260200160002060006101000a81548160ff0219169083151502179055508173ffffffffffffffffffffffffffffffffffffffff168373ffffffffffffffffffffffffffffffffffffffff167f17307eab39ab6107e8899845ad3d59bd9653f200f220920489ca2b5937696c31836040516110e691906117c1565b60405180910390a3505050565b6110fe848484610c4f565b61110a848484846112da565b611149576040517f08c379a0000000000000000000000000000000000000000000000000000000008152600401611140906122fe565b60405180910390fd5b50505050565b611169828260405180602001604052806000815250611471565b5050565b60008073ffffffffffffffffffffffffffffffffffffffff1661118f83610f49565b73ffffffffffffffffffffffffffffffffffffffff1614159050919050565b60018111156112ce57600073ffffffffffffffffffffffffffffffffffffffff168473ffffffffffffffffffffffffffffffffffffffff16146112425780600360008673ffffffffffffffffffffffffffffffffffffffff1673ffffffffffffffffffffffffffffffffffffffff168152602001908152602001600020600082825461123a919061231e565b925050819055505b600073ffffffffffffffffffffffffffffffffffffffff168373ffffffffffffffffffffffffffffffffffffffff16146112cd5780600360008573ffffffffffffffffffffffffffffffffffffffff1673ffffffffffffffffffffffffffffffffffffffff16815260200190815260200160002060008282546112c59190612014565b925050819055505b5b50505050565b50505050565b60006112fb8473ffffffffffffffffffffffffffffffffffffffff166114cc565b15611464578373ffffffffffffffffffffffffffffffffffffffff1663150b7a02611324610af9565b8786866040518563ffffffff1660e01b815260040161134694939291906123a7565b602060405180830381600087803b15801561136057600080fd5b505af192505050801561139157506040513d601f19601f8201168201806040525081019061138e9190612408565b60015b611414573d80600081146113c1576040519150601f19603f3d011682016040523d82523d6000602084013e6113c6565b606091505b5060008151141561140c576040517f08c379a0000000000000000000000000000000000000000000000000000000008152600401611403906122fe565b60405180910390fd5b805181602001fd5b63150b7a0260e01b7bffffffffffffffffffffffffffffffffffffffffffffffffffffffff1916817bffffffffffffffffffffffffffffffffffffffffffffffffffffffff191614915050611469565b600190505b949350505050565b61147b83836114ef565b61148860008484846112da565b6114c7576040517f08c379a00000000000000000000000000000000000000000000000000000000081526004016114be906122fe565b60405180910390fd5b505050565b6000808273ffffffffffffffffffffffffffffffffffffffff163b119050919050565b600073ffffffffffffffffffffffffffffffffffffffff168273ffffffffffffffffffffffffffffffffffffffff16141561155f576040517f08c379a000000000000000000000000000000000000000000000000000000000815260040161155690612481565b60405180910390fd5b6115688161116d565b156115a8576040517f08c379a000000000000000000000000000000000000000000000000000000000815260040161159f906124ed565b60405180910390fd5b6115b66000838360016111ae565b6115bf8161116d565b156115ff576040517f08c379a00000000000000000000000000000000000000000000000000000000081526004016115f6906124ed565b60405180910390fd5b6001600360008473ffffffffffffffffffffffffffffffffffffffff1673ffffffffffffffffffffffffffffffffffffffff16815260200190815260200160002060008282540192505081905550816002600083815260200190815260200160002060006101000a81548173ffffffffffffffffffffffffffffffffffffffff021916908373ffffffffffffffffffffffffffffffffffffffff160217905550808273ffffffffffffffffffffffffffffffffffffffff16600073ffffffffffffffffffffffffffffffffffffffff167fddf252ad1be2c89b69c2b068fc378daa952ba7f163c4a11628f55a4df523b3ef60405160405180910390a46117096000838360016112d4565b5050565b6000604051905090565b600080fd5b600080fd5b60007fffffffff0000000000000000000000000000000000000000000000000000000082169050919050565b61175681611721565b811461176157600080fd5b50565b6000813590506117738161174d565b92915050565b60006020828403121561178f5761178e611717565b5b600061179d84828501611764565b91505092915050565b60008115159050919050565b6117bb816117a6565b82525050565b60006020820190506117d660008301846117b2565b92915050565b600081519050919050565b600082825260208201905092915050565b60005b838110156118165780820151818401526020810190506117fb565b83811115611825576000848401525b50505050565b6000601f19601f8301169050919050565b6000611847826117dc565b61185181856117e7565b93506118618185602086016117f8565b61186a8161182b565b840191505092915050565b6000602082019050818103600083015261188f818461183c565b905092915050565b6000819050919050565b6118aa81611897565b81146118b557600080fd5b50565b6000813590506118c7816118a1565b92915050565b6000602082840312156118e3576118e2611717565b5b60006118f1848285016118b8565b91505092915050565b600073ffffffffffffffffffffffffffffffffffffffff82169050919050565b6000611925826118fa565b9050919050565b6119358161191a565b82525050565b6000602082019050611950600083018461192c565b92915050565b61195f8161191a565b811461196a57600080fd5b50565b60008135905061197c81611956565b92915050565b6000806040838503121561199957611998611717565b5b60006119a78582860161196d565b92505060206119b8858286016118b8565b9150509250929050565b6000806000606084860312156119db576119da611717565b5b60006119e98682870161196d565b93505060206119fa8682870161196d565b9250506040611a0b868287016118b8565b9150509250925092565b611a1e81611897565b82525050565b6000602082019050611a396000830184611a15565b92915050565b600060208284031215611a5557611a54611717565b5b6000611a638482850161196d565b91505092915050565b611a75816117a6565b8114611a8057600080fd5b50565b600081359050611a9281611a6c565b92915050565b60008060408385031215611aaf57611aae611717565b5b6000611abd8582860161196d565b9250506020611ace85828601611a83565b9150509250929050565b600080fd5b600080fd5b7f4e487b7100000000000000000000000000000000000000000000000000000000600052604160045260246000fd5b611b1a8261182b565b810181811067ffffffffffffffff82111715611b3957611b38611ae2565b5b80604052505050565b6000611b4c61170d565b9050611b588282611b11565b919050565b600067ffffffffffffffff821115611b7857611b77611ae2565b5b611b818261182b565b9050602081019050919050565b82818337600083830152505050565b6000611bb0611bab84611b5d565b611b42565b905082815260208101848484011115611bcc57611bcb611add565b5b611bd7848285611b8e565b509392505050565b600082601f830112611bf457611bf3611ad8565b5b8135611c04848260208601611b9d565b91505092915050565b60008060008060808587031215611c2757611c26611717565b5b6000611c358782880161196d565b9450506020611c468782880161196d565b9350506040611c57878288016118b8565b925050606085013567ffffffffffffffff811115611c7857611c7761171c565b5b611c8487828801611bdf565b91505092959194509250565b60008060408385031215611ca757611ca6611717565b5b6000611cb58582860161196d565b9250506020611cc68582860161196d565b9150509250929050565b7f4e487b7100000000000000000000000000000000000000000000000000000000600052602260045260246000fd5b60006002820490506001821680611d1757607f821691505b60208210811415611d2b57611d2a611cd0565b5b50919050565b7f4552433732313a20617070726f76616c20746f2063757272656e74206f776e6560008201527f7200000000000000000000000000000000000000000000000000000000000000602082015250565b6000611d8d6021836117e7565b9150611d9882611d31565b604082019050919050565b60006020820190508181036000830152611dbc81611d80565b9050919050565b7f4552433732313a20617070726f76652063616c6c6572206973206e6f7420746f60008201527f6b656e206f776e6572206f7220617070726f76656420666f7220616c6c000000602082015250565b6000611e1f603d836117e7565b9150611e2a82611dc3565b604082019050919050565b60006020820190508181036000830152611e4e81611e12565b9050919050565b7f4552433732313a2063616c6c6572206973206e6f7420746f6b656e206f776e6560008201527f72206f7220617070726f76656400000000000000000000000000000000000000602082015250565b6000611eb1602d836117e7565b9150611ebc82611e55565b604082019050919050565b60006020820190508181036000830152611ee081611ea4565b9050919050565b7f4552433732313a20696e76616c696420746f6b656e2049440000000000000000600082015250565b6000611f1d6018836117e7565b9150611f2882611ee7565b602082019050919050565b60006020820190508181036000830152611f4c81611f10565b9050919050565b7f4552433732313a2061646472657373207a65726f206973206e6f74206120766160008201527f6c6964206f776e65720000000000000000000000000000000000000000000000602082015250565b6000611faf6029836117e7565b9150611fba82611f53565b604082019050919050565b60006020820190508181036000830152611fde81611fa2565b9050919050565b7f4e487b7100000000000000000000000000000000000000000000000000000000600052601160045260246000fd5b600061201f82611897565b915061202a83611897565b9250827fffffffffffffffffffffffffffffffffffffffffffffffffffffffffffffffff0382111561205f5761205e611fe5565b5b828201905092915050565b7f4552433732314d657461646174613a2055524920717565727920666f72206e6f60008201527f6e6578697374656e7420746f6b656e0000000000000000000000000000000000602082015250565b60006120c6602f836117e7565b91506120d18261206a565b604082019050919050565b600060208201905081810360008301526120f5816120b9565b9050919050565b7f4552433732313a207472616e736665722066726f6d20696e636f72726563742060008201527f6f776e6572000000000000000000000000000000000000000000000000000000602082015250565b60006121586025836117e7565b9150612163826120fc565b604082019050919050565b600060208201905081810360008301526121878161214b565b9050919050565b7f4552433732313a207472616e7366657220746f20746865207a65726f2061646460008201527f7265737300000000000000000000000000000000000000000000000000000000602082015250565b60006121ea6024836117e7565b91506121f58261218e565b604082019050919050565b60006020820190508181036000830152612219816121dd565b9050919050565b7f4552433732313a20617070726f766520746f2063616c6c657200000000000000600082015250565b60006122566019836117e7565b915061226182612220565b602082019050919050565b6000602082019050818103600083015261228581612249565b9050919050565b7f4552433732313a207472616e7366657220746f206e6f6e20455243373231526560008201527f63656976657220696d706c656d656e7465720000000000000000000000000000602082015250565b60006122e86032836117e7565b91506122f38261228c565b604082019050919050565b60006020820190508181036000830152612317816122db565b9050919050565b600061232982611897565b915061233483611897565b92508282101561234757612346611fe5565b5b828203905092915050565b600081519050919050565b600082825260208201905092915050565b600061237982612352565b612383818561235d565b93506123938185602086016117f8565b61239c8161182b565b840191505092915050565b60006080820190506123bc600083018761192c565b6123c9602083018661192c565b6123d66040830185611a15565b81810360608301526123e8818461236e565b905095945050505050565b6000815190506124028161174d565b92915050565b60006020828403121561241e5761241d611717565b5b600061242c848285016123f3565b91505092915050565b7f4552433732313a206d696e7420746f20746865207a65726f2061646472657373600082015250565b600061246b6020836117e7565b915061247682612435565b602082019050919050565b6000602082019050818103600083015261249a8161245e565b9050919050565b7f4552433732313a20746f6b656e20616c7265616479206d696e74656400000000600082015250565b60006124d7601c836117e7565b91506124e2826124a1565b602082019050919050565b60006020820190508181036000830152612506816124ca565b905091905056fe697066733a2f2f62616679626569673337696f6972373673376d67356f6f6265746e636f6a636d3363336878617379643472766964346a71687934676b61686567342f3f66696c656e616d653d302d5055472e6a736f6ea2646970667358221220ce5939c96efc5714239aba5202e527a58a1d0c1cccb8b7883742fc142aeae0a164736f6c63430008090033",
  "linkReferences": {},
  "deployedLinkReferences": {}
}