{
  "_format": "hh-sol-artifact-1",
  "contractName": "Twitter",
  "sourceName": "contracts/Twitter.sol",
  "abi": [
    {
      "inputs": [],
      "stateMutability": "nonpayable",
      "type": "constructor"
    },
    {
      "anonymous": false,
      "inputs": [
        {
          "indexed": false,
          "internalType": "uint256",
          "name": "id",
          "type": "uint256"
        },
        {
          "indexed": false,
          "internalType": "bool",
          "name": "isDeleted",
          "type": "bool"
        }
      ],
      "name": "TweetDeleted",
      "type": "event"
    },
    {
      "anonymous": false,
      "inputs": [
        {
          "indexed": false,
          "internalType": "address",
          "name": "tweeter",
          "type": "address"
        },
        {
          "indexed": false,
          "internalType": "uint256",
          "name": "id",
          "type": "uint256"
        },
        {
          "indexed": false,
          "internalType": "string",
          "name": "tweetText",
          "type": "string"
        },
        {
          "indexed": false,
          "internalType": "string",
          "name": "tweetImg",
          "type": "string"
        },
        {
          "indexed": false,
          "internalType": "bool",
          "name": "isDeleted",
          "type": "bool"
        },
        {
          "indexed": false,
          "internalType": "uint256",
          "name": "timestamp",
          "type": "uint256"
        }
      ],
      "name": "tweetCreated",
      "type": "event"
    },
    {
      "inputs": [
        {
          "internalType": "string",
          "name": "tweetText",
          "type": "string"
        },
        {
          "internalType": "string",
          "name": "tweetImg",
          "type": "string"
        }
      ],
      "name": "addTweet",
      "outputs": [],
      "stateMutability": "payable",
      "type": "function"
    },
    {
      "inputs": [
        {
          "internalType": "uint256",
          "name": "tweetId",
          "type": "uint256"
        },
        {
          "internalType": "bool",
          "name": "isDeleted",
          "type": "bool"
        }
      ],
      "name": "deleteTweet",
      "outputs": [],
      "stateMutability": "nonpayable",
      "type": "function"
    },
    {
      "inputs": [],
      "name": "getAllTweets",
      "outputs": [
        {
          "components": [
            {
              "internalType": "address",
              "name": "tweeter",
              "type": "address"
            },
            {
              "internalType": "uint256",
              "name": "id",
              "type": "uint256"
            },
            {
              "internalType": "string",
              "name": "tweetText",
              "type": "string"
            },
            {
              "internalType": "string",
              "name": "tweetImg",
              "type": "string"
            },
            {
              "internalType": "bool",
              "name": "isDeleted",
              "type": "bool"
            },
            {
              "internalType": "uint256",
              "name": "timestamp",
              "type": "uint256"
            }
          ],
          "internalType": "struct Twitter.tweet[]",
          "name": "",
          "type": "tuple[]"
        }
      ],
      "stateMutability": "view",
      "type": "function"
    },
    {
      "inputs": [],
      "name": "getMyTweets",
      "outputs": [
        {
          "components": [
            {
              "internalType": "address",
              "name": "tweeter",
              "type": "address"
            },
            {
              "internalType": "uint256",
              "name": "id",
              "type": "uint256"
            },
            {
              "internalType": "string",
              "name": "tweetText",
              "type": "string"
            },
            {
              "internalType": "string",
              "name": "tweetImg",
              "type": "string"
            },
            {
              "internalType": "bool",
              "name": "isDeleted",
              "type": "bool"
            },
            {
              "internalType": "uint256",
              "name": "timestamp",
              "type": "uint256"
            }
          ],
          "internalType": "struct Twitter.tweet[]",
          "name": "",
          "type": "tuple[]"
        }
      ],
      "stateMutability": "view",
      "type": "function"
    },
    {
      "inputs": [
        {
          "internalType": "uint256",
          "name": "id",
          "type": "uint256"
        }
      ],
      "name": "getTweet",
      "outputs": [
        {
          "internalType": "string",
          "name": "",
          "type": "string"
        },
        {
          "internalType": "string",
          "name": "",
          "type": "string"
        },
        {
          "internalType": "address",
          "name": "",
          "type": "address"
        }
      ],
      "stateMutability": "view",
      "type": "function"
    },
    {
      "inputs": [
        {
          "internalType": "address",
          "name": "userAddress",
          "type": "address"
        }
      ],
      "name": "getUser",
      "outputs": [
        {
          "components": [
            {
              "internalType": "string",
              "name": "name",
              "type": "string"
            },
            {
              "internalType": "string",
              "name": "bio",
              "type": "string"
            },
            {
              "internalType": "string",
              "name": "profileImg",
              "type": "string"
            },
            {
              "internalType": "string",
              "name": "profileBanner",
              "type": "string"
            }
          ],
          "internalType": "struct Twitter.user",
          "name": "",
          "type": "tuple"
        }
      ],
      "stateMutability": "view",
      "type": "function"
    },
    {
      "inputs": [],
      "name": "owner",
      "outputs": [
        {
          "internalType": "address",
          "name": "",
          "type": "address"
        }
      ],
      "stateMutability": "view",
      "type": "function"
    },
    {
      "inputs": [
        {
          "internalType": "string",
          "name": "newName",
          "type": "string"
        },
        {
          "internalType": "string",
          "name": "newBio",
          "type": "string"
        },
        {
          "internalType": "string",
          "name": "newProfileImg",
          "type": "string"
        },
        {
          "internalType": "string",
          "name": "newProfileBanner",
          "type": "string"
        }
      ],
      "name": "updateUser",
      "outputs": [],
      "stateMutability": "nonpayable",
      "type": "function"
    }
  ],
  "bytecode": "0x608060405234801561001057600080fd5b50336000806101000a81548173ffffffffffffffffffffffffffffffffffffffff021916908373ffffffffffffffffffffffffffffffffffffffff1602179055506000600181905550611f7e806100686000396000f3fe60806040526004361061007b5760003560e01c8063aefedbc21161004e578063aefedbc21461012f578063b5c24a011461015a578063c3ad5ecb14610183578063f0312a37146101c25761007b565b806353256135146100805780636f77926b146100ab5780637e75b408146100e85780638da5cb5b14610104575b600080fd5b34801561008c57600080fd5b506100956101eb565b6040516100a2919061140d565b60405180910390f35b3480156100b757600080fd5b506100d260048036038101906100cd919061146f565b610545565b6040516100df9190611514565b60405180910390f35b61010260048036038101906100fd919061166b565b6107e6565b005b34801561011057600080fd5b506101196109a8565b60405161012691906116f2565b60405180910390f35b34801561013b57600080fd5b506101446109cc565b604051610151919061140d565b60405180910390f35b34801561016657600080fd5b50610181600480360381019061017c919061170d565b610d94565b005b34801561018f57600080fd5b506101aa60048036038101906101a59190611810565b610e26565b6040516101b993929190611887565b60405180910390f35b3480156101ce57600080fd5b506101e960048036038101906101e491906118f8565b611031565b005b6060600060015467ffffffffffffffff81111561020b5761020a611540565b5b60405190808252806020026020018201604052801561024457816020015b610231611140565b8152602001906001900390816102295790505b5090506000805b60015481101561048b57600015156002600083815260200190815260200160002060040160009054906101000a900460ff1615150361047857600260008281526020019081526020016000206040518060c00160405290816000820160009054906101000a900473ffffffffffffffffffffffffffffffffffffffff1673ffffffffffffffffffffffffffffffffffffffff1673ffffffffffffffffffffffffffffffffffffffff1681526020016001820154815260200160028201805461031290611967565b80601f016020809104026020016040519081016040528092919081815260200182805461033e90611967565b801561038b5780601f106103605761010080835404028352916020019161038b565b820191906000526020600020905b81548152906001019060200180831161036e57829003601f168201915b505050505081526020016003820180546103a490611967565b80601f01602080910402602001604051908101604052809291908181526020018280546103d090611967565b801561041d5780601f106103f25761010080835404028352916020019161041d565b820191906000526020600020905b81548152906001019060200180831161040057829003601f168201915b505050505081526020016004820160009054906101000a900460ff1615151515815260200160058201548152505083838151811061045e5761045d611998565b5b60200260200101819052508180610474906119f6565b9250505b8080610483906119f6565b91505061024b565b5060008167ffffffffffffffff8111156104a8576104a7611540565b5b6040519080825280602002602001820160405280156104e157816020015b6104ce611140565b8152602001906001900390816104c65790505b50905060005b8281101561053b5783818151811061050257610501611998565b5b602002602001015182828151811061051d5761051c611998565b5b60200260200101819052508080610533906119f6565b9150506104e7565b5080935050505090565b61054d61118e565b600360008373ffffffffffffffffffffffffffffffffffffffff1673ffffffffffffffffffffffffffffffffffffffff1681526020019081526020016000206040518060800160405290816000820180546105a790611967565b80601f01602080910402602001604051908101604052809291908181526020018280546105d390611967565b80156106205780601f106105f557610100808354040283529160200191610620565b820191906000526020600020905b81548152906001019060200180831161060357829003601f168201915b5050505050815260200160018201805461063990611967565b80601f016020809104026020016040519081016040528092919081815260200182805461066590611967565b80156106b25780601f10610687576101008083540402835291602001916106b2565b820191906000526020600020905b81548152906001019060200180831161069557829003601f168201915b505050505081526020016002820180546106cb90611967565b80601f01602080910402602001604051908101604052809291908181526020018280546106f790611967565b80156107445780601f1061071957610100808354040283529160200191610744565b820191906000526020600020905b81548152906001019060200180831161072757829003601f168201915b5050505050815260200160038201805461075d90611967565b80601f016020809104026020016040519081016040528092919081815260200182805461078990611967565b80156107d65780601f106107ab576101008083540402835291602001916107d6565b820191906000526020600020905b8154815290600101906020018083116107b957829003601f168201915b5050505050815250509050919050565b662386f26fc10000341461082f576040517f08c379a000000000000000000000000000000000000000000000000000000000815260040161082690611a8a565b60405180910390fd5b60006002600060015481526020019081526020016000209050828160020190816108599190611c56565b508181600301908161086b9190611c56565b50338160000160006101000a81548173ffffffffffffffffffffffffffffffffffffffff021916908373ffffffffffffffffffffffffffffffffffffffff160217905550600154816001018190555060008160040160006101000a81548160ff0219169083151502179055504281600501819055507f38c5779ac46571418294ee2465c37dedbc6002dc9d04a4033cf23156da62fcd333600154858560004260405161091c96959493929190611d46565b60405180910390a160016000815480929190610937906119f6565b919050555060008054906101000a900473ffffffffffffffffffffffffffffffffffffffff1673ffffffffffffffffffffffffffffffffffffffff166108fc349081150290604051600060405180830381858888f193505050501580156109a2573d6000803e3d6000fd5b50505050565b60008054906101000a900473ffffffffffffffffffffffffffffffffffffffff1681565b6060600060015467ffffffffffffffff8111156109ec576109eb611540565b5b604051908082528060200260200182016040528015610a2557816020015b610a12611140565b815260200190600190039081610a0a5790505b5090506000805b600154811015610cda573373ffffffffffffffffffffffffffffffffffffffff166002600083815260200190815260200160002060000160009054906101000a900473ffffffffffffffffffffffffffffffffffffffff1673ffffffffffffffffffffffffffffffffffffffff16148015610ace5750600015156002600083815260200190815260200160002060040160009054906101000a900460ff161515145b15610cc757600260008281526020019081526020016000206040518060c00160405290816000820160009054906101000a900473ffffffffffffffffffffffffffffffffffffffff1673ffffffffffffffffffffffffffffffffffffffff1673ffffffffffffffffffffffffffffffffffffffff16815260200160018201548152602001600282018054610b6190611967565b80601f0160208091040260200160405190810160405280929190818152602001828054610b8d90611967565b8015610bda5780601f10610baf57610100808354040283529160200191610bda565b820191906000526020600020905b815481529060010190602001808311610bbd57829003601f168201915b50505050508152602001600382018054610bf390611967565b80601f0160208091040260200160405190810160405280929190818152602001828054610c1f90611967565b8015610c6c5780601f10610c4157610100808354040283529160200191610c6c565b820191906000526020600020905b815481529060010190602001808311610c4f57829003601f168201915b505050505081526020016004820160009054906101000a900460ff16151515158152602001600582015481525050838381518110610cad57610cac611998565b5b60200260200101819052508180610cc3906119f6565b9250505b8080610cd2906119f6565b915050610a2c565b5060008167ffffffffffffffff811115610cf757610cf6611540565b5b604051908082528060200260200182016040528015610d3057816020015b610d1d611140565b815260200190600190039081610d155790505b50905060005b82811015610d8a57838181518110610d5157610d50611998565b5b6020026020010151828281518110610d6c57610d6b611998565b5b60200260200101819052508080610d82906119f6565b915050610d36565b5080935050505090565b6000600360003373ffffffffffffffffffffffffffffffffffffffff1673ffffffffffffffffffffffffffffffffffffffff168152602001908152602001600020905084816000019081610de89190611c56565b5083816001019081610dfa9190611c56565b5082816002019081610e0c9190611c56565b5081816003019081610e1e9190611c56565b505050505050565b60608060006001548410610e6f576040517f08c379a0000000000000000000000000000000000000000000000000000000008152600401610e6690611e01565b60405180910390fd5b6000600260008681526020019081526020016000209050600015158160040160009054906101000a900460ff16151514610ede576040517f08c379a0000000000000000000000000000000000000000000000000000000008152600401610ed590611e6d565b60405180910390fd5b80600201816003018260000160009054906101000a900473ffffffffffffffffffffffffffffffffffffffff16828054610f1790611967565b80601f0160208091040260200160405190810160405280929190818152602001828054610f4390611967565b8015610f905780601f10610f6557610100808354040283529160200191610f90565b820191906000526020600020905b815481529060010190602001808311610f7357829003601f168201915b50505050509250818054610fa390611967565b80601f0160208091040260200160405190810160405280929190818152602001828054610fcf90611967565b801561101c5780601f10610ff15761010080835404028352916020019161101c565b820191906000526020600020905b815481529060010190602001808311610fff57829003601f168201915b50505050509150935093509350509193909250565b3373ffffffffffffffffffffffffffffffffffffffff166002600084815260200190815260200160002060000160009054906101000a900473ffffffffffffffffffffffffffffffffffffffff1673ffffffffffffffffffffffffffffffffffffffff16146110d5576040517f08c379a00000000000000000000000000000000000000000000000000000000081526004016110cc90611eff565b60405180910390fd5b806002600084815260200190815260200160002060040160006101000a81548160ff0219169083151502179055507f90c03fdb3ba756f41c01353982e90798d484dbdcc5571fb39be23b1fee59490a8282604051611134929190611f1f565b60405180910390a15050565b6040518060c00160405280600073ffffffffffffffffffffffffffffffffffffffff168152602001600081526020016060815260200160608152602001600015158152602001600081525090565b6040518060800160405280606081526020016060815260200160608152602001606081525090565b600081519050919050565b600082825260208201905092915050565b6000819050602082019050919050565b600073ffffffffffffffffffffffffffffffffffffffff82169050919050565b600061120d826111e2565b9050919050565b61121d81611202565b82525050565b6000819050919050565b61123681611223565b82525050565b600081519050919050565b600082825260208201905092915050565b60005b8381101561127657808201518184015260208101905061125b565b60008484015250505050565b6000601f19601f8301169050919050565b600061129e8261123c565b6112a88185611247565b93506112b8818560208601611258565b6112c181611282565b840191505092915050565b60008115159050919050565b6112e1816112cc565b82525050565b600060c0830160008301516112ff6000860182611214565b506020830151611312602086018261122d565b506040830151848203604086015261132a8282611293565b915050606083015184820360608601526113448282611293565b915050608083015161135960808601826112d8565b5060a083015161136c60a086018261122d565b508091505092915050565b600061138383836112e7565b905092915050565b6000602082019050919050565b60006113a3826111b6565b6113ad81856111c1565b9350836020820285016113bf856111d2565b8060005b858110156113fb57848403895281516113dc8582611377565b94506113e78361138b565b925060208a019950506001810190506113c3565b50829750879550505050505092915050565b600060208201905081810360008301526114278184611398565b905092915050565b6000604051905090565b600080fd5b600080fd5b61144c81611202565b811461145757600080fd5b50565b60008135905061146981611443565b92915050565b60006020828403121561148557611484611439565b5b60006114938482850161145a565b91505092915050565b600060808301600083015184820360008601526114b98282611293565b915050602083015184820360208601526114d38282611293565b915050604083015184820360408601526114ed8282611293565b915050606083015184820360608601526115078282611293565b9150508091505092915050565b6000602082019050818103600083015261152e818461149c565b905092915050565b600080fd5b600080fd5b7f4e487b7100000000000000000000000000000000000000000000000000000000600052604160045260246000fd5b61157882611282565b810181811067ffffffffffffffff8211171561159757611596611540565b5b80604052505050565b60006115aa61142f565b90506115b6828261156f565b919050565b600067ffffffffffffffff8211156115d6576115d5611540565b5b6115df82611282565b9050602081019050919050565b82818337600083830152505050565b600061160e611609846115bb565b6115a0565b90508281526020810184848401111561162a5761162961153b565b5b6116358482856115ec565b509392505050565b600082601f83011261165257611651611536565b5b81356116628482602086016115fb565b91505092915050565b6000806040838503121561168257611681611439565b5b600083013567ffffffffffffffff8111156116a05761169f61143e565b5b6116ac8582860161163d565b925050602083013567ffffffffffffffff8111156116cd576116cc61143e565b5b6116d98582860161163d565b9150509250929050565b6116ec81611202565b82525050565b600060208201905061170760008301846116e3565b92915050565b6000806000806080858703121561172757611726611439565b5b600085013567ffffffffffffffff8111156117455761174461143e565b5b6117518782880161163d565b945050602085013567ffffffffffffffff8111156117725761177161143e565b5b61177e8782880161163d565b935050604085013567ffffffffffffffff81111561179f5761179e61143e565b5b6117ab8782880161163d565b925050606085013567ffffffffffffffff8111156117cc576117cb61143e565b5b6117d88782880161163d565b91505092959194509250565b6117ed81611223565b81146117f857600080fd5b50565b60008135905061180a816117e4565b92915050565b60006020828403121561182657611825611439565b5b6000611834848285016117fb565b91505092915050565b600082825260208201905092915050565b60006118598261123c565b611863818561183d565b9350611873818560208601611258565b61187c81611282565b840191505092915050565b600060608201905081810360008301526118a1818661184e565b905081810360208301526118b5818561184e565b90506118c460408301846116e3565b949350505050565b6118d5816112cc565b81146118e057600080fd5b50565b6000813590506118f2816118cc565b92915050565b6000806040838503121561190f5761190e611439565b5b600061191d858286016117fb565b925050602061192e858286016118e3565b9150509250929050565b7f4e487b7100000000000000000000000000000000000000000000000000000000600052602260045260246000fd5b6000600282049050600182168061197f57607f821691505b60208210810361199257611991611938565b5b50919050565b7f4e487b7100000000000000000000000000000000000000000000000000000000600052603260045260246000fd5b7f4e487b7100000000000000000000000000000000000000000000000000000000600052601160045260246000fd5b6000611a0182611223565b91507fffffffffffffffffffffffffffffffffffffffffffffffffffffffffffffffff8203611a3357611a326119c7565b5b600182019050919050565b7f506c65617365207375626d697420302e3031204d415449430000000000000000600082015250565b6000611a7460188361183d565b9150611a7f82611a3e565b602082019050919050565b60006020820190508181036000830152611aa381611a67565b9050919050565b60008190508160005260206000209050919050565b60006020601f8301049050919050565b600082821b905092915050565b600060088302611b0c7fffffffffffffffffffffffffffffffffffffffffffffffffffffffffffffffff82611acf565b611b168683611acf565b95508019841693508086168417925050509392505050565b6000819050919050565b6000611b53611b4e611b4984611223565b611b2e565b611223565b9050919050565b6000819050919050565b611b6d83611b38565b611b81611b7982611b5a565b848454611adc565b825550505050565b600090565b611b96611b89565b611ba1818484611b64565b505050565b5b81811015611bc557611bba600082611b8e565b600181019050611ba7565b5050565b601f821115611c0a57611bdb81611aaa565b611be484611abf565b81016020851015611bf3578190505b611c07611bff85611abf565b830182611ba6565b50505b505050565b600082821c905092915050565b6000611c2d60001984600802611c0f565b1980831691505092915050565b6000611c468383611c1c565b9150826002028217905092915050565b611c5f8261123c565b67ffffffffffffffff811115611c7857611c77611540565b5b611c828254611967565b611c8d828285611bc9565b600060209050601f831160018114611cc05760008415611cae578287015190505b611cb88582611c3a565b865550611d20565b601f198416611cce86611aaa565b60005b82811015611cf657848901518255600182019150602085019450602081019050611cd1565b86831015611d135784890151611d0f601f891682611c1c565b8355505b6001600288020188555050505b505050505050565b611d3181611223565b82525050565b611d40816112cc565b82525050565b600060c082019050611d5b60008301896116e3565b611d686020830188611d28565b8181036040830152611d7a818761184e565b90508181036060830152611d8e818661184e565b9050611d9d6080830185611d37565b611daa60a0830184611d28565b979650505050505050565b7f4e6f207375636820547765657400000000000000000000000000000000000000600082015250565b6000611deb600d8361183d565b9150611df682611db5565b602082019050919050565b60006020820190508181036000830152611e1a81611dde565b9050919050565b7f54776565742069732064656c6574656400000000000000000000000000000000600082015250565b6000611e5760108361183d565b9150611e6282611e21565b602082019050919050565b60006020820190508181036000830152611e8681611e4a565b9050919050565b7f596f752063616e206f6e6c792064656c65746520796f7572206f776e2074776560008201527f6574000000000000000000000000000000000000000000000000000000000000602082015250565b6000611ee960228361183d565b9150611ef482611e8d565b604082019050919050565b60006020820190508181036000830152611f1881611edc565b9050919050565b6000604082019050611f346000830185611d28565b611f416020830184611d37565b939250505056fea2646970667358221220d804dbb6c7c7b6d5b07fe99eb54b71432a3bbd835d4116495fb857ab6b7047ec64736f6c63430008110033",
  "linkReferences": {},
  "deployedLinkReferences": {}
}