{
  "contractName": "Marketplace",
  "abi": [
    {
      "inputs": [],
      "stateMutability": "nonpayable",
      "type": "constructor"
    },
    {
      "inputs": [
        {
          "internalType": "uint256",
          "name": "",
          "type": "uint256"
        }
      ],
      "name": "cost",
      "outputs": [
        {
          "internalType": "uint256",
          "name": "",
          "type": "uint256"
        }
      ],
      "stateMutability": "view",
      "type": "function",
      "constant": true
    },
    {
      "inputs": [
        {
          "internalType": "uint256",
          "name": "",
          "type": "uint256"
        }
      ],
      "name": "seling_items",
      "outputs": [
        {
          "internalType": "string",
          "name": "Name",
          "type": "string"
        },
        {
          "internalType": "uint256",
          "name": "Id",
          "type": "uint256"
        },
        {
          "internalType": "uint256",
          "name": "Cost",
          "type": "uint256"
        },
        {
          "internalType": "uint256",
          "name": "Time",
          "type": "uint256"
        }
      ],
      "stateMutability": "view",
      "type": "function",
      "constant": true
    },
    {
      "inputs": [],
      "name": "seller",
      "outputs": [
        {
          "internalType": "address",
          "name": "",
          "type": "address"
        }
      ],
      "stateMutability": "view",
      "type": "function",
      "constant": true
    },
    {
      "inputs": [
        {
          "internalType": "uint256",
          "name": "_Id",
          "type": "uint256"
        },
        {
          "internalType": "string",
          "name": "_Name",
          "type": "string"
        },
        {
          "internalType": "uint256",
          "name": "_Cost",
          "type": "uint256"
        }
      ],
      "name": "AllItem",
      "outputs": [],
      "stateMutability": "nonpayable",
      "type": "function"
    },
    {
      "inputs": [
        {
          "internalType": "uint256",
          "name": "_Id",
          "type": "uint256"
        }
      ],
      "name": "buy",
      "outputs": [],
      "stateMutability": "payable",
      "type": "function",
      "payable": true
    },
    {
      "inputs": [],
      "name": "view_item",
      "outputs": [
        {
          "internalType": "string[]",
          "name": "",
          "type": "string[]"
        }
      ],
      "stateMutability": "view",
      "type": "function",
      "constant": true
    }
  ],
  "bytecode": "0x608060405234801561001057600080fd5b5033600360006101000a81548173ffffffffffffffffffffffffffffffffffffffff021916908373ffffffffffffffffffffffffffffffffffffffff160217905550610d53806100616000396000f3fe6080604052600436106100555760003560e01c806308551a531461005a57806338a837fc146100855780634ad31188146100ae578063861c91d9146100d95780639097548d14610119578063d96a094a14610156575b600080fd5b34801561006657600080fd5b5061006f610172565b60405161007c91906106e9565b60405180910390f35b34801561009157600080fd5b506100ac60048036038101906100a79190610894565b610198565b005b3480156100ba57600080fd5b506100c36102f6565b6040516100d09190610a4d565b60405180910390f35b3480156100e557600080fd5b5061010060048036038101906100fb9190610a6f565b6103cf565b6040516101109493929190610af5565b60405180910390f35b34801561012557600080fd5b50610140600480360381019061013b9190610a6f565b610497565b60405161014d9190610b41565b60405180910390f35b610170600480360381019061016b9190610a6f565b6104af565b005b600360009054906101000a900473ffffffffffffffffffffffffffffffffffffffff1681565b3373ffffffffffffffffffffffffffffffffffffffff16600360009054906101000a900473ffffffffffffffffffffffffffffffffffffffff1673ffffffffffffffffffffffffffffffffffffffff1614610228576040517f08c379a000000000000000000000000000000000000000000000000000000000815260040161021f90610ba8565b60405180910390fd5b8160016000858152602001908152602001600020908051906020019061024f929190610578565b508060046000858152602001908152602001600020819055506002604051806080016040528084815260200185815260200183815260200142815250908060018154018082558091505060019003906000526020600020906004020160009091909190915060008201518160000190805190602001906102d0929190610578565b506020820151816001015560408201518160020155606082015181600301555050505050565b60606000805480602002602001604051908101604052809291908181526020016000905b828210156103c657838290600052602060002001805461033990610bf7565b80601f016020809104026020016040519081016040528092919081815260200182805461036590610bf7565b80156103b25780601f10610387576101008083540402835291602001916103b2565b820191906000526020600020905b81548152906001019060200180831161039557829003601f168201915b50505050508152602001906001019061031a565b50505050905090565b600281815481106103df57600080fd5b906000526020600020906004020160009150905080600001805461040290610bf7565b80601f016020809104026020016040519081016040528092919081815260200182805461042e90610bf7565b801561047b5780601f106104505761010080835404028352916020019161047b565b820191906000526020600020905b81548152906001019060200180831161045e57829003601f168201915b5050505050908060010154908060020154908060030154905084565b60046020528060005260406000206000915090505481565b6000600460008381526020019081526020016000205490506000670de0b6b3a7640000826104dd9190610c57565b9050348114610521576040517f08c379a000000000000000000000000000000000000000000000000000000000815260040161051890610cfd565b60405180910390fd5b6000600160008581526020019081526020016000209080600181540180825580915050600190039060005260206000200160009091909190915090805461056790610bf7565b6105729291906105fe565b50505050565b82805461058490610bf7565b90600052602060002090601f0160209004810192826105a657600085556105ed565b82601f106105bf57805160ff19168380011785556105ed565b828001600101855582156105ed579182015b828111156105ec5782518255916020019190600101906105d1565b5b5090506105fa919061068b565b5090565b82805461060a90610bf7565b90600052602060002090601f01602090048101928261062c576000855561067a565b82601f1061063d578054855561067a565b8280016001018555821561067a57600052602060002091601f016020900482015b8281111561067957825482559160010191906001019061065e565b5b509050610687919061068b565b5090565b5b808211156106a457600081600090555060010161068c565b5090565b600073ffffffffffffffffffffffffffffffffffffffff82169050919050565b60006106d3826106a8565b9050919050565b6106e3816106c8565b82525050565b60006020820190506106fe60008301846106da565b92915050565b6000604051905090565b600080fd5b600080fd5b6000819050919050565b61072b81610718565b811461073657600080fd5b50565b60008135905061074881610722565b92915050565b600080fd5b600080fd5b6000601f19601f8301169050919050565b7f4e487b7100000000000000000000000000000000000000000000000000000000600052604160045260246000fd5b6107a182610758565b810181811067ffffffffffffffff821117156107c0576107bf610769565b5b80604052505050565b60006107d3610704565b90506107df8282610798565b919050565b600067ffffffffffffffff8211156107ff576107fe610769565b5b61080882610758565b9050602081019050919050565b82818337600083830152505050565b6000610837610832846107e4565b6107c9565b90508281526020810184848401111561085357610852610753565b5b61085e848285610815565b509392505050565b600082601f83011261087b5761087a61074e565b5b813561088b848260208601610824565b91505092915050565b6000806000606084860312156108ad576108ac61070e565b5b60006108bb86828701610739565b935050602084013567ffffffffffffffff8111156108dc576108db610713565b5b6108e886828701610866565b92505060406108f986828701610739565b9150509250925092565b600081519050919050565b600082825260208201905092915050565b6000819050602082019050919050565b600081519050919050565b600082825260208201905092915050565b60005b8381101561096957808201518184015260208101905061094e565b83811115610978576000848401525b50505050565b60006109898261092f565b610993818561093a565b93506109a381856020860161094b565b6109ac81610758565b840191505092915050565b60006109c3838361097e565b905092915050565b6000602082019050919050565b60006109e382610903565b6109ed818561090e565b9350836020820285016109ff8561091f565b8060005b85811015610a3b5784840389528151610a1c85826109b7565b9450610a27836109cb565b925060208a01995050600181019050610a03565b50829750879550505050505092915050565b60006020820190508181036000830152610a6781846109d8565b905092915050565b600060208284031215610a8557610a8461070e565b5b6000610a9384828501610739565b91505092915050565b600082825260208201905092915050565b6000610ab88261092f565b610ac28185610a9c565b9350610ad281856020860161094b565b610adb81610758565b840191505092915050565b610aef81610718565b82525050565b60006080820190508181036000830152610b0f8187610aad565b9050610b1e6020830186610ae6565b610b2b6040830185610ae6565b610b386060830184610ae6565b95945050505050565b6000602082019050610b566000830184610ae6565b92915050565b7f596f7520617265206e6f7420616c6c6f77656420746f20646f20746869732000600082015250565b6000610b92601f83610a9c565b9150610b9d82610b5c565b602082019050919050565b60006020820190508181036000830152610bc181610b85565b9050919050565b7f4e487b7100000000000000000000000000000000000000000000000000000000600052602260045260246000fd5b60006002820490506001821680610c0f57607f821691505b602082108103610c2257610c21610bc8565b5b50919050565b7f4e487b7100000000000000000000000000000000000000000000000000000000600052601160045260246000fd5b6000610c6282610718565b9150610c6d83610718565b9250817fffffffffffffffffffffffffffffffffffffffffffffffffffffffffffffffff0483118215151615610ca657610ca5610c28565b5b828202905092915050565b7f4c65737320737566666963656e7420616d6f756e740000000000000000000000600082015250565b6000610ce7601583610a9c565b9150610cf282610cb1565b602082019050919050565b60006020820190508181036000830152610d1681610cda565b905091905056fea26469706673582212202ca74a27b59ba1cbc49ed73508e7fa85b849adf25355230ea26b8e75bdc1401f64736f6c634300080e0033",
  "immutableReferences": {},
  "source": "// SPDX-License-Identifier: GPL-3.0\n\npragma solidity >=0.7.0 <0.9.0;\n\nstruct selling_item{\n    string Name;\n    uint   Id;\n    uint   Cost;\n    uint   Time;\n}\n\ncontract Marketplace{\n    string[] buyer;\n    mapping(uint=>string) itemlist;\n    selling_item[] public  seling_items;\n    address public seller;\n    mapping(uint=>uint) public cost;\n    constructor(){\n        seller = msg.sender;\n    }\n\n    modifier onlyonwner(){\n        require(seller == msg.sender,\"You are not allowed to do this \");\n        _;\n    }\n\n    function AllItem(uint _Id, string memory _Name ,uint _Cost)  public onlyonwner{\n        itemlist[_Id] =_Name;\n        cost[_Id] = _Cost;\n        seling_items.push(selling_item(_Name,_Id,_Cost,block.timestamp));\n    }\n\n    function buy(uint _Id)  public payable{\n        uint n = cost[_Id];\n        uint cost_eather=(n*10**18);\n        require(cost_eather ==msg.value,\"Less sufficent amount\");\n        buyer.push(itemlist[_Id]);\n    }\n    function view_item() view  public returns(string[]memory){\n        return buyer;\n    }\n\n\n}",
  "sourcePath": "/home/vikash/Desktop/all_git_files/Dapp-World/Development/Marketplace/Truffle/contracts/Marketplace.sol",
  "compiler": {
    "name": "solc",
    "version": "0.8.14+commit.80d49f37.Emscripten.clang"
  },
  "schemaVersion": "3.4.7",
  "updatedAt": "2022-10-02T13:13:59.706Z",
  "networkType": "ethereum",
  "devdoc": {
    "kind": "dev",
    "methods": {},
    "version": 1
  },
  "userdoc": {
    "kind": "user",
    "methods": {},
    "version": 1
  }
}