{
  "contractName": "vote",
  "abi": [
    {
      "inputs": [],
      "stateMutability": "nonpayable",
      "type": "constructor"
    },
    {
      "inputs": [],
      "name": "owner",
      "outputs": [
        {
          "internalType": "address",
          "name": "",
          "type": "address"
        }
      ],
      "stateMutability": "view",
      "type": "function",
      "constant": true
    },
    {
      "inputs": [],
      "name": "participant1",
      "outputs": [
        {
          "internalType": "address",
          "name": "",
          "type": "address"
        }
      ],
      "stateMutability": "view",
      "type": "function",
      "constant": true
    },
    {
      "inputs": [],
      "name": "participant2",
      "outputs": [
        {
          "internalType": "address",
          "name": "",
          "type": "address"
        }
      ],
      "stateMutability": "view",
      "type": "function",
      "constant": true
    },
    {
      "inputs": [],
      "name": "winner",
      "outputs": [
        {
          "internalType": "string",
          "name": "",
          "type": "string"
        }
      ],
      "stateMutability": "view",
      "type": "function",
      "constant": true
    },
    {
      "inputs": [],
      "name": "participant1_vote",
      "outputs": [],
      "stateMutability": "nonpayable",
      "type": "function"
    },
    {
      "inputs": [],
      "name": "participant2_vote",
      "outputs": [],
      "stateMutability": "nonpayable",
      "type": "function"
    },
    {
      "inputs": [],
      "name": "pati1_cnt_VOTE",
      "outputs": [
        {
          "internalType": "uint256",
          "name": "",
          "type": "uint256"
        }
      ],
      "stateMutability": "view",
      "type": "function",
      "constant": true
    },
    {
      "inputs": [],
      "name": "pati2_cnt_VOTE",
      "outputs": [
        {
          "internalType": "uint256",
          "name": "",
          "type": "uint256"
        }
      ],
      "stateMutability": "view",
      "type": "function",
      "constant": true
    },
    {
      "inputs": [],
      "name": "declare_winner",
      "outputs": [],
      "stateMutability": "nonpayable",
      "type": "function"
    }
  ],
  "bytecode": "0x608060405273f6c486b8a4e67b8eff4d5045c804e9be4ed39ff9600160006101000a81548173ffffffffffffffffffffffffffffffffffffffff021916908373ffffffffffffffffffffffffffffffffffffffff16021790555073bbdb2a08711d7b2b9c15318e77b6e026ed8fa278600260006101000a81548173ffffffffffffffffffffffffffffffffffffffff021916908373ffffffffffffffffffffffffffffffffffffffff1602179055503480156100ba57600080fd5b5033600560006101000a81548173ffffffffffffffffffffffffffffffffffffffff021916908373ffffffffffffffffffffffffffffffffffffffff160217905550610ef68061010b6000396000f3fe608060405234801561001057600080fd5b50600436106100935760003560e01c8063d4586a6a11610066578063d4586a6a146100fc578063dc45111c14610106578063dfbf53ae14610124578063e702701f14610142578063f9d5a86e1461016057610093565b806348c10b56146100985780638da5cb5b146100b6578063aecae7dd146100d4578063b71836bd146100f2575b600080fd5b6100a061016a565b6040516100ad9190610af7565b60405180910390f35b6100be6101d3565b6040516100cb9190610b53565b60405180910390f35b6100dc6101f9565b6040516100e99190610af7565b60405180910390f35b6100fa610262565b005b610104610577565b005b61010e61076b565b60405161011b9190610b53565b60405180910390f35b61012c610791565b6040516101399190610c07565b60405180910390f35b61014a61081f565b6040516101579190610b53565b60405180910390f35b610168610845565b005b600060036000600160009054906101000a900473ffffffffffffffffffffffffffffffffffffffff1673ffffffffffffffffffffffffffffffffffffffff1673ffffffffffffffffffffffffffffffffffffffff16815260200190815260200160002054905090565b600560009054906101000a900473ffffffffffffffffffffffffffffffffffffffff1681565b600060036000600260009054906101000a900473ffffffffffffffffffffffffffffffffffffffff1673ffffffffffffffffffffffffffffffffffffffff1673ffffffffffffffffffffffffffffffffffffffff16815260200190815260200160002054905090565b600560009054906101000a900473ffffffffffffffffffffffffffffffffffffffff1673ffffffffffffffffffffffffffffffffffffffff163373ffffffffffffffffffffffffffffffffffffffff16146102f2576040517f08c379a00000000000000000000000000000000000000000000000000000000081526004016102e990610c9b565b60405180910390fd5b60036000600260009054906101000a900473ffffffffffffffffffffffffffffffffffffffff1673ffffffffffffffffffffffffffffffffffffffff1673ffffffffffffffffffffffffffffffffffffffff1681526020019081526020016000205460036000600160009054906101000a900473ffffffffffffffffffffffffffffffffffffffff1673ffffffffffffffffffffffffffffffffffffffff1673ffffffffffffffffffffffffffffffffffffffff16815260200190815260200160002054111561040d576040518060400160405280601581526020017f43616e64696461746520312069732077696e6e6572000000000000000000000081525060009080519060200190610407929190610a3b565b50610575565b60036000600260009054906101000a900473ffffffffffffffffffffffffffffffffffffffff1673ffffffffffffffffffffffffffffffffffffffff1673ffffffffffffffffffffffffffffffffffffffff1681526020019081526020016000205460036000600160009054906101000a900473ffffffffffffffffffffffffffffffffffffffff1673ffffffffffffffffffffffffffffffffffffffff1673ffffffffffffffffffffffffffffffffffffffff1681526020019081526020016000205403610527576040518060400160405280600481526020017f447261770000000000000000000000000000000000000000000000000000000081525060009080519060200190610521929190610a3b565b50610574565b6040518060400160405280601581526020017f43616e64696461746520322069732077696e6e6572000000000000000000000081525060009080519060200190610572929190610a3b565b505b5b565b600160009054906101000a900473ffffffffffffffffffffffffffffffffffffffff1673ffffffffffffffffffffffffffffffffffffffff163373ffffffffffffffffffffffffffffffffffffffff1603610607576040517f08c379a00000000000000000000000000000000000000000000000000000000081526004016105fe90610d07565b60405180910390fd5b60011515600460003373ffffffffffffffffffffffffffffffffffffffff1673ffffffffffffffffffffffffffffffffffffffff16815260200190815260200160002060009054906101000a900460ff1615150361069a576040517f08c379a000000000000000000000000000000000000000000000000000000000815260040161069190610d73565b60405180910390fd5b60036000600160009054906101000a900473ffffffffffffffffffffffffffffffffffffffff1673ffffffffffffffffffffffffffffffffffffffff1673ffffffffffffffffffffffffffffffffffffffff168152602001908152602001600020600081548092919061070c90610dc2565b91905055506001600460003373ffffffffffffffffffffffffffffffffffffffff1673ffffffffffffffffffffffffffffffffffffffff16815260200190815260200160002060006101000a81548160ff021916908315150217905550565b600260009054906101000a900473ffffffffffffffffffffffffffffffffffffffff1681565b6000805461079e90610e39565b80601f01602080910402602001604051908101604052809291908181526020018280546107ca90610e39565b80156108175780601f106107ec57610100808354040283529160200191610817565b820191906000526020600020905b8154815290600101906020018083116107fa57829003601f168201915b505050505081565b600160009054906101000a900473ffffffffffffffffffffffffffffffffffffffff1681565b600260009054906101000a900473ffffffffffffffffffffffffffffffffffffffff1673ffffffffffffffffffffffffffffffffffffffff163373ffffffffffffffffffffffffffffffffffffffff16036108d5576040517f08c379a00000000000000000000000000000000000000000000000000000000081526004016108cc90610d07565b60405180910390fd5b60011515600460003373ffffffffffffffffffffffffffffffffffffffff1673ffffffffffffffffffffffffffffffffffffffff16815260200190815260200160002060009054906101000a900460ff16151503610968576040517f08c379a000000000000000000000000000000000000000000000000000000000815260040161095f90610d73565b60405180910390fd5b600160036000600260009054906101000a900473ffffffffffffffffffffffffffffffffffffffff1673ffffffffffffffffffffffffffffffffffffffff1673ffffffffffffffffffffffffffffffffffffffff16815260200190815260200160002060008282546109da9190610e6a565b925050819055506001600460003373ffffffffffffffffffffffffffffffffffffffff1673ffffffffffffffffffffffffffffffffffffffff16815260200190815260200160002060006101000a81548160ff021916908315150217905550565b828054610a4790610e39565b90600052602060002090601f016020900481019282610a695760008555610ab0565b82601f10610a8257805160ff1916838001178555610ab0565b82800160010185558215610ab0579182015b82811115610aaf578251825591602001919060010190610a94565b5b509050610abd9190610ac1565b5090565b5b80821115610ada576000816000905550600101610ac2565b5090565b6000819050919050565b610af181610ade565b82525050565b6000602082019050610b0c6000830184610ae8565b92915050565b600073ffffffffffffffffffffffffffffffffffffffff82169050919050565b6000610b3d82610b12565b9050919050565b610b4d81610b32565b82525050565b6000602082019050610b686000830184610b44565b92915050565b600081519050919050565b600082825260208201905092915050565b60005b83811015610ba8578082015181840152602081019050610b8d565b83811115610bb7576000848401525b50505050565b6000601f19601f8301169050919050565b6000610bd982610b6e565b610be38185610b79565b9350610bf3818560208601610b8a565b610bfc81610bbd565b840191505092915050565b60006020820190508181036000830152610c218184610bce565b905092915050565b7f596f7520617265206e6f7420616c6c6f77656420746f206465636c617265207460008201527f686520726573756c740000000000000000000000000000000000000000000000602082015250565b6000610c85602983610b79565b9150610c9082610c29565b604082019050919050565b60006020820190508181036000830152610cb481610c78565b9050919050565b7f596f752063616e206e6f7420766f746520746f20796f757273656c6600000000600082015250565b6000610cf1601c83610b79565b9150610cfc82610cbb565b602082019050919050565b60006020820190508181036000830152610d2081610ce4565b9050919050565b7f596f75206861766520616c726561647920766f74656400000000000000000000600082015250565b6000610d5d601683610b79565b9150610d6882610d27565b602082019050919050565b60006020820190508181036000830152610d8c81610d50565b9050919050565b7f4e487b7100000000000000000000000000000000000000000000000000000000600052601160045260246000fd5b6000610dcd82610ade565b91507fffffffffffffffffffffffffffffffffffffffffffffffffffffffffffffffff8203610dff57610dfe610d93565b5b600182019050919050565b7f4e487b7100000000000000000000000000000000000000000000000000000000600052602260045260246000fd5b60006002820490506001821680610e5157607f821691505b602082108103610e6457610e63610e0a565b5b50919050565b6000610e7582610ade565b9150610e8083610ade565b9250827fffffffffffffffffffffffffffffffffffffffffffffffffffffffffffffffff03821115610eb557610eb4610d93565b5b82820190509291505056fea26469706673582212207e192cd3237c8523f0c520a5b0e9d5f922bae87da3839b4a146818d81207e46664736f6c634300080e0033",
  "immutableReferences": {},
  "source": "// SPDX-License-Identifier: GPL-3.0\n\npragma solidity >=0.7.0 <0.9.0;\n\ncontract vote{\n    string public winner;\n    address public  participant1 = 0xF6C486B8A4e67b8eff4d5045C804E9be4ed39FF9;\n    address public  participant2 = 0xBBDb2A08711D7b2b9c15318E77B6e026eD8fA278;\n    mapping(address=>uint) user;\n    mapping(address=>bool) chek;\n\n    address public owner;\n    constructor(){\n        owner = msg.sender;\n    }\n\n    modifier onlyonwner(){\n        require(msg.sender == owner,\"You are not allowed to declare the result\");\n        _;\n    }\n\n    function participant1_vote()  public {\n        require(msg.sender !=participant1,\"You can not vote to yourself\");\n        require(chek[msg.sender]!=true,\"You have already voted\");\n        user[participant1]++;\n        chek[msg.sender] = true;\n    }\n        function participant2_vote()  public {\n        require(msg.sender !=participant2,\"You can not vote to yourself\");\n        require(chek[msg.sender]!=true,\"You have already voted\");\n        user[participant2]+=1;\n        chek[msg.sender] = true;\n    }\n\n    function pati1_cnt_VOTE() view public  returns(uint){\n        return user[participant1];\n\n    }\n\n    function pati2_cnt_VOTE() view public  returns(uint){\n        return user[participant2];\n\n    }\n\n    function declare_winner()  public  onlyonwner {\n        if(user[participant1]>user[participant2]){\n            winner = \"Candidate 1 is winner\";\n            // winner = _winner;\n        }\n        else if(user[participant1]==user[participant2]){\n            winner = \"Draw\";\n            // winner = _winner;\n\n        }\n        else{\n            winner = \"Candidate 2 is winner\";\n            // winner = _winner;\n\n        }\n    }\n\n}",
  "sourcePath": "/home/vikash/Desktop/all_git_files/Web3.0-World/Level0/Voting/Truf/contracts/vote.sol",
  "compiler": {
    "name": "solc",
    "version": "0.8.14+commit.80d49f37.Emscripten.clang"
  },
  "schemaVersion": "3.4.7",
  "updatedAt": "2022-09-11T07:27:21.944Z",
  "networkType": "ethereum",
  "devdoc": {
    "kind": "dev",
    "methods": {},
    "version": 1
  },
  "userdoc": {
    "kind": "user",
    "methods": {},
    "version": 1
  }
}