{
  "contractName": "vote",
  "abi": [
    {
      "inputs": [],
      "stateMutability": "nonpayable",
      "type": "constructor"
    },
    {
      "inputs": [],
      "name": "owner",
      "outputs": [
        {
          "internalType": "address",
          "name": "",
          "type": "address"
        }
      ],
      "stateMutability": "view",
      "type": "function",
      "constant": true
    },
    {
      "inputs": [],
      "name": "participant1",
      "outputs": [
        {
          "internalType": "address",
          "name": "",
          "type": "address"
        }
      ],
      "stateMutability": "view",
      "type": "function",
      "constant": true
    },
    {
      "inputs": [],
      "name": "participant2",
      "outputs": [
        {
          "internalType": "address",
          "name": "",
          "type": "address"
        }
      ],
      "stateMutability": "view",
      "type": "function",
      "constant": true
    },
    {
      "inputs": [],
      "name": "participant1_vote",
      "outputs": [],
      "stateMutability": "nonpayable",
      "type": "function"
    },
    {
      "inputs": [],
      "name": "participant2_vote",
      "outputs": [],
      "stateMutability": "nonpayable",
      "type": "function"
    },
    {
      "inputs": [],
      "name": "pati1_cnt_VOTE",
      "outputs": [
        {
          "internalType": "uint256",
          "name": "",
          "type": "uint256"
        }
      ],
      "stateMutability": "view",
      "type": "function",
      "constant": true
    },
    {
      "inputs": [],
      "name": "pati2_cnt_VOTE",
      "outputs": [
        {
          "internalType": "uint256",
          "name": "",
          "type": "uint256"
        }
      ],
      "stateMutability": "view",
      "type": "function",
      "constant": true
    },
    {
      "inputs": [],
      "name": "declare_winner",
      "outputs": [
        {
          "internalType": "string",
          "name": "",
          "type": "string"
        }
      ],
      "stateMutability": "view",
      "type": "function",
      "constant": true
    }
  ],
  "bytecode": "0x608060405273f6c486b8a4e67b8eff4d5045c804e9be4ed39ff96000806101000a81548173ffffffffffffffffffffffffffffffffffffffff021916908373ffffffffffffffffffffffffffffffffffffffff16021790555073bbdb2a08711d7b2b9c15318e77b6e026ed8fa278600160006101000a81548173ffffffffffffffffffffffffffffffffffffffff021916908373ffffffffffffffffffffffffffffffffffffffff1602179055503480156100b957600080fd5b5033600460006101000a81548173ffffffffffffffffffffffffffffffffffffffff021916908373ffffffffffffffffffffffffffffffffffffffff160217905550610e2e8061010a6000396000f3fe608060405234801561001057600080fd5b50600436106100885760003560e01c8063d4586a6a1161005b578063d4586a6a14610105578063dc45111c1461010f578063e702701f1461012d578063f9d5a86e1461014b57610088565b806348c10b561461008d5780638da5cb5b146100ab578063aecae7dd146100c9578063b71836bd146100e7575b600080fd5b610095610155565b6040516100a29190610a8f565b60405180910390f35b6100b361024d565b6040516100c09190610aeb565b60405180910390f35b6100d1610273565b6040516100de9190610a8f565b60405180910390f35b6100ef61036c565b6040516100fc9190610b9f565b60405180910390f35b61010d610645565b005b610117610836565b6040516101249190610aeb565b60405180910390f35b61013561085c565b6040516101429190610aeb565b60405180910390f35b610153610880565b005b60003373ffffffffffffffffffffffffffffffffffffffff16600460009054906101000a900473ffffffffffffffffffffffffffffffffffffffff1673ffffffffffffffffffffffffffffffffffffffff16146101e7576040517f08c379a00000000000000000000000000000000000000000000000000000000081526004016101de90610c33565b60405180910390fd5b600260008060009054906101000a900473ffffffffffffffffffffffffffffffffffffffff1673ffffffffffffffffffffffffffffffffffffffff1673ffffffffffffffffffffffffffffffffffffffff16815260200190815260200160002054905090565b600460009054906101000a900473ffffffffffffffffffffffffffffffffffffffff1681565b60003373ffffffffffffffffffffffffffffffffffffffff16600460009054906101000a900473ffffffffffffffffffffffffffffffffffffffff1673ffffffffffffffffffffffffffffffffffffffff1614610305576040517f08c379a00000000000000000000000000000000000000000000000000000000081526004016102fc90610c33565b60405180910390fd5b60026000600160009054906101000a900473ffffffffffffffffffffffffffffffffffffffff1673ffffffffffffffffffffffffffffffffffffffff1673ffffffffffffffffffffffffffffffffffffffff16815260200190815260200160002054905090565b60603373ffffffffffffffffffffffffffffffffffffffff16600460009054906101000a900473ffffffffffffffffffffffffffffffffffffffff1673ffffffffffffffffffffffffffffffffffffffff16146103fe576040517f08c379a00000000000000000000000000000000000000000000000000000000081526004016103f590610c33565b60405180910390fd5b60026000600160009054906101000a900473ffffffffffffffffffffffffffffffffffffffff1673ffffffffffffffffffffffffffffffffffffffff1673ffffffffffffffffffffffffffffffffffffffff16815260200190815260200160002054600260008060009054906101000a900473ffffffffffffffffffffffffffffffffffffffff1673ffffffffffffffffffffffffffffffffffffffff1673ffffffffffffffffffffffffffffffffffffffff168152602001908152602001600020541115610504576040518060400160405280601881526020017f50617274636970616e7431206973207769696e657220212100000000000000008152509050610642565b60026000600160009054906101000a900473ffffffffffffffffffffffffffffffffffffffff1673ffffffffffffffffffffffffffffffffffffffff1673ffffffffffffffffffffffffffffffffffffffff16815260200190815260200160002054600260008060009054906101000a900473ffffffffffffffffffffffffffffffffffffffff1673ffffffffffffffffffffffffffffffffffffffff1673ffffffffffffffffffffffffffffffffffffffff1681526020019081526020016000205403610609576040518060400160405280601e81526020017f426f746820746865207061727469636970616e742061726520657175616c00008152509050610642565b6040518060400160405280601781526020017f5061727469636970616e7420322069732077696e656e7200000000000000000081525090505b90565b60008054906101000a900473ffffffffffffffffffffffffffffffffffffffff1673ffffffffffffffffffffffffffffffffffffffff163373ffffffffffffffffffffffffffffffffffffffff16036106d3576040517f08c379a00000000000000000000000000000000000000000000000000000000081526004016106ca90610c9f565b60405180910390fd5b60011515600360003373ffffffffffffffffffffffffffffffffffffffff1673ffffffffffffffffffffffffffffffffffffffff16815260200190815260200160002060009054906101000a900460ff16151503610766576040517f08c379a000000000000000000000000000000000000000000000000000000000815260040161075d90610d0b565b60405180910390fd5b600260008060009054906101000a900473ffffffffffffffffffffffffffffffffffffffff1673ffffffffffffffffffffffffffffffffffffffff1673ffffffffffffffffffffffffffffffffffffffff16815260200190815260200160002060008154809291906107d790610d5a565b91905055506001600360003373ffffffffffffffffffffffffffffffffffffffff1673ffffffffffffffffffffffffffffffffffffffff16815260200190815260200160002060006101000a81548160ff021916908315150217905550565b600160009054906101000a900473ffffffffffffffffffffffffffffffffffffffff1681565b60008054906101000a900473ffffffffffffffffffffffffffffffffffffffff1681565b600160009054906101000a900473ffffffffffffffffffffffffffffffffffffffff1673ffffffffffffffffffffffffffffffffffffffff163373ffffffffffffffffffffffffffffffffffffffff1603610910576040517f08c379a000000000000000000000000000000000000000000000000000000000815260040161090790610c9f565b60405180910390fd5b60011515600360003373ffffffffffffffffffffffffffffffffffffffff1673ffffffffffffffffffffffffffffffffffffffff16815260200190815260200160002060009054906101000a900460ff161515036109a3576040517f08c379a000000000000000000000000000000000000000000000000000000000815260040161099a90610d0b565b60405180910390fd5b600160026000600160009054906101000a900473ffffffffffffffffffffffffffffffffffffffff1673ffffffffffffffffffffffffffffffffffffffff1673ffffffffffffffffffffffffffffffffffffffff1681526020019081526020016000206000828254610a159190610da2565b925050819055506001600360003373ffffffffffffffffffffffffffffffffffffffff1673ffffffffffffffffffffffffffffffffffffffff16815260200190815260200160002060006101000a81548160ff021916908315150217905550565b6000819050919050565b610a8981610a76565b82525050565b6000602082019050610aa46000830184610a80565b92915050565b600073ffffffffffffffffffffffffffffffffffffffff82169050919050565b6000610ad582610aaa565b9050919050565b610ae581610aca565b82525050565b6000602082019050610b006000830184610adc565b92915050565b600081519050919050565b600082825260208201905092915050565b60005b83811015610b40578082015181840152602081019050610b25565b83811115610b4f576000848401525b50505050565b6000601f19601f8301169050919050565b6000610b7182610b06565b610b7b8185610b11565b9350610b8b818560208601610b22565b610b9481610b55565b840191505092915050565b60006020820190508181036000830152610bb98184610b66565b905092915050565b7f596f7520617265206e6f7420616c6c6f77656420746f206465636c617265207460008201527f686520726573756c740000000000000000000000000000000000000000000000602082015250565b6000610c1d602983610b11565b9150610c2882610bc1565b604082019050919050565b60006020820190508181036000830152610c4c81610c10565b9050919050565b7f596f752063616e206e6f7420766f746520746f20796f757273656c6600000000600082015250565b6000610c89601c83610b11565b9150610c9482610c53565b602082019050919050565b60006020820190508181036000830152610cb881610c7c565b9050919050565b7f596f75206861766520616c726561647920766f74656400000000000000000000600082015250565b6000610cf5601683610b11565b9150610d0082610cbf565b602082019050919050565b60006020820190508181036000830152610d2481610ce8565b9050919050565b7f4e487b7100000000000000000000000000000000000000000000000000000000600052601160045260246000fd5b6000610d6582610a76565b91507fffffffffffffffffffffffffffffffffffffffffffffffffffffffffffffffff8203610d9757610d96610d2b565b5b600182019050919050565b6000610dad82610a76565b9150610db883610a76565b9250827fffffffffffffffffffffffffffffffffffffffffffffffffffffffffffffffff03821115610ded57610dec610d2b565b5b82820190509291505056fea26469706673582212204705d9dbeb707155076737090aa3ec959df0da8adf3599f308724ac2b13a7c2764736f6c634300080e0033",
  "immutableReferences": {},
  "source": "// SPDX-License-Identifier: GPL-3.0\n\npragma solidity >=0.7.0 <0.9.0;\n\ncontract vote{\n    address public  participant1 = 0xF6C486B8A4e67b8eff4d5045C804E9be4ed39FF9;\n    address public  participant2 = 0xBBDb2A08711D7b2b9c15318E77B6e026eD8fA278;\n    mapping(address=>uint) user;\n    mapping(address=>bool) chek;\n\n    address public owner;\n    constructor(){\n        owner = msg.sender;\n    }\n\n    modifier onlyonwner(){\n        require(owner == msg.sender,\"You are not allowed to declare the result\");\n        _;\n    }\n\n    function participant1_vote()  public {\n        require(msg.sender !=participant1,\"You can not vote to yourself\");\n        require(chek[msg.sender]!=true,\"You have already voted\");\n        user[participant1]++;\n        chek[msg.sender] = true;\n    }\n        function participant2_vote()  public {\n        require(msg.sender !=participant2,\"You can not vote to yourself\");\n        require(chek[msg.sender]!=true,\"You have already voted\");\n        user[participant2]+=1;\n        chek[msg.sender] = true;\n    }\n\n    function pati1_cnt_VOTE() view public onlyonwner returns(uint){\n        return user[participant1];\n\n    }\n\n    function pati2_cnt_VOTE() view public onlyonwner returns(uint){\n        return user[participant2];\n\n    }\n\n    function declare_winner() view public  onlyonwner returns(string memory){\n        if(user[participant1]>user[participant2]){\n            return (\"Partcipant1 is wiiner !!\");\n        }\n        else if(user[participant1]==user[participant2]){\n            return(\"Both the participant are equal\");\n        }\n        else{\n            return (\"Participant 2 is winenr\");\n        }\n    }\n\n}",
  "sourcePath": "/home/vikash/Desktop/Scaller/WEB3/Voting/Truf/contracts/Voting.sol",
  "compiler": {
    "name": "solc",
    "version": "0.8.14+commit.80d49f37.Emscripten.clang"
  },
  "schemaVersion": "3.4.7",
  "updatedAt": "2022-06-21T07:42:14.530Z",
  "networkType": "ethereum",
  "devdoc": {
    "kind": "dev",
    "methods": {},
    "version": 1
  },
  "userdoc": {
    "kind": "user",
    "methods": {},
    "version": 1
  }
}