{
  "_format": "hh-sol-artifact-1",
  "contractName": "Web3fy",
  "sourceName": "contracts/Web3fy.sol",
  "abi": [
    {
      "inputs": [],
      "stateMutability": "nonpayable",
      "type": "constructor"
    },
    {
      "anonymous": false,
      "inputs": [
        {
          "indexed": true,
          "internalType": "address",
          "name": "owner",
          "type": "address"
        },
        {
          "indexed": true,
          "internalType": "address",
          "name": "approved",
          "type": "address"
        },
        {
          "indexed": true,
          "internalType": "uint256",
          "name": "tokenId",
          "type": "uint256"
        }
      ],
      "name": "Approval",
      "type": "event"
    },
    {
      "anonymous": false,
      "inputs": [
        {
          "indexed": true,
          "internalType": "address",
          "name": "owner",
          "type": "address"
        },
        {
          "indexed": true,
          "internalType": "address",
          "name": "operator",
          "type": "address"
        },
        {
          "indexed": false,
          "internalType": "bool",
          "name": "approved",
          "type": "bool"
        }
      ],
      "name": "ApprovalForAll",
      "type": "event"
    },
    {
      "anonymous": false,
      "inputs": [
        {
          "indexed": true,
          "internalType": "address",
          "name": "previousOwner",
          "type": "address"
        },
        {
          "indexed": true,
          "internalType": "address",
          "name": "newOwner",
          "type": "address"
        }
      ],
      "name": "OwnershipTransferred",
      "type": "event"
    },
    {
      "anonymous": false,
      "inputs": [
        {
          "indexed": false,
          "internalType": "string",
          "name": "token",
          "type": "string"
        }
      ],
      "name": "Show",
      "type": "event"
    },
    {
      "anonymous": false,
      "inputs": [
        {
          "indexed": true,
          "internalType": "address",
          "name": "from",
          "type": "address"
        },
        {
          "indexed": true,
          "internalType": "address",
          "name": "to",
          "type": "address"
        },
        {
          "indexed": true,
          "internalType": "uint256",
          "name": "tokenId",
          "type": "uint256"
        }
      ],
      "name": "Transfer",
      "type": "event"
    },
    {
      "inputs": [
        {
          "internalType": "uint256",
          "name": "_id",
          "type": "uint256"
        },
        {
          "internalType": "string",
          "name": "_txHash",
          "type": "string"
        }
      ],
      "name": "addTxHash",
      "outputs": [],
      "stateMutability": "nonpayable",
      "type": "function"
    },
    {
      "inputs": [
        {
          "internalType": "address",
          "name": "to",
          "type": "address"
        },
        {
          "internalType": "uint256",
          "name": "tokenId",
          "type": "uint256"
        }
      ],
      "name": "approve",
      "outputs": [],
      "stateMutability": "nonpayable",
      "type": "function"
    },
    {
      "inputs": [
        {
          "internalType": "address",
          "name": "owner",
          "type": "address"
        }
      ],
      "name": "balanceOf",
      "outputs": [
        {
          "internalType": "uint256",
          "name": "",
          "type": "uint256"
        }
      ],
      "stateMutability": "view",
      "type": "function"
    },
    {
      "inputs": [
        {
          "internalType": "uint256",
          "name": "",
          "type": "uint256"
        }
      ],
      "name": "domains",
      "outputs": [
        {
          "internalType": "string",
          "name": "name",
          "type": "string"
        },
        {
          "internalType": "uint256",
          "name": "cost",
          "type": "uint256"
        },
        {
          "internalType": "bool",
          "name": "isOwned",
          "type": "bool"
        },
        {
          "internalType": "string",
          "name": "txHash",
          "type": "string"
        }
      ],
      "stateMutability": "view",
      "type": "function"
    },
    {
      "inputs": [
        {
          "internalType": "uint256",
          "name": "tokenId",
          "type": "uint256"
        }
      ],
      "name": "getApproved",
      "outputs": [
        {
          "internalType": "address",
          "name": "",
          "type": "address"
        }
      ],
      "stateMutability": "view",
      "type": "function"
    },
    {
      "inputs": [],
      "name": "getBalance",
      "outputs": [
        {
          "internalType": "uint256",
          "name": "",
          "type": "uint256"
        }
      ],
      "stateMutability": "view",
      "type": "function"
    },
    {
      "inputs": [
        {
          "internalType": "uint256",
          "name": "_id",
          "type": "uint256"
        }
      ],
      "name": "getDomain",
      "outputs": [
        {
          "components": [
            {
              "internalType": "string",
              "name": "name",
              "type": "string"
            },
            {
              "internalType": "uint256",
              "name": "cost",
              "type": "uint256"
            },
            {
              "internalType": "bool",
              "name": "isOwned",
              "type": "bool"
            },
            {
              "internalType": "string",
              "name": "txHash",
              "type": "string"
            }
          ],
          "internalType": "struct Web3fy.Domain",
          "name": "",
          "type": "tuple"
        }
      ],
      "stateMutability": "view",
      "type": "function"
    },
    {
      "inputs": [
        {
          "internalType": "address",
          "name": "owner",
          "type": "address"
        },
        {
          "internalType": "address",
          "name": "operator",
          "type": "address"
        }
      ],
      "name": "isApprovedForAll",
      "outputs": [
        {
          "internalType": "bool",
          "name": "",
          "type": "bool"
        }
      ],
      "stateMutability": "view",
      "type": "function"
    },
    {
      "inputs": [
        {
          "internalType": "string",
          "name": "_name",
          "type": "string"
        },
        {
          "internalType": "uint256",
          "name": "_cost",
          "type": "uint256"
        }
      ],
      "name": "list",
      "outputs": [],
      "stateMutability": "nonpayable",
      "type": "function"
    },
    {
      "inputs": [],
      "name": "maxSupply",
      "outputs": [
        {
          "internalType": "uint256",
          "name": "",
          "type": "uint256"
        }
      ],
      "stateMutability": "view",
      "type": "function"
    },
    {
      "inputs": [
        {
          "internalType": "uint256",
          "name": "_id",
          "type": "uint256"
        }
      ],
      "name": "mint",
      "outputs": [],
      "stateMutability": "payable",
      "type": "function"
    },
    {
      "inputs": [],
      "name": "name",
      "outputs": [
        {
          "internalType": "string",
          "name": "",
          "type": "string"
        }
      ],
      "stateMutability": "view",
      "type": "function"
    },
    {
      "inputs": [],
      "name": "owner",
      "outputs": [
        {
          "internalType": "address",
          "name": "",
          "type": "address"
        }
      ],
      "stateMutability": "view",
      "type": "function"
    },
    {
      "inputs": [
        {
          "internalType": "uint256",
          "name": "tokenId",
          "type": "uint256"
        }
      ],
      "name": "ownerOf",
      "outputs": [
        {
          "internalType": "address",
          "name": "",
          "type": "address"
        }
      ],
      "stateMutability": "view",
      "type": "function"
    },
    {
      "inputs": [],
      "name": "renounceOwnership",
      "outputs": [],
      "stateMutability": "nonpayable",
      "type": "function"
    },
    {
      "inputs": [
        {
          "internalType": "address",
          "name": "from",
          "type": "address"
        },
        {
          "internalType": "address",
          "name": "to",
          "type": "address"
        },
        {
          "internalType": "uint256",
          "name": "tokenId",
          "type": "uint256"
        }
      ],
      "name": "safeTransferFrom",
      "outputs": [],
      "stateMutability": "nonpayable",
      "type": "function"
    },
    {
      "inputs": [
        {
          "internalType": "address",
          "name": "from",
          "type": "address"
        },
        {
          "internalType": "address",
          "name": "to",
          "type": "address"
        },
        {
          "internalType": "uint256",
          "name": "tokenId",
          "type": "uint256"
        },
        {
          "internalType": "bytes",
          "name": "data",
          "type": "bytes"
        }
      ],
      "name": "safeTransferFrom",
      "outputs": [],
      "stateMutability": "nonpayable",
      "type": "function"
    },
    {
      "inputs": [
        {
          "internalType": "address",
          "name": "operator",
          "type": "address"
        },
        {
          "internalType": "bool",
          "name": "approved",
          "type": "bool"
        }
      ],
      "name": "setApprovalForAll",
      "outputs": [],
      "stateMutability": "nonpayable",
      "type": "function"
    },
    {
      "inputs": [
        {
          "internalType": "bytes4",
          "name": "interfaceId",
          "type": "bytes4"
        }
      ],
      "name": "supportsInterface",
      "outputs": [
        {
          "internalType": "bool",
          "name": "",
          "type": "bool"
        }
      ],
      "stateMutability": "view",
      "type": "function"
    },
    {
      "inputs": [],
      "name": "symbol",
      "outputs": [
        {
          "internalType": "string",
          "name": "",
          "type": "string"
        }
      ],
      "stateMutability": "view",
      "type": "function"
    },
    {
      "inputs": [
        {
          "internalType": "uint256",
          "name": "tokenId",
          "type": "uint256"
        }
      ],
      "name": "tokenURI",
      "outputs": [
        {
          "internalType": "string",
          "name": "",
          "type": "string"
        }
      ],
      "stateMutability": "view",
      "type": "function"
    },
    {
      "inputs": [],
      "name": "totalSupply",
      "outputs": [
        {
          "internalType": "uint256",
          "name": "",
          "type": "uint256"
        }
      ],
      "stateMutability": "view",
      "type": "function"
    },
    {
      "inputs": [
        {
          "internalType": "address",
          "name": "from",
          "type": "address"
        },
        {
          "internalType": "address",
          "name": "to",
          "type": "address"
        },
        {
          "internalType": "uint256",
          "name": "tokenId",
          "type": "uint256"
        }
      ],
      "name": "transferFrom",
      "outputs": [],
      "stateMutability": "nonpayable",
      "type": "function"
    },
    {
      "inputs": [
        {
          "internalType": "address",
          "name": "newOwner",
          "type": "address"
        }
      ],
      "name": "transferOwnership",
      "outputs": [],
      "stateMutability": "nonpayable",
      "type": "function"
    },
    {
      "inputs": [],
      "name": "withdraw",
      "outputs": [
        {
          "internalType": "bool",
          "name": "",
          "type": "bool"
        }
      ],
      "stateMutability": "nonpayable",
      "type": "function"
    }
  ],
  "bytecode": "0x60806040526040518061072001604052806106e48152602001620043446106e49139600b908162000031919062000485565b506040518060400160405280601981526020017f3c2f747370616e3e3c2f746578743e3c2f673e3c2f7376673e00000000000000815250600c908162000078919062000485565b503480156200008657600080fd5b506040518060400160405280600681526020017f57656233667900000000000000000000000000000000000000000000000000008152506040518060400160405280600281526020017f465900000000000000000000000000000000000000000000000000000000000081525062000113620001076200013f60201b60201c565b6200014760201b60201c565b816001908162000124919062000485565b50806002908162000136919062000485565b5050506200056c565b600033905090565b60008060009054906101000a900473ffffffffffffffffffffffffffffffffffffffff169050816000806101000a81548173ffffffffffffffffffffffffffffffffffffffff021916908373ffffffffffffffffffffffffffffffffffffffff1602179055508173ffffffffffffffffffffffffffffffffffffffff168173ffffffffffffffffffffffffffffffffffffffff167f8be0079c531659141344cd1fd0a4f28419497f9722a3daafe3b4186f6b6457e060405160405180910390a35050565b600081519050919050565b7f4e487b7100000000000000000000000000000000000000000000000000000000600052604160045260246000fd5b7f4e487b7100000000000000000000000000000000000000000000000000000000600052602260045260246000fd5b600060028204905060018216806200028d57607f821691505b602082108103620002a357620002a262000245565b5b50919050565b60008190508160005260206000209050919050565b60006020601f8301049050919050565b600082821b905092915050565b6000600883026200030d7fffffffffffffffffffffffffffffffffffffffffffffffffffffffffffffffff82620002ce565b620003198683620002ce565b95508019841693508086168417925050509392505050565b6000819050919050565b6000819050919050565b600062000366620003606200035a8462000331565b6200033b565b62000331565b9050919050565b6000819050919050565b620003828362000345565b6200039a62000391826200036d565b848454620002db565b825550505050565b600090565b620003b1620003a2565b620003be81848462000377565b505050565b5b81811015620003e657620003da600082620003a7565b600181019050620003c4565b5050565b601f8211156200043557620003ff81620002a9565b6200040a84620002be565b810160208510156200041a578190505b620004326200042985620002be565b830182620003c3565b50505b505050565b600082821c905092915050565b60006200045a600019846008026200043a565b1980831691505092915050565b600062000475838362000447565b9150826002028217905092915050565b62000490826200020b565b67ffffffffffffffff811115620004ac57620004ab62000216565b5b620004b8825462000274565b620004c5828285620003ea565b600060209050601f831160018114620004fd5760008415620004e8578287015190505b620004f4858262000467565b86555062000564565b601f1984166200050d86620002a9565b60005b82811015620005375784890151825560018201915060208501945060208101905062000510565b8683101562000557578489015162000553601f89168262000447565b8355505b6001600288020188555050505b505050505050565b613dc8806200057c6000396000f3fe6080604052600436106101665760003560e01c806366cf8fab116100d1578063a0712d681161008a578063c87b56dd11610064578063c87b56dd14610530578063d5abeb011461056d578063e985e9c514610598578063f2fde38b146105d557610166565b8063a0712d68146104c2578063a22cb465146104de578063b88d4fde1461050757610166565b806366cf8fab146103af57806370a08231146103ef578063715018a61461042c5780638da5cb5b1461044357806392fa32281461046e57806395d89b411461049757610166565b80631a7a98e2116101235780631a7a98e21461028f57806323b872dd146102cc5780633ccfd60b146102f557806342842e0e146103205780634a878dfa146103495780636352211e1461037257610166565b806301ffc9a71461016b57806306fdde03146101a8578063081812fc146101d3578063095ea7b31461021057806312065fe01461023957806318160ddd14610264575b600080fd5b34801561017757600080fd5b50610192600480360381019061018d91906125ed565b6105fe565b60405161019f9190612635565b60405180910390f35b3480156101b457600080fd5b506101bd6106e0565b6040516101ca91906126e0565b60405180910390f35b3480156101df57600080fd5b506101fa60048036038101906101f59190612738565b610772565b60405161020791906127a6565b60405180910390f35b34801561021c57600080fd5b50610237600480360381019061023291906127ed565b6107b8565b005b34801561024557600080fd5b5061024e6108cf565b60405161025b919061283c565b60405180910390f35b34801561027057600080fd5b506102796108d7565b604051610286919061283c565b60405180910390f35b34801561029b57600080fd5b506102b660048036038101906102b19190612738565b6108dd565b6040516102c39190612929565b60405180910390f35b3480156102d857600080fd5b506102f360048036038101906102ee919061294b565b610a53565b005b34801561030157600080fd5b5061030a610ab3565b6040516103179190612635565b60405180910390f35b34801561032c57600080fd5b506103476004803603810190610342919061294b565b610b0b565b005b34801561035557600080fd5b50610370600480360381019061036b9190612ad3565b610b2b565b005b34801561037e57600080fd5b5061039960048036038101906103949190612738565b610ba3565b6040516103a691906127a6565b60405180910390f35b3480156103bb57600080fd5b506103d660048036038101906103d19190612738565b610c29565b6040516103e69493929190612b2f565b60405180910390f35b3480156103fb57600080fd5b5061041660048036038101906104119190612b82565b610d76565b604051610423919061283c565b60405180910390f35b34801561043857600080fd5b50610441610e2d565b005b34801561044f57600080fd5b50610458610e41565b60405161046591906127a6565b60405180910390f35b34801561047a57600080fd5b5061049560048036038101906104909190612baf565b610e6a565b005b3480156104a357600080fd5b506104ac610e92565b6040516104b991906126e0565b60405180910390f35b6104dc60048036038101906104d79190612738565b610f24565b005b3480156104ea57600080fd5b5061050560048036038101906105009190612c37565b6110c1565b005b34801561051357600080fd5b5061052e60048036038101906105299190612d18565b6110d7565b005b34801561053c57600080fd5b5061055760048036038101906105529190612738565b611139565b60405161056491906126e0565b60405180910390f35b34801561057957600080fd5b5061058261124b565b60405161058f919061283c565b60405180910390f35b3480156105a457600080fd5b506105bf60048036038101906105ba9190612d9b565b611251565b6040516105cc9190612635565b60405180910390f35b3480156105e157600080fd5b506105fc60048036038101906105f79190612b82565b6112e5565b005b60007f80ac58cd000000000000000000000000000000000000000000000000000000007bffffffffffffffffffffffffffffffffffffffffffffffffffffffff1916827bffffffffffffffffffffffffffffffffffffffffffffffffffffffff191614806106c957507f5b5e139f000000000000000000000000000000000000000000000000000000007bffffffffffffffffffffffffffffffffffffffffffffffffffffffff1916827bffffffffffffffffffffffffffffffffffffffffffffffffffffffff1916145b806106d957506106d882611368565b5b9050919050565b6060600180546106ef90612e0a565b80601f016020809104026020016040519081016040528092919081815260200182805461071b90612e0a565b80156107685780601f1061073d57610100808354040283529160200191610768565b820191906000526020600020905b81548152906001019060200180831161074b57829003601f168201915b5050505050905090565b600061077d826113d2565b6005600083815260200190815260200160002060009054906101000a900473ffffffffffffffffffffffffffffffffffffffff169050919050565b60006107c382610ba3565b90508073ffffffffffffffffffffffffffffffffffffffff168373ffffffffffffffffffffffffffffffffffffffff1603610833576040517f08c379a000000000000000000000000000000000000000000000000000000000815260040161082a90612ead565b60405180910390fd5b8073ffffffffffffffffffffffffffffffffffffffff1661085261141d565b73ffffffffffffffffffffffffffffffffffffffff16148061088157506108808161087b61141d565b611251565b5b6108c0576040517f08c379a00000000000000000000000000000000000000000000000000000000081526004016108b790612f3f565b60405180910390fd5b6108ca8383611425565b505050565b600047905090565b60095481565b6108e5612557565b600a600083815260200190815260200160002060405180608001604052908160008201805461091390612e0a565b80601f016020809104026020016040519081016040528092919081815260200182805461093f90612e0a565b801561098c5780601f106109615761010080835404028352916020019161098c565b820191906000526020600020905b81548152906001019060200180831161096f57829003601f168201915b50505050508152602001600182015481526020016002820160009054906101000a900460ff161515151581526020016003820180546109ca90612e0a565b80601f01602080910402602001604051908101604052809291908181526020018280546109f690612e0a565b8015610a435780601f10610a1857610100808354040283529160200191610a43565b820191906000526020600020905b815481529060010190602001808311610a2657829003601f168201915b5050505050815250509050919050565b610a64610a5e61141d565b826114de565b610aa3576040517f08c379a0000000000000000000000000000000000000000000000000000000008152600401610a9a90612fd1565b60405180910390fd5b610aae838383611573565b505050565b6000610abd61186c565b3373ffffffffffffffffffffffffffffffffffffffff166108fc479081150290604051600060405180830381858888f19350505050158015610b03573d6000803e3d6000fd5b506001905090565b610b26838383604051806020016040528060008152506110d7565b505050565b610b3361186c565b600160086000828254610b469190613020565b925050819055506000600a60006008548152602001908152602001600020905082816000019081610b779190613200565b5081816001018190555060008160020160006101000a81548160ff021916908315150217905550505050565b600080610baf836118ea565b9050600073ffffffffffffffffffffffffffffffffffffffff168173ffffffffffffffffffffffffffffffffffffffff1603610c20576040517f08c379a0000000000000000000000000000000000000000000000000000000008152600401610c179061331e565b60405180910390fd5b80915050919050565b600a602052806000526040600020600091509050806000018054610c4c90612e0a565b80601f0160208091040260200160405190810160405280929190818152602001828054610c7890612e0a565b8015610cc55780601f10610c9a57610100808354040283529160200191610cc5565b820191906000526020600020905b815481529060010190602001808311610ca857829003601f168201915b5050505050908060010154908060020160009054906101000a900460ff1690806003018054610cf390612e0a565b80601f0160208091040260200160405190810160405280929190818152602001828054610d1f90612e0a565b8015610d6c5780601f10610d4157610100808354040283529160200191610d6c565b820191906000526020600020905b815481529060010190602001808311610d4f57829003601f168201915b5050505050905084565b60008073ffffffffffffffffffffffffffffffffffffffff168273ffffffffffffffffffffffffffffffffffffffff1603610de6576040517f08c379a0000000000000000000000000000000000000000000000000000000008152600401610ddd906133b0565b60405180910390fd5b600460008373ffffffffffffffffffffffffffffffffffffffff1673ffffffffffffffffffffffffffffffffffffffff168152602001908152602001600020549050919050565b610e3561186c565b610e3f6000611927565b565b60008060009054906101000a900473ffffffffffffffffffffffffffffffffffffffff16905090565b80600a60008481526020019081526020016000206003019081610e8d9190613200565b505050565b606060028054610ea190612e0a565b80601f0160208091040260200160405190810160405280929190818152602001828054610ecd90612e0a565b8015610f1a5780601f10610eef57610100808354040283529160200191610f1a565b820191906000526020600020905b815481529060010190602001808311610efd57829003601f168201915b5050505050905090565b60001515600a600083815260200190815260200160002060020160009054906101000a900460ff16151514610f5857600080fd5b600a600082815260200190815260200160002060010154341015610f7b57600080fd5b6001600a600083815260200190815260200160002060020160006101000a81548160ff02191690831515021790555060096000815480929190610fbd906133d0565b9190505550610fcc33826119eb565b6000600b600a6000848152602001908152602001600020600001600c604051602001610ffa939291906134a6565b60405160208183030381529060405290506000611054600a600085815260200190815260200160002060000161102f84611c08565b604051602001611040929190613638565b604051602081830303815290604052611c08565b905060008160405160200161106991906136c9565b60405160208183030381529060405290506110848482611d6b565b7f8db0cb2176630cd113b328e3ae8baf782a5cc873631da517d9bf8a72416e4289816040516110b391906126e0565b60405180910390a150505050565b6110d36110cc61141d565b8383611dd8565b5050565b6110e86110e261141d565b836114de565b611127576040517f08c379a000000000000000000000000000000000000000000000000000000000815260040161111e90612fd1565b60405180910390fd5b61113384848484611f44565b50505050565b6060611144826113d2565b600060076000848152602001908152602001600020805461116490612e0a565b80601f016020809104026020016040519081016040528092919081815260200182805461119090612e0a565b80156111dd5780601f106111b2576101008083540402835291602001916111dd565b820191906000526020600020905b8154815290600101906020018083116111c057829003601f168201915b5050505050905060006111ee611fa0565b90506000815103611203578192505050611246565b6000825111156112385780826040516020016112209291906136eb565b60405160208183030381529060405292505050611246565b61124184611fb7565b925050505b919050565b60085481565b6000600660008473ffffffffffffffffffffffffffffffffffffffff1673ffffffffffffffffffffffffffffffffffffffff16815260200190815260200160002060008373ffffffffffffffffffffffffffffffffffffffff1673ffffffffffffffffffffffffffffffffffffffff16815260200190815260200160002060009054906101000a900460ff16905092915050565b6112ed61186c565b600073ffffffffffffffffffffffffffffffffffffffff168173ffffffffffffffffffffffffffffffffffffffff160361135c576040517f08c379a000000000000000000000000000000000000000000000000000000000815260040161135390613781565b60405180910390fd5b61136581611927565b50565b60007f01ffc9a7000000000000000000000000000000000000000000000000000000007bffffffffffffffffffffffffffffffffffffffffffffffffffffffff1916827bffffffffffffffffffffffffffffffffffffffffffffffffffffffff1916149050919050565b6113db8161201f565b61141a576040517f08c379a00000000000000000000000000000000000000000000000000000000081526004016114119061331e565b60405180910390fd5b50565b600033905090565b816005600083815260200190815260200160002060006101000a81548173ffffffffffffffffffffffffffffffffffffffff021916908373ffffffffffffffffffffffffffffffffffffffff160217905550808273ffffffffffffffffffffffffffffffffffffffff1661149883610ba3565b73ffffffffffffffffffffffffffffffffffffffff167f8c5be1e5ebec7d5bd14f71427d1e84f3dd0314c0f7b2291e5b200ac8c7c3b92560405160405180910390a45050565b6000806114ea83610ba3565b90508073ffffffffffffffffffffffffffffffffffffffff168473ffffffffffffffffffffffffffffffffffffffff16148061152c575061152b8185611251565b5b8061156a57508373ffffffffffffffffffffffffffffffffffffffff1661155284610772565b73ffffffffffffffffffffffffffffffffffffffff16145b91505092915050565b8273ffffffffffffffffffffffffffffffffffffffff1661159382610ba3565b73ffffffffffffffffffffffffffffffffffffffff16146115e9576040517f08c379a00000000000000000000000000000000000000000000000000000000081526004016115e090613813565b60405180910390fd5b600073ffffffffffffffffffffffffffffffffffffffff168273ffffffffffffffffffffffffffffffffffffffff1603611658576040517f08c379a000000000000000000000000000000000000000000000000000000000815260040161164f906138a5565b60405180910390fd5b6116658383836001612060565b8273ffffffffffffffffffffffffffffffffffffffff1661168582610ba3565b73ffffffffffffffffffffffffffffffffffffffff16146116db576040517f08c379a00000000000000000000000000000000000000000000000000000000081526004016116d290613813565b60405180910390fd5b6005600082815260200190815260200160002060006101000a81549073ffffffffffffffffffffffffffffffffffffffff02191690556001600460008573ffffffffffffffffffffffffffffffffffffffff1673ffffffffffffffffffffffffffffffffffffffff168152602001908152602001600020600082825403925050819055506001600460008473ffffffffffffffffffffffffffffffffffffffff1673ffffffffffffffffffffffffffffffffffffffff16815260200190815260200160002060008282540192505081905550816003600083815260200190815260200160002060006101000a81548173ffffffffffffffffffffffffffffffffffffffff021916908373ffffffffffffffffffffffffffffffffffffffff160217905550808273ffffffffffffffffffffffffffffffffffffffff168473ffffffffffffffffffffffffffffffffffffffff167fddf252ad1be2c89b69c2b068fc378daa952ba7f163c4a11628f55a4df523b3ef60405160405180910390a46118678383836001612186565b505050565b61187461141d565b73ffffffffffffffffffffffffffffffffffffffff16611892610e41565b73ffffffffffffffffffffffffffffffffffffffff16146118e8576040517f08c379a00000000000000000000000000000000000000000000000000000000081526004016118df90613911565b60405180910390fd5b565b60006003600083815260200190815260200160002060009054906101000a900473ffffffffffffffffffffffffffffffffffffffff169050919050565b60008060009054906101000a900473ffffffffffffffffffffffffffffffffffffffff169050816000806101000a81548173ffffffffffffffffffffffffffffffffffffffff021916908373ffffffffffffffffffffffffffffffffffffffff1602179055508173ffffffffffffffffffffffffffffffffffffffff168173ffffffffffffffffffffffffffffffffffffffff167f8be0079c531659141344cd1fd0a4f28419497f9722a3daafe3b4186f6b6457e060405160405180910390a35050565b600073ffffffffffffffffffffffffffffffffffffffff168273ffffffffffffffffffffffffffffffffffffffff1603611a5a576040517f08c379a0000000000000000000000000000000000000000000000000000000008152600401611a519061397d565b60405180910390fd5b611a638161201f565b15611aa3576040517f08c379a0000000000000000000000000000000000000000000000000000000008152600401611a9a906139e9565b60405180910390fd5b611ab1600083836001612060565b611aba8161201f565b15611afa576040517f08c379a0000000000000000000000000000000000000000000000000000000008152600401611af1906139e9565b60405180910390fd5b6001600460008473ffffffffffffffffffffffffffffffffffffffff1673ffffffffffffffffffffffffffffffffffffffff16815260200190815260200160002060008282540192505081905550816003600083815260200190815260200160002060006101000a81548173ffffffffffffffffffffffffffffffffffffffff021916908373ffffffffffffffffffffffffffffffffffffffff160217905550808273ffffffffffffffffffffffffffffffffffffffff16600073ffffffffffffffffffffffffffffffffffffffff167fddf252ad1be2c89b69c2b068fc378daa952ba7f163c4a11628f55a4df523b3ef60405160405180910390a4611c04600083836001612186565b5050565b60606000825103611c2a57604051806020016040528060008152509050611d66565b6000604051806060016040528060408152602001613d536040913990506000600360028551611c599190613020565b611c639190613a38565b6004611c6f9190613a69565b67ffffffffffffffff811115611c8857611c876129a8565b5b6040519080825280601f01601f191660200182016040528015611cba5781602001600182028036833780820191505090505b509050600182016020820185865187015b80821015611d26576003820191508151603f8160121c168501518453600184019350603f81600c1c168501518453600184019350603f8160061c168501518453600184019350603f8116850151845360018401935050611ccb565b5050600386510660018114611d425760028114611d5557611d5d565b603d6001830353603d6002830353611d5d565b603d60018303535b50505080925050505b919050565b611d748261201f565b611db3576040517f08c379a0000000000000000000000000000000000000000000000000000000008152600401611daa90613b1d565b60405180910390fd5b80600760008481526020019081526020016000209081611dd39190613200565b505050565b8173ffffffffffffffffffffffffffffffffffffffff168373ffffffffffffffffffffffffffffffffffffffff1603611e46576040517f08c379a0000000000000000000000000000000000000000000000000000000008152600401611e3d90613b89565b60405180910390fd5b80600660008573ffffffffffffffffffffffffffffffffffffffff1673ffffffffffffffffffffffffffffffffffffffff16815260200190815260200160002060008473ffffffffffffffffffffffffffffffffffffffff1673ffffffffffffffffffffffffffffffffffffffff16815260200190815260200160002060006101000a81548160ff0219169083151502179055508173ffffffffffffffffffffffffffffffffffffffff168373ffffffffffffffffffffffffffffffffffffffff167f17307eab39ab6107e8899845ad3d59bd9653f200f220920489ca2b5937696c3183604051611f379190612635565b60405180910390a3505050565b611f4f848484611573565b611f5b8484848461218c565b611f9a576040517f08c379a0000000000000000000000000000000000000000000000000000000008152600401611f9190613c1b565b60405180910390fd5b50505050565b606060405180602001604052806000815250905090565b6060611fc2826113d2565b6000611fcc611fa0565b90506000815111611fec5760405180602001604052806000815250612017565b80611ff684612313565b6040516020016120079291906136eb565b6040516020818303038152906040525b915050919050565b60008073ffffffffffffffffffffffffffffffffffffffff16612041836118ea565b73ffffffffffffffffffffffffffffffffffffffff1614159050919050565b600181111561218057600073ffffffffffffffffffffffffffffffffffffffff168473ffffffffffffffffffffffffffffffffffffffff16146120f45780600460008673ffffffffffffffffffffffffffffffffffffffff1673ffffffffffffffffffffffffffffffffffffffff16815260200190815260200160002060008282546120ec9190613c3b565b925050819055505b600073ffffffffffffffffffffffffffffffffffffffff168373ffffffffffffffffffffffffffffffffffffffff161461217f5780600460008573ffffffffffffffffffffffffffffffffffffffff1673ffffffffffffffffffffffffffffffffffffffff16815260200190815260200160002060008282546121779190613020565b925050819055505b5b50505050565b50505050565b60006121ad8473ffffffffffffffffffffffffffffffffffffffff166123e1565b15612306578373ffffffffffffffffffffffffffffffffffffffff1663150b7a026121d661141d565b8786866040518563ffffffff1660e01b81526004016121f89493929190613cc4565b6020604051808303816000875af192505050801561223457506040513d601f19601f820116820180604052508101906122319190613d25565b60015b6122b6573d8060008114612264576040519150601f19603f3d011682016040523d82523d6000602084013e612269565b606091505b5060008151036122ae576040517f08c379a00000000000000000000000000000000000000000000000000000000081526004016122a590613c1b565b60405180910390fd5b805181602001fd5b63150b7a0260e01b7bffffffffffffffffffffffffffffffffffffffffffffffffffffffff1916817bffffffffffffffffffffffffffffffffffffffffffffffffffffffff19161491505061230b565b600190505b949350505050565b60606000600161232284612404565b01905060008167ffffffffffffffff811115612341576123406129a8565b5b6040519080825280601f01601f1916602001820160405280156123735781602001600182028036833780820191505090505b509050600082602001820190505b6001156123d6578080600190039150507f3031323334353637383961626364656600000000000000000000000000000000600a86061a8153600a85816123ca576123c9613a09565b5b04945060008503612381575b819350505050919050565b6000808273ffffffffffffffffffffffffffffffffffffffff163b119050919050565b600080600090507a184f03e93ff9f4daa797ed6e38ed64bf6a1f0100000000000000008310612462577a184f03e93ff9f4daa797ed6e38ed64bf6a1f010000000000000000838161245857612457613a09565b5b0492506040810190505b6d04ee2d6d415b85acef8100000000831061249f576d04ee2d6d415b85acef8100000000838161249557612494613a09565b5b0492506020810190505b662386f26fc1000083106124ce57662386f26fc1000083816124c4576124c3613a09565b5b0492506010810190505b6305f5e10083106124f7576305f5e10083816124ed576124ec613a09565b5b0492506008810190505b612710831061251c57612710838161251257612511613a09565b5b0492506004810190505b6064831061253f576064838161253557612534613a09565b5b0492506002810190505b600a831061254e576001810190505b80915050919050565b60405180608001604052806060815260200160008152602001600015158152602001606081525090565b6000604051905090565b600080fd5b600080fd5b60007fffffffff0000000000000000000000000000000000000000000000000000000082169050919050565b6125ca81612595565b81146125d557600080fd5b50565b6000813590506125e7816125c1565b92915050565b6000602082840312156126035761260261258b565b5b6000612611848285016125d8565b91505092915050565b60008115159050919050565b61262f8161261a565b82525050565b600060208201905061264a6000830184612626565b92915050565b600081519050919050565b600082825260208201905092915050565b60005b8381101561268a57808201518184015260208101905061266f565b60008484015250505050565b6000601f19601f8301169050919050565b60006126b282612650565b6126bc818561265b565b93506126cc81856020860161266c565b6126d581612696565b840191505092915050565b600060208201905081810360008301526126fa81846126a7565b905092915050565b6000819050919050565b61271581612702565b811461272057600080fd5b50565b6000813590506127328161270c565b92915050565b60006020828403121561274e5761274d61258b565b5b600061275c84828501612723565b91505092915050565b600073ffffffffffffffffffffffffffffffffffffffff82169050919050565b600061279082612765565b9050919050565b6127a081612785565b82525050565b60006020820190506127bb6000830184612797565b92915050565b6127ca81612785565b81146127d557600080fd5b50565b6000813590506127e7816127c1565b92915050565b600080604083850312156128045761280361258b565b5b6000612812858286016127d8565b925050602061282385828601612723565b9150509250929050565b61283681612702565b82525050565b6000602082019050612851600083018461282d565b92915050565b600082825260208201905092915050565b600061287382612650565b61287d8185612857565b935061288d81856020860161266c565b61289681612696565b840191505092915050565b6128aa81612702565b82525050565b6128b98161261a565b82525050565b600060808301600083015184820360008601526128dc8282612868565b91505060208301516128f160208601826128a1565b50604083015161290460408601826128b0565b506060830151848203606086015261291c8282612868565b9150508091505092915050565b6000602082019050818103600083015261294381846128bf565b905092915050565b6000806000606084860312156129645761296361258b565b5b6000612972868287016127d8565b9350506020612983868287016127d8565b925050604061299486828701612723565b9150509250925092565b600080fd5b600080fd5b7f4e487b7100000000000000000000000000000000000000000000000000000000600052604160045260246000fd5b6129e082612696565b810181811067ffffffffffffffff821117156129ff576129fe6129a8565b5b80604052505050565b6000612a12612581565b9050612a1e82826129d7565b919050565b600067ffffffffffffffff821115612a3e57612a3d6129a8565b5b612a4782612696565b9050602081019050919050565b82818337600083830152505050565b6000612a76612a7184612a23565b612a08565b905082815260208101848484011115612a9257612a916129a3565b5b612a9d848285612a54565b509392505050565b600082601f830112612aba57612ab961299e565b5b8135612aca848260208601612a63565b91505092915050565b60008060408385031215612aea57612ae961258b565b5b600083013567ffffffffffffffff811115612b0857612b07612590565b5b612b1485828601612aa5565b9250506020612b2585828601612723565b9150509250929050565b60006080820190508181036000830152612b4981876126a7565b9050612b58602083018661282d565b612b656040830185612626565b8181036060830152612b7781846126a7565b905095945050505050565b600060208284031215612b9857612b9761258b565b5b6000612ba6848285016127d8565b91505092915050565b60008060408385031215612bc657612bc561258b565b5b6000612bd485828601612723565b925050602083013567ffffffffffffffff811115612bf557612bf4612590565b5b612c0185828601612aa5565b9150509250929050565b612c148161261a565b8114612c1f57600080fd5b50565b600081359050612c3181612c0b565b92915050565b60008060408385031215612c4e57612c4d61258b565b5b6000612c5c858286016127d8565b9250506020612c6d85828601612c22565b9150509250929050565b600067ffffffffffffffff821115612c9257612c916129a8565b5b612c9b82612696565b9050602081019050919050565b6000612cbb612cb684612c77565b612a08565b905082815260208101848484011115612cd757612cd66129a3565b5b612ce2848285612a54565b509392505050565b600082601f830112612cff57612cfe61299e565b5b8135612d0f848260208601612ca8565b91505092915050565b60008060008060808587031215612d3257612d3161258b565b5b6000612d40878288016127d8565b9450506020612d51878288016127d8565b9350506040612d6287828801612723565b925050606085013567ffffffffffffffff811115612d8357612d82612590565b5b612d8f87828801612cea565b91505092959194509250565b60008060408385031215612db257612db161258b565b5b6000612dc0858286016127d8565b9250506020612dd1858286016127d8565b9150509250929050565b7f4e487b7100000000000000000000000000000000000000000000000000000000600052602260045260246000fd5b60006002820490506001821680612e2257607f821691505b602082108103612e3557612e34612ddb565b5b50919050565b7f4552433732313a20617070726f76616c20746f2063757272656e74206f776e6560008201527f7200000000000000000000000000000000000000000000000000000000000000602082015250565b6000612e9760218361265b565b9150612ea282612e3b565b604082019050919050565b60006020820190508181036000830152612ec681612e8a565b9050919050565b7f4552433732313a20617070726f76652063616c6c6572206973206e6f7420746f60008201527f6b656e206f776e6572206f7220617070726f76656420666f7220616c6c000000602082015250565b6000612f29603d8361265b565b9150612f3482612ecd565b604082019050919050565b60006020820190508181036000830152612f5881612f1c565b9050919050565b7f4552433732313a2063616c6c6572206973206e6f7420746f6b656e206f776e6560008201527f72206f7220617070726f76656400000000000000000000000000000000000000602082015250565b6000612fbb602d8361265b565b9150612fc682612f5f565b604082019050919050565b60006020820190508181036000830152612fea81612fae565b9050919050565b7f4e487b7100000000000000000000000000000000000000000000000000000000600052601160045260246000fd5b600061302b82612702565b915061303683612702565b925082820190508082111561304e5761304d612ff1565b5b92915050565b60008190508160005260206000209050919050565b60006020601f8301049050919050565b600082821b905092915050565b6000600883026130b67fffffffffffffffffffffffffffffffffffffffffffffffffffffffffffffffff82613079565b6130c08683613079565b95508019841693508086168417925050509392505050565b6000819050919050565b60006130fd6130f86130f384612702565b6130d8565b612702565b9050919050565b6000819050919050565b613117836130e2565b61312b61312382613104565b848454613086565b825550505050565b600090565b613140613133565b61314b81848461310e565b505050565b5b8181101561316f57613164600082613138565b600181019050613151565b5050565b601f8211156131b45761318581613054565b61318e84613069565b8101602085101561319d578190505b6131b16131a985613069565b830182613150565b50505b505050565b600082821c905092915050565b60006131d7600019846008026131b9565b1980831691505092915050565b60006131f083836131c6565b9150826002028217905092915050565b61320982612650565b67ffffffffffffffff811115613222576132216129a8565b5b61322c8254612e0a565b613237828285613173565b600060209050601f83116001811461326a5760008415613258578287015190505b61326285826131e4565b8655506132ca565b601f19841661327886613054565b60005b828110156132a05784890151825560018201915060208501945060208101905061327b565b868310156132bd57848901516132b9601f8916826131c6565b8355505b6001600288020188555050505b505050505050565b7f4552433732313a20696e76616c696420746f6b656e2049440000000000000000600082015250565b600061330860188361265b565b9150613313826132d2565b602082019050919050565b60006020820190508181036000830152613337816132fb565b9050919050565b7f4552433732313a2061646472657373207a65726f206973206e6f74206120766160008201527f6c6964206f776e65720000000000000000000000000000000000000000000000602082015250565b600061339a60298361265b565b91506133a58261333e565b604082019050919050565b600060208201905081810360008301526133c98161338d565b9050919050565b60006133db82612702565b91507fffffffffffffffffffffffffffffffffffffffffffffffffffffffffffffffff820361340d5761340c612ff1565b5b600182019050919050565b600081905092915050565b6000815461343081612e0a565b61343a8186613418565b94506001821660008114613455576001811461346a5761349d565b60ff198316865281151582028601935061349d565b61347385613054565b60005b8381101561349557815481890152600182019150602081019050613476565b838801955050505b50505092915050565b60006134b28286613423565b91506134be8285613423565b91506134ca8284613423565b9150819050949350505050565b7f7b226e616d65223a202200000000000000000000000000000000000000000000600082015250565b600061350d600a83613418565b9150613518826134d7565b600a82019050919050565b7f20222c20226465736372697074696f6e223a20224120646f6d61696e206e616d60008201527f652066726f6d20776562336679222c2022696d616765223a2022646174613a6960208201527f6d6167652f7376672b786d6c3b6261736536342c000000000000000000000000604082015250565b60006135a5605483613418565b91506135b082613523565b605482019050919050565b60006135c682612650565b6135d08185613418565b93506135e081856020860161266c565b80840191505092915050565b7f227d000000000000000000000000000000000000000000000000000000000000600082015250565b6000613622600283613418565b915061362d826135ec565b600282019050919050565b600061364382613500565b915061364f8285613423565b915061365a82613598565b915061366682846135bb565b915061367182613615565b91508190509392505050565b7f646174613a6170706c69636174696f6e2f6a736f6e3b6261736536342c000000600082015250565b60006136b3601d83613418565b91506136be8261367d565b601d82019050919050565b60006136d4826136a6565b91506136e082846135bb565b915081905092915050565b60006136f782856135bb565b915061370382846135bb565b91508190509392505050565b7f4f776e61626c653a206e6577206f776e657220697320746865207a65726f206160008201527f6464726573730000000000000000000000000000000000000000000000000000602082015250565b600061376b60268361265b565b91506137768261370f565b604082019050919050565b6000602082019050818103600083015261379a8161375e565b9050919050565b7f4552433732313a207472616e736665722066726f6d20696e636f72726563742060008201527f6f776e6572000000000000000000000000000000000000000000000000000000602082015250565b60006137fd60258361265b565b9150613808826137a1565b604082019050919050565b6000602082019050818103600083015261382c816137f0565b9050919050565b7f4552433732313a207472616e7366657220746f20746865207a65726f2061646460008201527f7265737300000000000000000000000000000000000000000000000000000000602082015250565b600061388f60248361265b565b915061389a82613833565b604082019050919050565b600060208201905081810360008301526138be81613882565b9050919050565b7f4f776e61626c653a2063616c6c6572206973206e6f7420746865206f776e6572600082015250565b60006138fb60208361265b565b9150613906826138c5565b602082019050919050565b6000602082019050818103600083015261392a816138ee565b9050919050565b7f4552433732313a206d696e7420746f20746865207a65726f2061646472657373600082015250565b600061396760208361265b565b915061397282613931565b602082019050919050565b600060208201905081810360008301526139968161395a565b9050919050565b7f4552433732313a20746f6b656e20616c7265616479206d696e74656400000000600082015250565b60006139d3601c8361265b565b91506139de8261399d565b602082019050919050565b60006020820190508181036000830152613a02816139c6565b9050919050565b7f4e487b7100000000000000000000000000000000000000000000000000000000600052601260045260246000fd5b6000613a4382612702565b9150613a4e83612702565b925082613a5e57613a5d613a09565b5b828204905092915050565b6000613a7482612702565b9150613a7f83612702565b9250828202613a8d81612702565b91508282048414831517613aa457613aa3612ff1565b5b5092915050565b7f45524337323155524953746f726167653a2055524920736574206f66206e6f6e60008201527f6578697374656e7420746f6b656e000000000000000000000000000000000000602082015250565b6000613b07602e8361265b565b9150613b1282613aab565b604082019050919050565b60006020820190508181036000830152613b3681613afa565b9050919050565b7f4552433732313a20617070726f766520746f2063616c6c657200000000000000600082015250565b6000613b7360198361265b565b9150613b7e82613b3d565b602082019050919050565b60006020820190508181036000830152613ba281613b66565b9050919050565b7f4552433732313a207472616e7366657220746f206e6f6e20455243373231526560008201527f63656976657220696d706c656d656e7465720000000000000000000000000000602082015250565b6000613c0560328361265b565b9150613c1082613ba9565b604082019050919050565b60006020820190508181036000830152613c3481613bf8565b9050919050565b6000613c4682612702565b9150613c5183612702565b9250828203905081811115613c6957613c68612ff1565b5b92915050565b600081519050919050565b600082825260208201905092915050565b6000613c9682613c6f565b613ca08185613c7a565b9350613cb081856020860161266c565b613cb981612696565b840191505092915050565b6000608082019050613cd96000830187612797565b613ce66020830186612797565b613cf3604083018561282d565b8181036060830152613d058184613c8b565b905095945050505050565b600081519050613d1f816125c1565b92915050565b600060208284031215613d3b57613d3a61258b565b5b6000613d4984828501613d10565b9150509291505056fe4142434445464748494a4b4c4d4e4f505152535455565758595a6162636465666768696a6b6c6d6e6f707172737475767778797a303132333435363738392b2fa264697066735822122046af62b56172b9c4a00c6462d418c12a46a99a11fff48d8f25507dea61b310e364736f6c634300081100333c73766720786d6c6e733d22687474703a2f2f7777772e77332e6f72672f323030302f7376672220786d6c6e733a786c696e6b3d22687474703a2f2f7777772e77332e6f72672f313939392f786c696e6b222076657273696f6e3d22312e31222077696474683d2236353022206865696768743d22353030222076696577426f783d2230203020363430203438302220786d6c3a73706163653d227072657365727665223e3c67207472616e73666f726d3d226d617472697828352e312030203020372e3539203331372e3035203234372e3534292220203e3c6c696e6561724772616469656e742069643d2253564749445f37383922206772616469656e74556e6974733d227573657253706163654f6e55736522206772616469656e745472616e73666f726d3d226d61747269782831203020302031202d3435202d32352922202078313d2230222079313d223235222078323d223930222079323d223235223e3c73746f70206f66667365743d22302522207374796c653d2273746f702d636f6c6f723a72676261283139302c2039302c203230372c2031293b222f3e3c73746f70206f66667365743d223130302522207374796c653d2273746f702d636f6c6f723a7267626128302c203138382c203235352c2031293b222f3e3c2f6c696e6561724772616469656e743e3c72656374207374796c653d227374726f6b653a206e6f6e653b207374726f6b652d77696474683a20313b207374726f6b652d6461736861727261793a206e6f6e653b207374726f6b652d6c696e656361703a20627574743b207374726f6b652d646173686f66667365743a20303b207374726f6b652d6c696e656a6f696e3a206d697465723b207374726f6b652d6d697465726c696d69743a20343b2066696c6c3a2075726c282353564749445f373839293b2066696c6c2d72756c653a206e6f6e7a65726f3b206f7061636974793a20313b222020783d222d34352220793d222d3235222072783d2230222072793d2230222077696474683d22393022206865696768743d22353022202f3e3c2f673e3c67207472616e73666f726d3d226d61747269782831203020302031203439332e3838203431322e34332922207374796c653d222220203e3c7465787420786d6c3a73706163653d2270726573657276652220666f6e742d66616d696c793d22204f70656e2053616e732c2073616e732d73657269662220666f6e742d73697a653d2232322220666f6e742d7374796c653d226e6f726d616c2220666f6e742d7765696768743d226e6f726d616c22207374796c653d227374726f6b653a206e6f6e653b207374726f6b652d77696474683a20343b207374726f6b652d6461736861727261793a206e6f6e653b207374726f6b652d6c696e656361703a20627574743b207374726f6b652d646173686f66667365743a20303b207374726f6b652d6c696e656a6f696e3a206d697465723b207374726f6b652d6d697465726c696d69743a20343b2066696c6c3a2072676228302c302c30293b2066696c6c2d72756c653a206e6f6e7a65726f3b206f7061636974793a20313b2077686974652d73706163653a207072653b22203e3c747370616e20783d222d34322e33382220793d22362e393122207374796c653d22666f6e742d66616d696c793a20436f726d6f72616e7420476172616d6f6e642c2073657269663b2066696c6c3a207267622835362c33392c3339293b20223e205765623346793c2f747370616e3e3c2f746578743e3c2f673e3c67207472616e73666f726d3d226d617472697828312e32372030203020312e3237203333312e3239203233372e38342922207374796c653d222220203e3c7465787420786d6c3a73706163653d2270726573657276652220666f6e742d66616d696c793d224f70656e2053616e732c2073616e732d73657269662220666f6e742d73697a653d2233312220666f6e742d7374796c653d226e6f726d616c2220666f6e742d7765696768743d226e6f726d616c22207374796c653d227374726f6b653a206e6f6e653b207374726f6b652d77696474683a20383b207374726f6b652d6461736861727261793a20312031303b207374726f6b652d6c696e656361703a20726f756e643b207374726f6b652d646173686f66667365743a20303b207374726f6b652d6c696e656a6f696e3a206d697465723b207374726f6b652d6d697465726c696d69743a20343b2066696c6c3a2072676228302c302c30293b2066696c6c2d72756c653a206e6f6e7a65726f3b206f7061636974793a20313b2077686974652d73706163653a207072653b22203e3c747370616e20783d222d36332e38352220793d22392e373422207374796c653d22666f6e742d66616d696c793a204f7377616c642c2073616e732d73657269663b20223e20",
  "linkReferences": {},
  "deployedLinkReferences": {}
}