{
  "contractName": "Metaverse",
  "abi": [
    {
      "inputs": [],
      "stateMutability": "nonpayable",
      "type": "constructor"
    },
    {
      "anonymous": false,
      "inputs": [
        {
          "indexed": true,
          "internalType": "address",
          "name": "owner",
          "type": "address"
        },
        {
          "indexed": true,
          "internalType": "address",
          "name": "approved",
          "type": "address"
        },
        {
          "indexed": true,
          "internalType": "uint256",
          "name": "tokenId",
          "type": "uint256"
        }
      ],
      "name": "Approval",
      "type": "event"
    },
    {
      "anonymous": false,
      "inputs": [
        {
          "indexed": true,
          "internalType": "address",
          "name": "owner",
          "type": "address"
        },
        {
          "indexed": true,
          "internalType": "address",
          "name": "operator",
          "type": "address"
        },
        {
          "indexed": false,
          "internalType": "bool",
          "name": "approved",
          "type": "bool"
        }
      ],
      "name": "ApprovalForAll",
      "type": "event"
    },
    {
      "anonymous": false,
      "inputs": [
        {
          "indexed": true,
          "internalType": "address",
          "name": "previousOwner",
          "type": "address"
        },
        {
          "indexed": true,
          "internalType": "address",
          "name": "newOwner",
          "type": "address"
        }
      ],
      "name": "OwnershipTransferred",
      "type": "event"
    },
    {
      "anonymous": false,
      "inputs": [
        {
          "indexed": true,
          "internalType": "address",
          "name": "from",
          "type": "address"
        },
        {
          "indexed": true,
          "internalType": "address",
          "name": "to",
          "type": "address"
        },
        {
          "indexed": true,
          "internalType": "uint256",
          "name": "tokenId",
          "type": "uint256"
        }
      ],
      "name": "Transfer",
      "type": "event"
    },
    {
      "inputs": [
        {
          "internalType": "address",
          "name": "to",
          "type": "address"
        },
        {
          "internalType": "uint256",
          "name": "tokenId",
          "type": "uint256"
        }
      ],
      "name": "approve",
      "outputs": [],
      "stateMutability": "nonpayable",
      "type": "function"
    },
    {
      "inputs": [
        {
          "internalType": "address",
          "name": "owner",
          "type": "address"
        }
      ],
      "name": "balanceOf",
      "outputs": [
        {
          "internalType": "uint256",
          "name": "",
          "type": "uint256"
        }
      ],
      "stateMutability": "view",
      "type": "function",
      "constant": true
    },
    {
      "inputs": [],
      "name": "cost",
      "outputs": [
        {
          "internalType": "uint256",
          "name": "",
          "type": "uint256"
        }
      ],
      "stateMutability": "view",
      "type": "function",
      "constant": true
    },
    {
      "inputs": [
        {
          "internalType": "uint256",
          "name": "tokenId",
          "type": "uint256"
        }
      ],
      "name": "getApproved",
      "outputs": [
        {
          "internalType": "address",
          "name": "",
          "type": "address"
        }
      ],
      "stateMutability": "view",
      "type": "function",
      "constant": true
    },
    {
      "inputs": [
        {
          "internalType": "address",
          "name": "owner",
          "type": "address"
        },
        {
          "internalType": "address",
          "name": "operator",
          "type": "address"
        }
      ],
      "name": "isApprovedForAll",
      "outputs": [
        {
          "internalType": "bool",
          "name": "",
          "type": "bool"
        }
      ],
      "stateMutability": "view",
      "type": "function",
      "constant": true
    },
    {
      "inputs": [],
      "name": "maxMinting",
      "outputs": [
        {
          "internalType": "uint256",
          "name": "",
          "type": "uint256"
        }
      ],
      "stateMutability": "view",
      "type": "function",
      "constant": true
    },
    {
      "inputs": [],
      "name": "name",
      "outputs": [
        {
          "internalType": "string",
          "name": "",
          "type": "string"
        }
      ],
      "stateMutability": "view",
      "type": "function",
      "constant": true
    },
    {
      "inputs": [
        {
          "internalType": "uint256",
          "name": "",
          "type": "uint256"
        }
      ],
      "name": "objects",
      "outputs": [
        {
          "internalType": "string",
          "name": "name",
          "type": "string"
        },
        {
          "internalType": "int8",
          "name": "w",
          "type": "int8"
        },
        {
          "internalType": "int8",
          "name": "h",
          "type": "int8"
        },
        {
          "internalType": "int8",
          "name": "d",
          "type": "int8"
        },
        {
          "internalType": "int8",
          "name": "x",
          "type": "int8"
        },
        {
          "internalType": "int8",
          "name": "y",
          "type": "int8"
        },
        {
          "internalType": "int8",
          "name": "z",
          "type": "int8"
        }
      ],
      "stateMutability": "view",
      "type": "function",
      "constant": true
    },
    {
      "inputs": [],
      "name": "owner",
      "outputs": [
        {
          "internalType": "address",
          "name": "",
          "type": "address"
        }
      ],
      "stateMutability": "view",
      "type": "function",
      "constant": true
    },
    {
      "inputs": [
        {
          "internalType": "uint256",
          "name": "tokenId",
          "type": "uint256"
        }
      ],
      "name": "ownerOf",
      "outputs": [
        {
          "internalType": "address",
          "name": "",
          "type": "address"
        }
      ],
      "stateMutability": "view",
      "type": "function",
      "constant": true
    },
    {
      "inputs": [],
      "name": "renounceOwnership",
      "outputs": [],
      "stateMutability": "nonpayable",
      "type": "function"
    },
    {
      "inputs": [
        {
          "internalType": "address",
          "name": "from",
          "type": "address"
        },
        {
          "internalType": "address",
          "name": "to",
          "type": "address"
        },
        {
          "internalType": "uint256",
          "name": "tokenId",
          "type": "uint256"
        }
      ],
      "name": "safeTransferFrom",
      "outputs": [],
      "stateMutability": "nonpayable",
      "type": "function"
    },
    {
      "inputs": [
        {
          "internalType": "address",
          "name": "from",
          "type": "address"
        },
        {
          "internalType": "address",
          "name": "to",
          "type": "address"
        },
        {
          "internalType": "uint256",
          "name": "tokenId",
          "type": "uint256"
        },
        {
          "internalType": "bytes",
          "name": "_data",
          "type": "bytes"
        }
      ],
      "name": "safeTransferFrom",
      "outputs": [],
      "stateMutability": "nonpayable",
      "type": "function"
    },
    {
      "inputs": [
        {
          "internalType": "address",
          "name": "operator",
          "type": "address"
        },
        {
          "internalType": "bool",
          "name": "approved",
          "type": "bool"
        }
      ],
      "name": "setApprovalForAll",
      "outputs": [],
      "stateMutability": "nonpayable",
      "type": "function"
    },
    {
      "inputs": [
        {
          "internalType": "bytes4",
          "name": "interfaceId",
          "type": "bytes4"
        }
      ],
      "name": "supportsInterface",
      "outputs": [
        {
          "internalType": "bool",
          "name": "",
          "type": "bool"
        }
      ],
      "stateMutability": "view",
      "type": "function",
      "constant": true
    },
    {
      "inputs": [],
      "name": "symbol",
      "outputs": [
        {
          "internalType": "string",
          "name": "",
          "type": "string"
        }
      ],
      "stateMutability": "view",
      "type": "function",
      "constant": true
    },
    {
      "inputs": [
        {
          "internalType": "uint256",
          "name": "tokenId",
          "type": "uint256"
        }
      ],
      "name": "tokenURI",
      "outputs": [
        {
          "internalType": "string",
          "name": "",
          "type": "string"
        }
      ],
      "stateMutability": "view",
      "type": "function",
      "constant": true
    },
    {
      "inputs": [
        {
          "internalType": "address",
          "name": "from",
          "type": "address"
        },
        {
          "internalType": "address",
          "name": "to",
          "type": "address"
        },
        {
          "internalType": "uint256",
          "name": "tokenId",
          "type": "uint256"
        }
      ],
      "name": "transferFrom",
      "outputs": [],
      "stateMutability": "nonpayable",
      "type": "function"
    },
    {
      "inputs": [
        {
          "internalType": "address",
          "name": "newOwner",
          "type": "address"
        }
      ],
      "name": "transferOwnership",
      "outputs": [],
      "stateMutability": "nonpayable",
      "type": "function"
    },
    {
      "inputs": [],
      "name": "getObjects",
      "outputs": [
        {
          "components": [
            {
              "internalType": "string",
              "name": "name",
              "type": "string"
            },
            {
              "internalType": "int8",
              "name": "w",
              "type": "int8"
            },
            {
              "internalType": "int8",
              "name": "h",
              "type": "int8"
            },
            {
              "internalType": "int8",
              "name": "d",
              "type": "int8"
            },
            {
              "internalType": "int8",
              "name": "x",
              "type": "int8"
            },
            {
              "internalType": "int8",
              "name": "y",
              "type": "int8"
            },
            {
              "internalType": "int8",
              "name": "z",
              "type": "int8"
            }
          ],
          "internalType": "struct Metaverse.Object[]",
          "name": "",
          "type": "tuple[]"
        }
      ],
      "stateMutability": "view",
      "type": "function",
      "constant": true
    },
    {
      "inputs": [],
      "name": "totalMint",
      "outputs": [
        {
          "internalType": "uint256",
          "name": "",
          "type": "uint256"
        }
      ],
      "stateMutability": "view",
      "type": "function",
      "constant": true
    },
    {
      "inputs": [
        {
          "internalType": "string",
          "name": "_object_name",
          "type": "string"
        },
        {
          "internalType": "int8",
          "name": "_w",
          "type": "int8"
        },
        {
          "internalType": "int8",
          "name": "_h",
          "type": "int8"
        },
        {
          "internalType": "int8",
          "name": "_d",
          "type": "int8"
        },
        {
          "internalType": "int8",
          "name": "_x",
          "type": "int8"
        },
        {
          "internalType": "int8",
          "name": "_y",
          "type": "int8"
        },
        {
          "internalType": "int8",
          "name": "_z",
          "type": "int8"
        }
      ],
      "name": "mint",
      "outputs": [],
      "stateMutability": "payable",
      "type": "function",
      "payable": true
    },
    {
      "inputs": [],
      "name": "withdraw",
      "outputs": [],
      "stateMutability": "payable",
      "type": "function",
      "payable": true
    },
    {
      "inputs": [],
      "name": "getOwnerObjects",
      "outputs": [
        {
          "components": [
            {
              "internalType": "string",
              "name": "name",
              "type": "string"
            },
            {
              "internalType": "int8",
              "name": "w",
              "type": "int8"
            },
            {
              "internalType": "int8",
              "name": "h",
              "type": "int8"
            },
            {
              "internalType": "int8",
              "name": "d",
              "type": "int8"
            },
            {
              "internalType": "int8",
              "name": "x",
              "type": "int8"
            },
            {
              "internalType": "int8",
              "name": "y",
              "type": "int8"
            },
            {
              "internalType": "int8",
              "name": "z",
              "type": "int8"
            }
          ],
          "internalType": "struct Metaverse.Object[]",
          "name": "",
          "type": "tuple[]"
        }
      ],
      "stateMutability": "view",
      "type": "function",
      "constant": true
    }
  ],
  "bytecode": "0x6080604052606460085560016009553480156200001b57600080fd5b506040518060400160405280600481526020017f4d455441000000000000000000000000000000000000000000000000000000008152506040518060400160405280600381526020017f4d544100000000000000000000000000000000000000000000000000000000008152508160009080519060200190620000a0929190620001b0565b508060019080519060200190620000b9929190620001b0565b505050620000dc620000d0620000e260201b60201c565b620000ea60201b60201c565b620002c4565b600033905090565b6000600660009054906101000a900473ffffffffffffffffffffffffffffffffffffffff16905081600660006101000a81548173ffffffffffffffffffffffffffffffffffffffff021916908373ffffffffffffffffffffffffffffffffffffffff1602179055508173ffffffffffffffffffffffffffffffffffffffff168173ffffffffffffffffffffffffffffffffffffffff167f8be0079c531659141344cd1fd0a4f28419497f9722a3daafe3b4186f6b6457e060405160405180910390a35050565b828054620001be906200028f565b90600052602060002090601f016020900481019282620001e257600085556200022e565b82601f10620001fd57805160ff19168380011785556200022e565b828001600101855582156200022e579182015b828111156200022d57825182559160200191906001019062000210565b5b5090506200023d919062000241565b5090565b5b808211156200025c57600081600090555060010162000242565b5090565b7f4e487b7100000000000000000000000000000000000000000000000000000000600052602260045260246000fd5b60006002820490506001821680620002a857607f821691505b602082108103620002be57620002bd62000260565b5b50919050565b613bea80620002d46000396000f3fe60806040526004361061014b5760003560e01c8063640784be116100b6578063a22cb4651161006f578063a22cb46514610454578063b88d4fde1461047d578063c87b56dd146104a6578063e985e9c5146104e3578063ed17585014610520578063f2fde38b146105635761014b565b8063640784be146103635780636e0f3f1e1461038e57806370a08231146103aa578063715018a6146103e75780638da5cb5b146103fe57806395d89b41146104295761014b565b806323b872dd1161010857806323b872dd146102745780633ccfd60b1461029d57806342842e0e146102a757806348094b7c146102d057806359a7715a146102fb5780636352211e146103265761014b565b806301ffc9a71461015057806306fdde031461018d578063081812fc146101b8578063095ea7b3146101f557806313faede61461021e5780631665ff7c14610249575b600080fd5b34801561015c57600080fd5b50610177600480360381019061017291906125a3565b61058c565b60405161018491906125eb565b60405180910390f35b34801561019957600080fd5b506101a261066e565b6040516101af919061269f565b60405180910390f35b3480156101c457600080fd5b506101df60048036038101906101da91906126f7565b610700565b6040516101ec9190612765565b60405180910390f35b34801561020157600080fd5b5061021c600480360381019061021791906127ac565b610785565b005b34801561022a57600080fd5b5061023361089c565b60405161024091906127fb565b60405180910390f35b34801561025557600080fd5b5061025e6108a2565b60405161026b91906129da565b60405180910390f35b34801561028057600080fd5b5061029b600480360381019061029691906129fc565b610a41565b005b6102a5610aa1565b005b3480156102b357600080fd5b506102ce60048036038101906102c991906129fc565b610b73565b005b3480156102dc57600080fd5b506102e5610b93565b6040516102f291906127fb565b60405180910390f35b34801561030757600080fd5b50610310610b99565b60405161031d91906127fb565b60405180910390f35b34801561033257600080fd5b5061034d600480360381019061034891906126f7565b610baa565b60405161035a9190612765565b60405180910390f35b34801561036f57600080fd5b50610378610c5b565b60405161038591906129da565b60405180910390f35b6103a860048036038101906103a39190612bb0565b610e37565b005b3480156103b657600080fd5b506103d160048036038101906103cc9190612c6e565b6111bd565b6040516103de91906127fb565b60405180910390f35b3480156103f357600080fd5b506103fc611274565b005b34801561040a57600080fd5b506104136112fc565b6040516104209190612765565b60405180910390f35b34801561043557600080fd5b5061043e611326565b60405161044b919061269f565b60405180910390f35b34801561046057600080fd5b5061047b60048036038101906104769190612cc7565b6113b8565b005b34801561048957600080fd5b506104a4600480360381019061049f9190612da8565b6113ce565b005b3480156104b257600080fd5b506104cd60048036038101906104c891906126f7565b611430565b6040516104da919061269f565b60405180910390f35b3480156104ef57600080fd5b5061050a60048036038101906105059190612e2b565b6114d7565b60405161051791906125eb565b60405180910390f35b34801561052c57600080fd5b50610547600480360381019061054291906126f7565b61156b565b60405161055a9796959493929190612e7a565b60405180910390f35b34801561056f57600080fd5b5061058a60048036038101906105859190612c6e565b611693565b005b60007f80ac58cd000000000000000000000000000000000000000000000000000000007bffffffffffffffffffffffffffffffffffffffffffffffffffffffff1916827bffffffffffffffffffffffffffffffffffffffffffffffffffffffff1916148061065757507f5b5e139f000000000000000000000000000000000000000000000000000000007bffffffffffffffffffffffffffffffffffffffffffffffffffffffff1916827bffffffffffffffffffffffffffffffffffffffffffffffffffffffff1916145b8061066757506106668261178a565b5b9050919050565b60606000805461067d90612f1f565b80601f01602080910402602001604051908101604052809291908181526020018280546106a990612f1f565b80156106f65780601f106106cb576101008083540402835291602001916106f6565b820191906000526020600020905b8154815290600101906020018083116106d957829003601f168201915b5050505050905090565b600061070b826117f4565b61074a576040517f08c379a000000000000000000000000000000000000000000000000000000000815260040161074190612fc2565b60405180910390fd5b6004600083815260200190815260200160002060009054906101000a900473ffffffffffffffffffffffffffffffffffffffff169050919050565b600061079082610baa565b90508073ffffffffffffffffffffffffffffffffffffffff168373ffffffffffffffffffffffffffffffffffffffff1603610800576040517f08c379a00000000000000000000000000000000000000000000000000000000081526004016107f790613054565b60405180910390fd5b8073ffffffffffffffffffffffffffffffffffffffff1661081f611860565b73ffffffffffffffffffffffffffffffffffffffff16148061084e575061084d81610848611860565b6114d7565b5b61088d576040517f08c379a0000000000000000000000000000000000000000000000000000000008152600401610884906130e6565b60405180910390fd5b6108978383611868565b505050565b60095481565b6060600b805480602002602001604051908101604052809291908181526020016000905b82821015610a3857838290600052602060002090600202016040518060e00160405290816000820180546108f990612f1f565b80601f016020809104026020016040519081016040528092919081815260200182805461092590612f1f565b80156109725780601f1061094757610100808354040283529160200191610972565b820191906000526020600020905b81548152906001019060200180831161095557829003601f168201915b505050505081526020016001820160009054906101000a900460000b60000b60000b81526020016001820160019054906101000a900460000b60000b60000b81526020016001820160029054906101000a900460000b60000b60000b81526020016001820160039054906101000a900460000b60000b60000b81526020016001820160049054906101000a900460000b60000b60000b81526020016001820160059054906101000a900460000b60000b60000b81525050815260200190600101906108c6565b50505050905090565b610a52610a4c611860565b82611921565b610a91576040517f08c379a0000000000000000000000000000000000000000000000000000000008152600401610a8890613178565b60405180910390fd5b610a9c8383836119ff565b505050565b610aa9611860565b73ffffffffffffffffffffffffffffffffffffffff16610ac76112fc565b73ffffffffffffffffffffffffffffffffffffffff1614610b1d576040517f08c379a0000000000000000000000000000000000000000000000000000000008152600401610b14906131e4565b60405180910390fd5b6000610b276112fc565b90508073ffffffffffffffffffffffffffffffffffffffff166108fc479081150290604051600060405180830381858888f19350505050158015610b6f573d6000803e3d6000fd5b5050565b610b8e838383604051806020016040528060008152506113ce565b505050565b60085481565b6000610ba56007611c65565b905090565b6000806002600084815260200190815260200160002060009054906101000a900473ffffffffffffffffffffffffffffffffffffffff169050600073ffffffffffffffffffffffffffffffffffffffff168173ffffffffffffffffffffffffffffffffffffffff1603610c52576040517f08c379a0000000000000000000000000000000000000000000000000000000008152600401610c4990613276565b60405180910390fd5b80915050919050565b6060600a60003373ffffffffffffffffffffffffffffffffffffffff1673ffffffffffffffffffffffffffffffffffffffff168152602001908152602001600020805480602002602001604051908101604052809291908181526020016000905b82821015610e2e57838290600052602060002090600202016040518060e0016040529081600082018054610cef90612f1f565b80601f0160208091040260200160405190810160405280929190818152602001828054610d1b90612f1f565b8015610d685780601f10610d3d57610100808354040283529160200191610d68565b820191906000526020600020905b815481529060010190602001808311610d4b57829003601f168201915b505050505081526020016001820160009054906101000a900460000b60000b60000b81526020016001820160019054906101000a900460000b60000b60000b81526020016001820160029054906101000a900460000b60000b60000b81526020016001820160039054906101000a900460000b60000b60000b81526020016001820160049054906101000a900460000b60000b60000b81526020016001820160059054906101000a900460000b60000b60000b8152505081526020019060010190610cbc565b50505050905090565b600854610e446007611c65565b1115610e85576040517f08c379a0000000000000000000000000000000000000000000000000000000008152600401610e7c906132e2565b60405180910390fd5b600954341015610eca576040517f08c379a0000000000000000000000000000000000000000000000000000000008152600401610ec19061334e565b60405180910390fd5b610ed46007611c73565b610ee733610ee26007611c65565b611c89565b60006040518060e001604052808981526020018860000b81526020018760000b81526020018660000b81526020018560000b81526020018460000b81526020018360000b8152509050600b8190806001815401808255809150506001900390600052602060002090600202016000909190919091506000820151816000019080519060200190610f78929190612494565b5060208201518160010160006101000a81548160ff021916908360000b60ff16021790555060408201518160010160016101000a81548160ff021916908360000b60ff16021790555060608201518160010160026101000a81548160ff021916908360000b60ff16021790555060808201518160010160036101000a81548160ff021916908360000b60ff16021790555060a08201518160010160046101000a81548160ff021916908360000b60ff16021790555060c08201518160010160056101000a81548160ff021916908360000b60ff1602179055505050600a60003373ffffffffffffffffffffffffffffffffffffffff1673ffffffffffffffffffffffffffffffffffffffff16815260200190815260200160002081908060018154018082558091505060019003906000526020600020906002020160009091909190915060008201518160000190805190602001906110d8929190612494565b5060208201518160010160006101000a81548160ff021916908360000b60ff16021790555060408201518160010160016101000a81548160ff021916908360000b60ff16021790555060608201518160010160026101000a81548160ff021916908360000b60ff16021790555060808201518160010160036101000a81548160ff021916908360000b60ff16021790555060a08201518160010160046101000a81548160ff021916908360000b60ff16021790555060c08201518160010160056101000a81548160ff021916908360000b60ff16021790555050505050505050505050565b60008073ffffffffffffffffffffffffffffffffffffffff168273ffffffffffffffffffffffffffffffffffffffff160361122d576040517f08c379a0000000000000000000000000000000000000000000000000000000008152600401611224906133e0565b60405180910390fd5b600360008373ffffffffffffffffffffffffffffffffffffffff1673ffffffffffffffffffffffffffffffffffffffff168152602001908152602001600020549050919050565b61127c611860565b73ffffffffffffffffffffffffffffffffffffffff1661129a6112fc565b73ffffffffffffffffffffffffffffffffffffffff16146112f0576040517f08c379a00000000000000000000000000000000000000000000000000000000081526004016112e7906131e4565b60405180910390fd5b6112fa6000611ca7565b565b6000600660009054906101000a900473ffffffffffffffffffffffffffffffffffffffff16905090565b60606001805461133590612f1f565b80601f016020809104026020016040519081016040528092919081815260200182805461136190612f1f565b80156113ae5780601f10611383576101008083540402835291602001916113ae565b820191906000526020600020905b81548152906001019060200180831161139157829003601f168201915b5050505050905090565b6113ca6113c3611860565b8383611d6d565b5050565b6113df6113d9611860565b83611921565b61141e576040517f08c379a000000000000000000000000000000000000000000000000000000000815260040161141590613178565b60405180910390fd5b61142a84848484611ed9565b50505050565b606061143b826117f4565b61147a576040517f08c379a000000000000000000000000000000000000000000000000000000000815260040161147190613472565b60405180910390fd5b6000611484611f35565b905060008151116114a457604051806020016040528060008152506114cf565b806114ae84611f4c565b6040516020016114bf9291906134ce565b6040516020818303038152906040525b915050919050565b6000600560008473ffffffffffffffffffffffffffffffffffffffff1673ffffffffffffffffffffffffffffffffffffffff16815260200190815260200160002060008373ffffffffffffffffffffffffffffffffffffffff1673ffffffffffffffffffffffffffffffffffffffff16815260200190815260200160002060009054906101000a900460ff16905092915050565b600b818154811061157b57600080fd5b906000526020600020906002020160009150905080600001805461159e90612f1f565b80601f01602080910402602001604051908101604052809291908181526020018280546115ca90612f1f565b80156116175780601f106115ec57610100808354040283529160200191611617565b820191906000526020600020905b8154815290600101906020018083116115fa57829003601f168201915b5050505050908060010160009054906101000a900460000b908060010160019054906101000a900460000b908060010160029054906101000a900460000b908060010160039054906101000a900460000b908060010160049054906101000a900460000b908060010160059054906101000a900460000b905087565b61169b611860565b73ffffffffffffffffffffffffffffffffffffffff166116b96112fc565b73ffffffffffffffffffffffffffffffffffffffff161461170f576040517f08c379a0000000000000000000000000000000000000000000000000000000008152600401611706906131e4565b60405180910390fd5b600073ffffffffffffffffffffffffffffffffffffffff168173ffffffffffffffffffffffffffffffffffffffff160361177e576040517f08c379a000000000000000000000000000000000000000000000000000000000815260040161177590613564565b60405180910390fd5b61178781611ca7565b50565b60007f01ffc9a7000000000000000000000000000000000000000000000000000000007bffffffffffffffffffffffffffffffffffffffffffffffffffffffff1916827bffffffffffffffffffffffffffffffffffffffffffffffffffffffff1916149050919050565b60008073ffffffffffffffffffffffffffffffffffffffff166002600084815260200190815260200160002060009054906101000a900473ffffffffffffffffffffffffffffffffffffffff1673ffffffffffffffffffffffffffffffffffffffff1614159050919050565b600033905090565b816004600083815260200190815260200160002060006101000a81548173ffffffffffffffffffffffffffffffffffffffff021916908373ffffffffffffffffffffffffffffffffffffffff160217905550808273ffffffffffffffffffffffffffffffffffffffff166118db83610baa565b73ffffffffffffffffffffffffffffffffffffffff167f8c5be1e5ebec7d5bd14f71427d1e84f3dd0314c0f7b2291e5b200ac8c7c3b92560405160405180910390a45050565b600061192c826117f4565b61196b576040517f08c379a0000000000000000000000000000000000000000000000000000000008152600401611962906135f6565b60405180910390fd5b600061197683610baa565b90508073ffffffffffffffffffffffffffffffffffffffff168473ffffffffffffffffffffffffffffffffffffffff1614806119b857506119b781856114d7565b5b806119f657508373ffffffffffffffffffffffffffffffffffffffff166119de84610700565b73ffffffffffffffffffffffffffffffffffffffff16145b91505092915050565b8273ffffffffffffffffffffffffffffffffffffffff16611a1f82610baa565b73ffffffffffffffffffffffffffffffffffffffff1614611a75576040517f08c379a0000000000000000000000000000000000000000000000000000000008152600401611a6c90613688565b60405180910390fd5b600073ffffffffffffffffffffffffffffffffffffffff168273ffffffffffffffffffffffffffffffffffffffff1603611ae4576040517f08c379a0000000000000000000000000000000000000000000000000000000008152600401611adb9061371a565b60405180910390fd5b611aef8383836120ac565b611afa600082611868565b6001600360008573ffffffffffffffffffffffffffffffffffffffff1673ffffffffffffffffffffffffffffffffffffffff1681526020019081526020016000206000828254611b4a9190613769565b925050819055506001600360008473ffffffffffffffffffffffffffffffffffffffff1673ffffffffffffffffffffffffffffffffffffffff1681526020019081526020016000206000828254611ba1919061379d565b92505081905550816002600083815260200190815260200160002060006101000a81548173ffffffffffffffffffffffffffffffffffffffff021916908373ffffffffffffffffffffffffffffffffffffffff160217905550808273ffffffffffffffffffffffffffffffffffffffff168473ffffffffffffffffffffffffffffffffffffffff167fddf252ad1be2c89b69c2b068fc378daa952ba7f163c4a11628f55a4df523b3ef60405160405180910390a4611c608383836120b1565b505050565b600081600001549050919050565b6001816000016000828254019250508190555050565b611ca38282604051806020016040528060008152506120b6565b5050565b6000600660009054906101000a900473ffffffffffffffffffffffffffffffffffffffff16905081600660006101000a81548173ffffffffffffffffffffffffffffffffffffffff021916908373ffffffffffffffffffffffffffffffffffffffff1602179055508173ffffffffffffffffffffffffffffffffffffffff168173ffffffffffffffffffffffffffffffffffffffff167f8be0079c531659141344cd1fd0a4f28419497f9722a3daafe3b4186f6b6457e060405160405180910390a35050565b8173ffffffffffffffffffffffffffffffffffffffff168373ffffffffffffffffffffffffffffffffffffffff1603611ddb576040517f08c379a0000000000000000000000000000000000000000000000000000000008152600401611dd29061383f565b60405180910390fd5b80600560008573ffffffffffffffffffffffffffffffffffffffff1673ffffffffffffffffffffffffffffffffffffffff16815260200190815260200160002060008473ffffffffffffffffffffffffffffffffffffffff1673ffffffffffffffffffffffffffffffffffffffff16815260200190815260200160002060006101000a81548160ff0219169083151502179055508173ffffffffffffffffffffffffffffffffffffffff168373ffffffffffffffffffffffffffffffffffffffff167f17307eab39ab6107e8899845ad3d59bd9653f200f220920489ca2b5937696c3183604051611ecc91906125eb565b60405180910390a3505050565b611ee48484846119ff565b611ef084848484612111565b611f2f576040517f08c379a0000000000000000000000000000000000000000000000000000000008152600401611f26906138d1565b60405180910390fd5b50505050565b606060405180602001604052806000815250905090565b606060008203611f93576040518060400160405280600181526020017f300000000000000000000000000000000000000000000000000000000000000081525090506120a7565b600082905060005b60008214611fc5578080611fae906138f1565b915050600a82611fbe9190613968565b9150611f9b565b60008167ffffffffffffffff811115611fe157611fe0612a59565b5b6040519080825280601f01601f1916602001820160405280156120135781602001600182028036833780820191505090505b5090505b600085146120a05760018261202c9190613769565b9150600a8561203b9190613999565b6030612047919061379d565b60f81b81838151811061205d5761205c6139ca565b5b60200101907effffffffffffffffffffffffffffffffffffffffffffffffffffffffffffff1916908160001a905350600a856120999190613968565b9450612017565b8093505050505b919050565b505050565b505050565b6120c08383612298565b6120cd6000848484612111565b61210c576040517f08c379a0000000000000000000000000000000000000000000000000000000008152600401612103906138d1565b60405180910390fd5b505050565b60006121328473ffffffffffffffffffffffffffffffffffffffff16612471565b1561228b578373ffffffffffffffffffffffffffffffffffffffff1663150b7a0261215b611860565b8786866040518563ffffffff1660e01b815260040161217d9493929190613a4e565b6020604051808303816000875af19250505080156121b957506040513d601f19601f820116820180604052508101906121b69190613aaf565b60015b61223b573d80600081146121e9576040519150601f19603f3d011682016040523d82523d6000602084013e6121ee565b606091505b506000815103612233576040517f08c379a000000000000000000000000000000000000000000000000000000000815260040161222a906138d1565b60405180910390fd5b805181602001fd5b63150b7a0260e01b7bffffffffffffffffffffffffffffffffffffffffffffffffffffffff1916817bffffffffffffffffffffffffffffffffffffffffffffffffffffffff191614915050612290565b600190505b949350505050565b600073ffffffffffffffffffffffffffffffffffffffff168273ffffffffffffffffffffffffffffffffffffffff1603612307576040517f08c379a00000000000000000000000000000000000000000000000000000000081526004016122fe90613b28565b60405180910390fd5b612310816117f4565b15612350576040517f08c379a000000000000000000000000000000000000000000000000000000000815260040161234790613b94565b60405180910390fd5b61235c600083836120ac565b6001600360008473ffffffffffffffffffffffffffffffffffffffff1673ffffffffffffffffffffffffffffffffffffffff16815260200190815260200160002060008282546123ac919061379d565b92505081905550816002600083815260200190815260200160002060006101000a81548173ffffffffffffffffffffffffffffffffffffffff021916908373ffffffffffffffffffffffffffffffffffffffff160217905550808273ffffffffffffffffffffffffffffffffffffffff16600073ffffffffffffffffffffffffffffffffffffffff167fddf252ad1be2c89b69c2b068fc378daa952ba7f163c4a11628f55a4df523b3ef60405160405180910390a461246d600083836120b1565b5050565b6000808273ffffffffffffffffffffffffffffffffffffffff163b119050919050565b8280546124a090612f1f565b90600052602060002090601f0160209004810192826124c25760008555612509565b82601f106124db57805160ff1916838001178555612509565b82800160010185558215612509579182015b828111156125085782518255916020019190600101906124ed565b5b509050612516919061251a565b5090565b5b8082111561253357600081600090555060010161251b565b5090565b6000604051905090565b600080fd5b600080fd5b60007fffffffff0000000000000000000000000000000000000000000000000000000082169050919050565b6125808161254b565b811461258b57600080fd5b50565b60008135905061259d81612577565b92915050565b6000602082840312156125b9576125b8612541565b5b60006125c78482850161258e565b91505092915050565b60008115159050919050565b6125e5816125d0565b82525050565b600060208201905061260060008301846125dc565b92915050565b600081519050919050565b600082825260208201905092915050565b60005b83811015612640578082015181840152602081019050612625565b8381111561264f576000848401525b50505050565b6000601f19601f8301169050919050565b600061267182612606565b61267b8185612611565b935061268b818560208601612622565b61269481612655565b840191505092915050565b600060208201905081810360008301526126b98184612666565b905092915050565b6000819050919050565b6126d4816126c1565b81146126df57600080fd5b50565b6000813590506126f1816126cb565b92915050565b60006020828403121561270d5761270c612541565b5b600061271b848285016126e2565b91505092915050565b600073ffffffffffffffffffffffffffffffffffffffff82169050919050565b600061274f82612724565b9050919050565b61275f81612744565b82525050565b600060208201905061277a6000830184612756565b92915050565b61278981612744565b811461279457600080fd5b50565b6000813590506127a681612780565b92915050565b600080604083850312156127c3576127c2612541565b5b60006127d185828601612797565b92505060206127e2858286016126e2565b9150509250929050565b6127f5816126c1565b82525050565b600060208201905061281060008301846127ec565b92915050565b600081519050919050565b600082825260208201905092915050565b6000819050602082019050919050565b600082825260208201905092915050565b600061285e82612606565b6128688185612842565b9350612878818560208601612622565b61288181612655565b840191505092915050565b60008160000b9050919050565b6128a28161288c565b82525050565b600060e08301600083015184820360008601526128c58282612853565b91505060208301516128da6020860182612899565b5060408301516128ed6040860182612899565b5060608301516129006060860182612899565b5060808301516129136080860182612899565b5060a083015161292660a0860182612899565b5060c083015161293960c0860182612899565b508091505092915050565b600061295083836128a8565b905092915050565b6000602082019050919050565b600061297082612816565b61297a8185612821565b93508360208202850161298c85612832565b8060005b858110156129c857848403895281516129a98582612944565b94506129b483612958565b925060208a01995050600181019050612990565b50829750879550505050505092915050565b600060208201905081810360008301526129f48184612965565b905092915050565b600080600060608486031215612a1557612a14612541565b5b6000612a2386828701612797565b9350506020612a3486828701612797565b9250506040612a45868287016126e2565b9150509250925092565b600080fd5b600080fd5b7f4e487b7100000000000000000000000000000000000000000000000000000000600052604160045260246000fd5b612a9182612655565b810181811067ffffffffffffffff82111715612ab057612aaf612a59565b5b80604052505050565b6000612ac3612537565b9050612acf8282612a88565b919050565b600067ffffffffffffffff821115612aef57612aee612a59565b5b612af882612655565b9050602081019050919050565b82818337600083830152505050565b6000612b27612b2284612ad4565b612ab9565b905082815260208101848484011115612b4357612b42612a54565b5b612b4e848285612b05565b509392505050565b600082601f830112612b6b57612b6a612a4f565b5b8135612b7b848260208601612b14565b91505092915050565b612b8d8161288c565b8114612b9857600080fd5b50565b600081359050612baa81612b84565b92915050565b600080600080600080600060e0888a031215612bcf57612bce612541565b5b600088013567ffffffffffffffff811115612bed57612bec612546565b5b612bf98a828b01612b56565b9750506020612c0a8a828b01612b9b565b9650506040612c1b8a828b01612b9b565b9550506060612c2c8a828b01612b9b565b9450506080612c3d8a828b01612b9b565b93505060a0612c4e8a828b01612b9b565b92505060c0612c5f8a828b01612b9b565b91505092959891949750929550565b600060208284031215612c8457612c83612541565b5b6000612c9284828501612797565b91505092915050565b612ca4816125d0565b8114612caf57600080fd5b50565b600081359050612cc181612c9b565b92915050565b60008060408385031215612cde57612cdd612541565b5b6000612cec85828601612797565b9250506020612cfd85828601612cb2565b9150509250929050565b600067ffffffffffffffff821115612d2257612d21612a59565b5b612d2b82612655565b9050602081019050919050565b6000612d4b612d4684612d07565b612ab9565b905082815260208101848484011115612d6757612d66612a54565b5b612d72848285612b05565b509392505050565b600082601f830112612d8f57612d8e612a4f565b5b8135612d9f848260208601612d38565b91505092915050565b60008060008060808587031215612dc257612dc1612541565b5b6000612dd087828801612797565b9450506020612de187828801612797565b9350506040612df2878288016126e2565b925050606085013567ffffffffffffffff811115612e1357612e12612546565b5b612e1f87828801612d7a565b91505092959194509250565b60008060408385031215612e4257612e41612541565b5b6000612e5085828601612797565b9250506020612e6185828601612797565b9150509250929050565b612e748161288c565b82525050565b600060e0820190508181036000830152612e94818a612666565b9050612ea36020830189612e6b565b612eb06040830188612e6b565b612ebd6060830187612e6b565b612eca6080830186612e6b565b612ed760a0830185612e6b565b612ee460c0830184612e6b565b98975050505050505050565b7f4e487b7100000000000000000000000000000000000000000000000000000000600052602260045260246000fd5b60006002820490506001821680612f3757607f821691505b602082108103612f4a57612f49612ef0565b5b50919050565b7f4552433732313a20617070726f76656420717565727920666f72206e6f6e657860008201527f697374656e7420746f6b656e0000000000000000000000000000000000000000602082015250565b6000612fac602c83612611565b9150612fb782612f50565b604082019050919050565b60006020820190508181036000830152612fdb81612f9f565b9050919050565b7f4552433732313a20617070726f76616c20746f2063757272656e74206f776e6560008201527f7200000000000000000000000000000000000000000000000000000000000000602082015250565b600061303e602183612611565b915061304982612fe2565b604082019050919050565b6000602082019050818103600083015261306d81613031565b9050919050565b7f4552433732313a20617070726f76652063616c6c6572206973206e6f74206f7760008201527f6e6572206e6f7220617070726f76656420666f7220616c6c0000000000000000602082015250565b60006130d0603883612611565b91506130db82613074565b604082019050919050565b600060208201905081810360008301526130ff816130c3565b9050919050565b7f4552433732313a207472616e736665722063616c6c6572206973206e6f74206f60008201527f776e6572206e6f7220617070726f766564000000000000000000000000000000602082015250565b6000613162603183612611565b915061316d82613106565b604082019050919050565b6000602082019050818103600083015261319181613155565b9050919050565b7f4f776e61626c653a2063616c6c6572206973206e6f7420746865206f776e6572600082015250565b60006131ce602083612611565b91506131d982613198565b602082019050919050565b600060208201905081810360008301526131fd816131c1565b9050919050565b7f4552433732313a206f776e657220717565727920666f72206e6f6e657869737460008201527f656e7420746f6b656e0000000000000000000000000000000000000000000000602082015250565b6000613260602983612611565b915061326b82613204565b604082019050919050565b6000602082019050818103600083015261328f81613253565b9050919050565b7f537570706c792065786365656473206d6178696d756d00000000000000000000600082015250565b60006132cc601683612611565b91506132d782613296565b602082019050919050565b600060208201905081810360008301526132fb816132bf565b9050919050565b7f496e73756666696369656e74205061796d656e74000000000000000000000000600082015250565b6000613338601483612611565b915061334382613302565b602082019050919050565b600060208201905081810360008301526133678161332b565b9050919050565b7f4552433732313a2062616c616e636520717565727920666f7220746865207a6560008201527f726f206164647265737300000000000000000000000000000000000000000000602082015250565b60006133ca602a83612611565b91506133d58261336e565b604082019050919050565b600060208201905081810360008301526133f9816133bd565b9050919050565b7f4552433732314d657461646174613a2055524920717565727920666f72206e6f60008201527f6e6578697374656e7420746f6b656e0000000000000000000000000000000000602082015250565b600061345c602f83612611565b915061346782613400565b604082019050919050565b6000602082019050818103600083015261348b8161344f565b9050919050565b600081905092915050565b60006134a882612606565b6134b28185613492565b93506134c2818560208601612622565b80840191505092915050565b60006134da828561349d565b91506134e6828461349d565b91508190509392505050565b7f4f776e61626c653a206e6577206f776e657220697320746865207a65726f206160008201527f6464726573730000000000000000000000000000000000000000000000000000602082015250565b600061354e602683612611565b9150613559826134f2565b604082019050919050565b6000602082019050818103600083015261357d81613541565b9050919050565b7f4552433732313a206f70657261746f7220717565727920666f72206e6f6e657860008201527f697374656e7420746f6b656e0000000000000000000000000000000000000000602082015250565b60006135e0602c83612611565b91506135eb82613584565b604082019050919050565b6000602082019050818103600083015261360f816135d3565b9050919050565b7f4552433732313a207472616e736665722066726f6d20696e636f72726563742060008201527f6f776e6572000000000000000000000000000000000000000000000000000000602082015250565b6000613672602583612611565b915061367d82613616565b604082019050919050565b600060208201905081810360008301526136a181613665565b9050919050565b7f4552433732313a207472616e7366657220746f20746865207a65726f2061646460008201527f7265737300000000000000000000000000000000000000000000000000000000602082015250565b6000613704602483612611565b915061370f826136a8565b604082019050919050565b60006020820190508181036000830152613733816136f7565b9050919050565b7f4e487b7100000000000000000000000000000000000000000000000000000000600052601160045260246000fd5b6000613774826126c1565b915061377f836126c1565b9250828210156137925761379161373a565b5b828203905092915050565b60006137a8826126c1565b91506137b3836126c1565b9250827fffffffffffffffffffffffffffffffffffffffffffffffffffffffffffffffff038211156137e8576137e761373a565b5b828201905092915050565b7f4552433732313a20617070726f766520746f2063616c6c657200000000000000600082015250565b6000613829601983612611565b9150613834826137f3565b602082019050919050565b600060208201905081810360008301526138588161381c565b9050919050565b7f4552433732313a207472616e7366657220746f206e6f6e20455243373231526560008201527f63656976657220696d706c656d656e7465720000000000000000000000000000602082015250565b60006138bb603283612611565b91506138c68261385f565b604082019050919050565b600060208201905081810360008301526138ea816138ae565b9050919050565b60006138fc826126c1565b91507fffffffffffffffffffffffffffffffffffffffffffffffffffffffffffffffff820361392e5761392d61373a565b5b600182019050919050565b7f4e487b7100000000000000000000000000000000000000000000000000000000600052601260045260246000fd5b6000613973826126c1565b915061397e836126c1565b92508261398e5761398d613939565b5b828204905092915050565b60006139a4826126c1565b91506139af836126c1565b9250826139bf576139be613939565b5b828206905092915050565b7f4e487b7100000000000000000000000000000000000000000000000000000000600052603260045260246000fd5b600081519050919050565b600082825260208201905092915050565b6000613a20826139f9565b613a2a8185613a04565b9350613a3a818560208601612622565b613a4381612655565b840191505092915050565b6000608082019050613a636000830187612756565b613a706020830186612756565b613a7d60408301856127ec565b8181036060830152613a8f8184613a15565b905095945050505050565b600081519050613aa981612577565b92915050565b600060208284031215613ac557613ac4612541565b5b6000613ad384828501613a9a565b91505092915050565b7f4552433732313a206d696e7420746f20746865207a65726f2061646472657373600082015250565b6000613b12602083612611565b9150613b1d82613adc565b602082019050919050565b60006020820190508181036000830152613b4181613b05565b9050919050565b7f4552433732313a20746f6b656e20616c7265616479206d696e74656400000000600082015250565b6000613b7e601c83612611565b9150613b8982613b48565b602082019050919050565b60006020820190508181036000830152613bad81613b71565b905091905056fea2646970667358221220143855ab0d7de009b90c7bd86fa7344dbe202670936dda08463f0c371534bb7c64736f6c634300080e0033",
  "immutableReferences": {},
  "source": "// SPDX-License-Identifier: MIT\npragma solidity ^0.8.0;\n// Openzeppelin imports\nimport \"@openzeppelin/contracts/token/ERC721/ERC721.sol\";\nimport \"@openzeppelin/contracts/access/Ownable.sol\";\nimport \"@openzeppelin/contracts/utils/Counters.sol\";\n\n\n\ncontract Metaverse is ERC721,Ownable {\n    constructor() ERC721 (\"META\",\"MTA\"){}\n\n    using Counters for Counters.Counter;\n\n    Counters.Counter private supply;\n\n    uint public maxMinting = 100;\n\n    uint public cost = 1 wei;\n\n    struct Object {\n        string name;\n        int8 w;\n        int8 h;\n        int8 d;\n        int8 x;\n        int8 y;\n        int8 z;\n    }\n    mapping (address=>Object[]) NFTOwners;\n    Object[] public objects;\n\n    function getObjects() public view returns(Object[] memory){\n        return objects;\n    }\n\n    function totalMint() public view returns(uint){\n        return supply.current();\n    }\n\n    function mint(string memory _object_name,int8 _w,int8 _h,int8 _d,int8 _x,int8 _y,int8 _z) public payable{\n        require(supply.current()<=maxMinting,\"Supply exceeds maximum\");\n        require(msg.value>=cost,\"Insufficient Payment\");\n        supply.increment();\n        _safeMint(msg.sender,supply.current());\n        Object memory _newObject = Object(_object_name,_w,_h,_d,_x,_y,_z);\n        objects.push(_newObject);\n        NFTOwners[msg.sender].push(_newObject);\n    }\n\n    function withdraw() external payable onlyOwner{\n        address payable _owner = payable(owner());\n        _owner.transfer(address(this).balance);\n    }\n\n    function getOwnerObjects() public view returns(Object[] memory){\n        return NFTOwners[msg.sender];\n    }\n}",
  "sourcePath": "/home/vikash/Desktop/all_git_files/Web3.0-World/Level2/MetaNft_Minting/Truff/contracts/Metaverse.sol",
  "compiler": {
    "name": "solc",
    "version": "0.8.14+commit.80d49f37.Emscripten.clang"
  },
  "schemaVersion": "3.4.7",
  "updatedAt": "2022-07-01T20:09:05.690Z",
  "networkType": "ethereum",
  "devdoc": {
    "kind": "dev",
    "methods": {
      "approve(address,uint256)": {
        "details": "See {IERC721-approve}."
      },
      "balanceOf(address)": {
        "details": "See {IERC721-balanceOf}."
      },
      "getApproved(uint256)": {
        "details": "See {IERC721-getApproved}."
      },
      "isApprovedForAll(address,address)": {
        "details": "See {IERC721-isApprovedForAll}."
      },
      "name()": {
        "details": "See {IERC721Metadata-name}."
      },
      "owner()": {
        "details": "Returns the address of the current owner."
      },
      "ownerOf(uint256)": {
        "details": "See {IERC721-ownerOf}."
      },
      "renounceOwnership()": {
        "details": "Leaves the contract without owner. It will not be possible to call `onlyOwner` functions anymore. Can only be called by the current owner. NOTE: Renouncing ownership will leave the contract without an owner, thereby removing any functionality that is only available to the owner."
      },
      "safeTransferFrom(address,address,uint256)": {
        "details": "See {IERC721-safeTransferFrom}."
      },
      "safeTransferFrom(address,address,uint256,bytes)": {
        "details": "See {IERC721-safeTransferFrom}."
      },
      "setApprovalForAll(address,bool)": {
        "details": "See {IERC721-setApprovalForAll}."
      },
      "supportsInterface(bytes4)": {
        "details": "See {IERC165-supportsInterface}."
      },
      "symbol()": {
        "details": "See {IERC721Metadata-symbol}."
      },
      "tokenURI(uint256)": {
        "details": "See {IERC721Metadata-tokenURI}."
      },
      "transferFrom(address,address,uint256)": {
        "details": "See {IERC721-transferFrom}."
      },
      "transferOwnership(address)": {
        "details": "Transfers ownership of the contract to a new account (`newOwner`). Can only be called by the current owner."
      }
    },
    "version": 1
  },
  "userdoc": {
    "kind": "user",
    "methods": {},
    "version": 1
  }
}